:020000040001F9
:10F00000404F002015F401001DF401001FF4010021
:10F0100021F4010023F4010025F4010000000000A8
:10F0200000000000000000000000000027F40100C4
:10F0300029F40100000000002BF401002DF4010070
:10F040000DF801002FF4010009FC01002FF401006C
:10F050002FF401002FF4010039F501002FF4010015
:10F060002FF401002FF401002FF401002FF4010010
:10F070002FF401002FF401002FF401002FF4010000
:10F080002FF401005DF801002FF401002FF40100BE
:10F0900073F901002FF401007DF901002FF4010044
:10F0A0002FF401002FF401002FF401002FF40100D0
:10F0B0002FF401002FF40100000000000000000008
:10F0C0002FF401002FF401002FF401002FF40100B0
:10F0D0002FF401002FF401002FF4010000000000C4
:10F0E0000000000000000000000000000000000020
:10F0F0000000000000000000000000000000000010
:10F1000000000000000000000000000000000000FF
:10F1100000000000000000000000000000000000EF
:10F40000DFF80CD000F05AF80048004789470200A6
:10F41000404F00200648804706480047FEE7FEE7C9
:10F42000FEE7FEE7FEE7FEE7FEE7FEE7FEE7FEE7B4
:10F43000BDF9010001F4010040EA01039B0703D07C
:10F4400009E008C9121F08C0042AFAD203E011F823
:10F45000013B00F8013B521EF9D27047D2B201E0E5
:10F4600000F8012B491EFBD270470022F6E710B5C9
:10F4700013460A4604461946FFF7F0FF204610BD22
:10F48000421C10F8011B0029FBD1801A704730B5CF
:10F4900004460020034600E05B1C934203D2E05C7C
:10F4A000CD5C401BF8D030BD034611F8012B00F8AD
:10F4B000012B002AF9D1184670470000064C074D71
:10F4C00006E0E06840F0010394E807009847103434
:10F4D000AC42F6D3FFF798FFE09E0200009F0200C7
:10F4E00070B58C1810F8015B15F0070301D110F806
:10F4F000013B2A1106D110F8012B03E010F8016B33
:10F5000001F8016B5B1EF9D12B0705D40023521EB5
:10F510000DD401F8013BFAE710F8013BCB1A921C1D
:10F5200003E013F8015B01F8015B521EF9D5A1421B
:10F53000D8D3002070BD00002DE9F04F89B04FF006
:10F540000008002008904FF48070079001260024E6
:10F5500013E0079805F080FF48B100BF81480068BC
:10F56000304020B1079805F069FF48EA06087600A8
:10F570000798001D80B20790641C082CE9D34FF453
:10F58000BE7005F069FF50B14FF4BE7005F056FF34
:10F5900048F0004808AA0121002005F035FF08F0D6
:10F5A000FF0000B3012600241BE006EA0800B0B10A
:10F5B00000BF6D4850F82400C0F30420074600BF88
:10F5C000694850F82400C0F301408146204602F00B
:10F5D00021FC054615B149463846A84700BF7600CC
:10F5E000641C082CE1D308F0004000287ED00020E5
:10F5F00006900590002505E04FF0FF3004A941F882
:10F6000025006D1C002DF7D000BF002006900024BF
:10F610006FE05648005D0390039820F0C007534800
:10F620000057401C002863D004A9384605F0CEF9E5
:10F6300000285DD003984FEA901A384602F032FC59
:10F64000814602F0E7FB0290029810B9BAF1030F6D
:10F650004BD1BAF1030F11D1394605A80246CB08A8
:10F6600001F0070112F803C04FF0010E0EFA01FE7F
:10F670004CEA0E0C02F803C000BF00BF00BF00BF81
:10F680004FF0A041084600F5E06151F82710C1F3A2
:10F69000014900BF08A9384605F098F98346BBF137
:10F6A000000F02D0B9F1020F05D0BBF1000F1BD142
:10F6B000B9F1030F18D1BAF1030F0FD1B9F1020F4D
:10F6C00001D1032000E0022001903846019905F0A5
:10F6D0004DFE0698401CC0B2069000BF029818B1BB
:10F6E00051463846029A904700BF00E036E000BF1E
:10F6F000641C042C8DD3069858B3012703AA01215A
:10F70000002005F081FE00250AE003A850F825003E
:10F7100008A951F82510884201D0002702E06D1C8D
:10F72000002DF2D000BF17B10020069010E0002598
:10F730000CE003A850F8250008A941F8250005A809
:10F7400050F8250004A941F825006D1C002DF0D0CB
:10F7500000BF069800287FF458AF00BF09B0BDE88D
:10F76000F08F00000463004010650040802C0020F2
:10F7700000F01F0201219140024A430942F8231080
:10F780007047000080E200E000F01F02012191407C
:10F79000024A430942F823107047000080E100E06C
:10F7A00000F01F02012191404209920002F1E02283
:10F7B000C2F80011704700F01F0201219140420978
:10F7C000920002F1E022C2F80011704700F01F021F
:10F7D00001219140024A430942F82310704700007A
:10F7E00000E200E010B5002807DA4A07140E054AC7
:10F7F00000F00F031B1FD45403E04A07130E024A04
:10F80000135410BD18ED00E000E400E010B54FF413
:10F81000807005F0E6F860B14FF4807005F0EAF80A
:10F82000012005F0F1F801200B494870002002F09A
:10F83000C5FB4FF4827005F0D4F858B14FF48270D4
:10F8400005F0D8F8022005F0DFF8012002498870A1
:10F8500002F0B4FB10BD00001C2C002010B50020ED
:10F860000949086000210948C0F84411C0F848114E
:10F87000C0F84C1100200549C1F8000102493C398B
:10F88000086009F091FA10BD4011014000100140DC
:10F890002DE9FC4104460D46164600BF0C48007891
:10F8A00008B900F0C3F900BF00200190009068463D
:10F8B00000F098FE32462946204600F00BF8074635
:10F8C00000BF9DF8000000F093FE3846BDE8FC81C3
:10F8D000C82E00202DE9F047074688461646C24646
:10F8E00007EB47011B4800EBC109D9F8140020B110
:10F8F000012811D0022826D11EE0484600F0CCF99C
:10F900000546B54201D2002405E034463246514650
:10F91000484600F008FA18E0484600F0BDF90546F0
:10F92000B54201D2284600E0304604462246514600
:10F93000484600F0F8F908E032465146484600F0E3
:10F94000B9F9044601E0002400BF00BF2046BDE82D
:10F95000F0870000E02E002070B505460C462046DA
:10F96000FFF78EFD0646324621462846FFF790FFF8
:10F9700070BD10B509F02EF910BD000070B50A4831
:10F98000006868B1084800688047044600BF254603
:10F9900025B100BF284600F0A1FC00BF00BF01E078
:10F9A00004F06CFA70BD0000742200200148024986
:10F9B000086070470090D0038C22002010B502F040
:10F9C00095FD10B182488349486702F0A7FD28B130
:10F9D00081480068C0F342308049086002F0C8FDE9
:10F9E00028B17F48006820F080707D49086002F0EF
:10F9F000D7FD48B100207B4908604FF08041C1F835
:10FA000010017649091F086002F0F4FD18B10320C7
:10FA100072496431086002F005FE68B10520724940
:10FA20000860012070497831086000206E49083173
:10FA300008603F20091F086002F00CFE002855D026
:10FA40006A4800686A4908606848001D0068091D26
:10FA50000860664808300068091D086063480C307B
:10FA60000068091D0860614810300068091D0860C1
:10FA70005E4814300068091D08605C481830006852
:10FA80005B492031086059481C300068091D086036
:10FA9000564820300068091D08605448243000682A
:10FAA000091D0860514828300068091D08604F484A
:10FAB0002C300068091D08604C48303000684C4903
:10FAC00040310860494834300068091D08604748E3
:10FAD00038300068091D086044483C300068091D42
:10FAE0000860424840300068091D086002F0D4FCFC
:10FAF00030B139481430006800F04F003D490860CB
:10FB000037487438006840F470003549743908602B
:10FB100000BF00BF00BFBFF34F8F00BF00BF00BFDB
:10FB200000BF00BF00BFBFF36F8F00BF00BF00BFAB
:10FB30003148006800F0004030B92F48001D0068CF
:10FB400000F00040002840D001202C49086000BF90
:10FB50002B4800680028FBD015202749086000BF0B
:10FB6000274800680028FBD015212348001D0160AC
:10FB700000BF234800680028FBD000201F49086010
:10FB800000BF1F4800680028FBD000BF00BF00BFB7
:10FB900000BF00BFBFF34F8F00BF00BF00BF1048C2
:10FBA000F038006800F4E06016490843001D0C4975
:10FBB000F039086000BF00BF00BFBFF34F8F00BF28
:10FBC00000BF00BF00BF00BFFDE7FFF7EFFE10BDA5
:10FBD0000DF0ADBA00C00740440200103C050040E3
:10FBE000FCED00E00C010040105600400404001041
:10FBF00020C50040E40E00400012001004E5014062
:10FC000000E401400000FA0510B50648007F20B16D
:10FC10000449054809F01BFD03E00249024809F0C8
:10FC200075FC10BD882C00200020004010B5114C40
:10FC300002202061606110A0A0611249E1614021B1
:10FC400021620021A1626162E1620BA0A0640E4901
:10FC5000E164102121650021A1656165E1650BA1C9
:10FC6000E01DFFF721FC0AA12046FFF71DFC202024
:10FC7000A07110BDC82E00205465726D696E616C54
:10FC800000000000782E0020B82E002052545400AE
:10FC9000534547474552000010B501460A69CB68F5
:10FCA0009A4204D88C68641EE41AA01801E0D41AA1
:10FCB000601E10BD2DE9F0470446894617464FF0F7
:10FCC000000AE56800BFD4F81080A84503D9A8EB66
:10FCD0000500461E04E0A5EB0800401CA1680E1AB2
:10FCE000A068401BB04201D9304601E0A068401B2B
:10FCF0000646BE4201D2304600E0384606466168FC
:10FD0000481932464946FFF797FBB244B144BF1B3E
:10FD10003544A068A84200D10025E560002FD2D16B
:10FD20005046BDE8F0872DE9F04704468946154660
:10FD3000E668A068871BAF4208D9616888192A461F
:10FD40004946FFF779FB7019E06010E0B84661683A
:10FD5000881942464946FFF76FFBA5EB070809EBF8
:10FD6000070142466068FFF767FBC4F80C80BDE8F6
:10FD7000F08702E008C8121F08C1002AFAD17047B4
:10FD80007047002001E001C1121F002AFBD170471B
:10FD90000146202908DA012088400A4A104008B1AB
:10FDA000012070470020FCE7402909DAA1F120007A
:10FDB000012202FA00F008B10120F2E70020F0E78A
:10FDC0000120EEE7FC06FFBC00BFEFF31081084600
:10FDD00072B6704770B505460C4605B10CB90020E7
:10FDE00070BD287840082178B0EB510F01D0002079
:10FDF000F6E70622611C681CFFF749FB08B90120E1
:10FE0000EEE70020ECE70246002104E0505C08B178
:10FE100001207047491C0629F8D30020F9E70000AB
:10FE200010B504466CB108480068A04209D80648DD
:10FE30004068A04205D3204604F036F908B10120FD
:10FE400010BD0020FCE70000902200202DE9FC41BD
:10FE5000044688461646002537880020308094F8EE
:10FE60002D0058B13A463146404601F027FA054682
:10FE700000BF15B12846BDE8FC8100BFA07850B195
:10FE80003A463146404600F0D7FB054600BF0DB16B
:10FE90002846F0E700BFE07860B1E17848B23B4621
:10FEA0003246414602F0ACFF054600BF0DB1284680
:10FEB000E1E700BF606868B1616891F900003B4606
:10FEC0003246414609F086F8054600BF0DB1284686
:10FED000D1E700BF208900280EDD4346062202211B
:10FEE00004F10800CDE9006709F0F4FC054600BF05
:10FEF0000DB12846BFE700BF208A00280EDD43462B
:10FF00000722032104F11000CDE9006709F0E2FCAB
:10FF1000054600BF0DB12846ADE700BF208B002885
:10FF20000EDD43461522142104F11800CDE90067C7
:10FF300009F0D0FC054600BF0DB128469BE700BF85
:10FF4000206A58B13B4632464146206A02F0C3F867
:10FF5000054600BF0DB128468DE700BF606A58B165
:10FF60003B4632464146606A04F041FC054600BF0C
:10FF70000DB128467FE700BF94F82C0000280BDD68
:10FF80003B4632464146204608F06CF9054600BF24
:10FF90000DB128466FE700BF207858B13B46324686
:10FFA0004146204604F05EFC054600BF0DB12846E0
:10FFB00061E700BF28465EE770B504461448FFF7C6
:10FFC00022FF0546012C06D0022C0BD0032C10D0AA
:10FFD000042C1AD113E00F48407810B10DB1012064
:10FFE00070BD00BF0B48807810B10DB10220F7E75B
:10FFF00000BF0848C07808B10320F1E700BF0548FA
:020000040002F8
:10000000007908B10420EBE700BF0020E8E700001A
:100010007D210020CC2600200146481C052290FBB3
:10002000F2F302FB1300C0B270470146C87800F03B
:10003000040008B9072070470020FCE710B5012232
:100040000221002001F060FC044600BF1CB1072C17
:1000500001D0204610BD00BF07220221012001F07F
:1000600053FC044600BF1CB1072C01D02046F1E729
:1000700000BF0A220021084601F046FC044600BFEA
:100080001CB1072C01D02046E4E700BF0020E1E7C7
:1000900030B5AFB03C2120A8FFF7E7F902208DF87A
:1000A000800001208DF8820006208DF88300032057
:1000B000ADF890001C4920A84161202118A8FFF745
:1000C000D4F901208DF863004FF496701C90B42091
:1000D0001D90142215A101A8FFF7AEF95920ADF823
:1000E000180001A908911420ADF81C003C2109A8B2
:1000F000FFF7BBF900208DF8240006A8129000201D
:100100000F4B18AA09A9009020A800F045FD04464D
:1001100000BF254625B100BF284600F0DFF800BF2C
:1001200000BF2FB030BD0000482100204368657239
:100130007562696D696E6420476F67676C657300EF
:100140003B55020070B5032000F04CFE044600BF92
:10015000254625B100BF284600F0C0F800BF00BF0B
:1001600070BD70B58CB004460D461646002005E003
:10017000C0F10F01615C0DF80010401C1028F7D38E
:100180000D2104A8FFF771F9002005E02A5CC0F1F9
:100190000F0304A9CA54401C0328F7D3684643DF61
:1001A000002005E0C0F10F0208A9895C3154401C11
:1001B0000328F7D30CB070BD10B50446022001F03F
:1001C00011FA10BD10B5002407E00749096811F8BD
:1001D0003400012104F0F6FC641C044800788442D9
:1001E000F3D3002010BD00001022002014220020B4
:1001F0002DE9F84306460C461746052F02D2072084
:10020000BDE8F88304F0DCFD38B904F0A9FD05462B
:1002100000BF0DB12846F3E700BF16480660164838
:1002200004701648076000201549086015490860E9
:1002300015E006EBC40814480068009098F8020026
:100240008DF8010098F80000104A694604F010FD8E
:10025000054600BF0DB12846D2E700BF00BF201EF3
:10026000A4F10101CCB2E4D1094A0021094800F00F
:1002700075F8C5E710220020142200201822002063
:100280001C22002020220020A89E020041370200EC
:1002900041230200A49E020000BF00BF00BF00BFB8
:1002A00000BFBFF34F8F00BF00BF00BF0948006809
:1002B00000F4E06008490843001D0649086000BFDB
:1002C00000BF00BFBFF34F8F00BF00BF00BF00BF24
:1002D00000BFFDE70CED00E00000FA053EB5044666
:1002E000002000900190029002946A46002144F29E
:1002F0000100FFF7D1FF3EBD70B504460D46204614
:1003000002F007FD28B12946204602F0F1FC00204A
:1003100070BD0520FCE7034609B90E20704712B1F5
:10032000501E104008B10920F8E71960501E98804F
:1003300000209860D86000BFF0E770B504460D4615
:10034000204602F0E6FCA188884205D829462046CE
:1003500002F0EDFC002070BD0420FCE710B5034660
:100360000C4600BF0B48406808B9082010BD00BF0C
:100370000AB90720FAE70BB90720F7E71868007CED
:1003800008B10820F2E71968002008744C744A612B
:1003900000BFEBE7242200202DE9F04107460D467F
:1003A00014461E46204600F0030109B9012100E071
:1003B000002111B90720BDE8F0810CB90720FAE748
:1003C00007F0EAFA114806600020114908704870E9
:1003D00008468570446000200E4908600E49087088
:1003E0000E4908701420FFF7C3F907211420FFF706
:1003F000F9F91420FFF7D4F9384607F0A3FA07F00B
:100400009BFA074908600020D5E700004022002041
:10041000242200202C2200203C2200203D2200200B
:10042000302200202DE9F04104460E4617462546AD
:1004300000BF1048406810B90820BDE8F08100BF37
:100440000CB90820F9E7052E01D20720F5E7686905
:1004500008B90820F1E7687C012801D1304600E0A6
:10046000002080463B4642463146284608F04CFC78
:10047000E3E700002422002070B50446254600BFB3
:100480000848406808B9082070BD00BF0CB1686911
:1004900008B90820F8E7002028740221284608F04F
:1004A00062FCF1E7242200202DE9F04104460F48C8
:1004B000077821460E48FFF71FFF804697B10020BE
:1004C0000A49087001220B490B4804F0CFFC05468D
:1004D00000BF2E4626B100BF3046FFF7FFFE00BF2B
:1004E00000BF00BF4046BDE8F0810000722200203E
:1004F000582E002071220020642200202DE9F041B6
:1005000088B004460D46174698462E4807601DB928
:10051000072008B0BDE8F081A88882B22A4829687F
:10052000FFF7F9FE064600BF0EB13046F1E700BF07
:10053000A88982B22548A968FFF7EDFE064600BFEC
:100540000EB13046E5E700BF202221496846FEF79C
:1005500073FF60690690207C08B1012000E0002054
:100560008DF814008DF81C80607C08B10E2000E02E
:1005700000208DF81500E0680290A06803902068C4
:10058000019060680090134A6946134804F02CFCFF
:10059000064600BF0EB13046BBE700BF00200F4942
:1005A00008702068401C58B19DF81D0010B90A4819
:1005B00004F0C6FC01220A49074804F057FCA8E7EA
:1005C0000020A6E76C220020582E0020682E002074
:1005D000C09E0200DD9302006422002072220020EF
:1005E0007122002010B50446204607F021FB10BD03
:1005F00070B5044625460E488068B0B1ADB9FFF726
:10060000E3FB06460A4800680A4908600848406853
:100610004FF0E021C1F804010020054988601EB9AF
:1006200000BF62B600BF00BF00BF00BF70BD0000CA
:10063000C82C002000E100E0F8B505460C4617463E
:100640002088001DB84201D90C20F8BD684679DF2A
:10065000064600BF0EB13046F7E700BF03202188F1
:1006600068542088401C20801920218868542088E4
:10067000401C208020884119BDF8000009F073F863
:100680002188084420800020DFE7000070B50022A8
:100690004FF4203107480068FFF7C4FE044600BF4E
:1006A000254625B100BF2846FFF718FE00BF00BF52
:1006B00070BD0000749D020070B505460C462068B0
:1006C000401C28B1206804F076FE206804F029FE62
:1006D0006068401C18B10021606804F015FE28799C
:1006E0002D4901EB4010007F50B32868A169C0F884
:1006F000241500BF617D227D286841EA0203C0F80D
:100700006C3500BFD4E90012286804F00FFF207D8B
:1007100001283FD1A068401C18B10021A06804F056
:10072000F3FDE068401C28B1E06804F044FEE06896
:1007300004F0F7FDD4E90221286804F0E3FE29E083
:100740002868A169C0F8241500BF617D227D286852
:1007500041EA0203C0F86C3500BFD4E900122868F2
:1007600004F0B7FE207D012814D1A068401C18B108
:100770000021A06804F0C8FDE068401C28B1E068D2
:1007800004F019FEE06804F0CCFDD4E902212868E9
:1007900004F088FE70BD0000882C002030B58BB0BE
:1007A0001348007800F058FD0546284607F074FA13
:1007B000D8B101A800F0B0FC142201A906A8FEF7E8
:1007C0003BFE00240DE007A931F814000849097820
:1007D00000F050FD20B107A931F8140003F00EFF1E
:1007E000641C0698A042EED800BF0BB030BD0000DC
:1007F000B621002010B50446637903F00302217985
:10080000208803F0CBFD10BD10B50446207918B93F
:10081000204600F007F803E02046FFF7EBFF00BF9B
:1008200000BF10BD2DE9F04188B0044600252088A6
:1008300000F0E4FC0746208803F060FA0646A06852
:100840000790607A0690208800222349097800F0FA
:1008500023FD17B908B0BDE8F0816079C0F38000CE
:1008600090B10721304605F0B7FC0546BDB1082020
:100870008DF800002088ADF80200ADF80460029504
:10088000684601F0B5FF0AE020881449097800F0B5
:10089000F1FC20B1304603F01BFA804600BF032074
:1008A0008DF80C002088ADF80E006079C0F3800050
:1008B0008DF81000A079C0F380018DF811109DF81B
:1008C0001C108DF812109DF818108DF8131003A845
:1008D00001F08EFF00BFBDE7F6210020F8210020C7
:1008E000F0B591B004460D46207DD8B100200990A6
:1008F00000BF9DF8240020F00F00401C8DF824005C
:100900009DF8240020F0F00010308DF8240000BF86
:10091000687B8DF825009DF8260020F00600801CDD
:100920008DF826001C210AA8FEF79FFD9DF82800DF
:1009300020F00200801C8DF82800207D08B10120E5
:1009400000E000209DF8281060F304118DF82810B5
:1009500000200B900D900E90207D08B109A800E0BA
:1009600000200F900020109000BF01208DF80E0095
:1009700042F61920ADF80C0000BF00200290A87BC1
:100980008DF80800E87B8DF809009DF80A0020F03A
:100990000600801C8DF80A009DF80A0020F008006F
:1009A0008DF80A009DF80A0020F010008DF80A006A
:1009B0009DF80A0020F001008DF80A00287B0190C4
:1009C000142104A8FEF751FD03A8049002A8059085
:1009D0000120ADF818000020ADF81A000120ADF894
:1009E0001C0001A80890A088A31D04AA0AA9A2DFE0
:1009F000064616B1304611B0F0BDA868002855D0A3
:100A000000BF01208DF80E0042F60810ADF80C0072
:100A100000BF00200290287C8DF8080000BF9DF8E0
:100A2000090020F00F008DF809009DF8090020F062
:100A3000F0008DF8090000BF9DF80A0020F00600C4
:100A4000801C8DF80A009DF80A0020F008008DF83F
:100A50000A009DF80A0020F010008DF80A009DF8A9
:100A60000A0020F001008DF80A006846A96800F02D
:100A700022FD0746142104A8FEF7F7FC03A8049002
:100A800002A80590ADF818700020ADF81A00BDF866
:100A90001800ADF81C00CDF820D0E08804F10E025B
:100AA00004A9A3DF06461EB13046A4E70020E0817A
:100AB0000020A0E710B50E480078401C0C490870D3
:100AC000084601780B4800F041FA044674B1082C3E
:100AD0000CD043F20400844208D043F20140844227
:100AE00004D000BF2046FFF7F9FB00BF10BD000097
:100AF00054210020DC25002010B50446FFF7DAFF62
:100B000010BD2DE9F04192B080460D461F20119096
:100B10001090B8F1000F17D04046FFF786FA044650
:100B200000BF1CB1204612B0BDE8F08100BF11AA81
:100B300008A94046FFF78AF9044600BF0CB12046D9
:100B4000F1E700BF08AE02E0002600201190ADB131
:100B5000284607F0E1FF044600BF0CB12046E2E75B
:100B600000BF10AA69462846FFF770F9044600BF87
:100B70000CB12046D7E700BF6F4602E000270020F7
:100B80001090BDF84000C3B2BDF84400C1B23A466F
:100B9000304672DFC7E700002DE9F04704460F46F4
:100BA00015461E46DDF8208004B115B90E20BDE8BB
:100BB000F087012048490870002048490870202229
:100BC00029464748FEF738FC464806604648C0F8C4
:100BD00000804FF6FF7045490880454800210160BC
:100BE000818081713C214348FEF73FFC20784149D8
:100BF0000870A0788870E078C87060784870D4E990
:100C00000402C1E904020846D4E90212C0E9021252
:100C1000D4E90612C0E90612606AD8B136483549EF
:100C2000486236498160606A00883249496A0880B2
:100C3000606A80882F49496A8880002005E0616ADF
:100C40008968095C2D4A1154401C2A49496A8988DF
:100C50008142F4D8A06A20B329492A4881602549F5
:100C6000886227492348806A8160A06A8088214978
:100C7000896A8880A06A00881E49896A08800020E5
:100C800005E0A16A8968095C1D4A1154401C194994
:100C9000896A89888142F4D894F82C00154981F832
:100CA0002C00206A58B1184812490862206A40880E
:100CB000096A4880206A00880E49096A08806068CD
:100CC00010B10C496068486039460A48FFF719FFBF
:100CD000814648466BE70000782100207B210020F8
:100CE000CC2600208C21002090210020882100208B
:100CF0007C210020EC26002028270020342700201B
:100D000060270020542700208421002010B50446CD
:100D10002088102804D0112806D01B280CD107E009
:100D2000204604F00FFD08E0204604F03DFD04E0FD
:100D3000204604F0A9FD00E000BF00BF10BD000088
:100D400070B50546022D02D0032D15D100E000BF7D
:100D50000B48007878B100200949087009480078EC
:100D600000F040F8044634B10748006818B1204646
:100D700005490968884700E000BF00BF70BD00005A
:100D8000792100207B2100209021002010B574DF04
:100D900001200F49087000200E49087006200E49F6
:100DA000C87000210C48FFF7ACFE04460CB1204689
:100DB00010BD0A48007800F015F8044634B1084820
:100DC000006818B120460649096888470020EFE707
:100DD0009421002096210020EC2600207B21002079
:100DE000902100207FB505464D48007810B90820B5
:100DF00004B070BD4B48057002F06CF820B10120C2
:100E0000494908700020F3E74848002101608180CB
:100E100081714748407818B14248007801280DD0C8
:100E20004348807818B13F480078012806D04048F0
:100E3000807888B13B48007802280DD13D48006891
:100E400038B101203C49087008203A4909688847B0
:100E500002E00020384908702846FFF7ADF8314914
:100E6000087034480068C0B108460078032803D0F1
:100E700008460078042810D12D48007868B12F4822
:100E8000007850B900202E49087001202D490870C3
:100E9000072028490968884702E00020294908708E
:100EA000002000900190029003908DF800008DF8D2
:100EB00008001C48007805281CD2DFE800F0170362
:100EC000080D1200684607F08DFA044613E06846E4
:100ED00007F098FA04460EE0684607F0A9FA0446BF
:100EE00009E0684607F0D4FA044604E000201649F9
:100EF000087000E000BF00BF0A48007828B16846CB
:100F000073DF04460CB1204672E70A48006820B13E
:100F10000D480078074909688847002068E7000005
:100F2000782100207B210020792100207C210020D5
:100F3000CC2600208C210020832100209421002039
:100F400096210020952100207A21002033B587B01A
:100F5000044614B90E2009B030BD0025207C9DF850
:100F60002010884236D00020059006900120ADF870
:100F700014000020ADF8160008A80690E188608AE9
:100F800005AAA4DF05461DB99DF82000207401E0E4
:100F90002846E0E7608A4FF6FF71884219D0207D2D
:100FA000B8B100200190029003900490E088ADF861
:100FB000040001208DF80600BDF81600ADF8080009
:100FC00005A8039006980490608A01A9A6DF05464B
:100FD00000E008252846BEE7F8B504460D4604B1F2
:100FE0000DB90E20F8BD286820604FF6FF706082B2
:100FF00028792075FF20207400BF01208DF80200A1
:1010000041F60F00ADF8000000BF221D6946012027
:10101000A0DF06460EB13046E4E729462046FFF73A
:101020005FFCDFE770B505460C4605B104B970BD3D
:101030002088102804D0112807D050280FD109E0AB
:101040002146284604F078FB0AE02146284604F0B1
:10105000A3FB05E02146284604F058FC00E000BF51
:1010600000BF00BFE3E7000070B505461C2229461B
:101070001248FEF7E1F9002011490870286850B1C4
:10108000104829680A680260496841607ADF0446AE
:101090003CB1204670BD0B487BDF04460CB12046B6
:1010A000F8E74FF6FF7008490880002007490870EC
:1010B000074A00210748FFF751F9EBE78027002096
:1010C000AC21002098210020A2210020A021002096
:1010D000CD970200C89D020010B504462088102854
:1010E00006D0112808D012280ED0502810D107E0C1
:1010F000204604F005FB0CE0204604F02DFB08E040
:10110000204604F0DDFB04E0204604F0EDFA00E0A8
:1011100000BF00BF10BD000010B504460348027DAB
:10112000011D204606F031FE10BD0000BC27002046
:1011300010B504460348C17D2246001D06F00EFE90
:1011400010BD0000BC27002010B504460348017EF6
:101150002246001D06F002FE10BD0000BC27002044
:1011600070B504462088102804D011281DD01A28F4
:1011700040D11EE006F07AFBA08806F0F1F920B914
:1011800000BF0420FFF7AAF80EE0E07B022801D19F
:10119000012000E000200546A2882B461649A1F157
:1011A000120006F013FE00BF24E0A08806F080FBCA
:1011B00020E0207A0121B1EB101F01DA012000E0CC
:1011C00000200346A2880C49491CA1F1130006F037
:1011D000FDFD207A0221B1EB101F01DA012000E0B1
:1011E00000200346A2880449891CA1F1140006F0DE
:1011F000EDFD00BF00BF70BDD227002070B50446D2
:1012000000250B48017D2246001D06F0A7FD60B1B8
:101210000748817D2246001D06F0A0FD06460EB15E
:10122000022000E00120054600BF284670BD0000F6
:10123000BC27002010B500240AE0204608F018FB67
:1012400020B9204608F00AFB204610BD601CC4B23D
:10125000182CF2DB1820F8E710B50446204608F0F9
:1012600007FB10B10248005D10BD0020FCE7000044
:10127000D527002070B505460C46204608F0F8FA40
:1012800030B10448015D2A46153806F067FD70BD8F
:101290000020FCE7D527002070B505460C46164611
:1012A000204608F0E5FA30B10348011933462A46D2
:1012B000153806F08BFD70BDD52700202DE9FC41C7
:1012C00005460C46174620880930B84202D90C2042
:1012D000BDE8FC8168466DDF064600BF0EB13046B2
:1012E000F6E700BF0820218868542088401C208031
:1012F0001B20218868542088401C20802088284496
:10130000DDF801100160BDF8051081802088801D86
:1013100020809DF80000400818B9002021886854FA
:1013200002E00120218868542088401C2080002091
:10133000CEE7000010B504462046FFF711FF204617
:1013400005F0A8FD2046FFF7C7FE204600F0E2F9B1
:10135000204604F00BF92046FFF7D8FC214604484C
:10136000FFF760FE2146034800F050F810BD000072
:10137000DC250020F425002070B586B004460E461A
:10138000214B0FCB01AD0FC500BF14B90E2006B025
:1013900070BD00BF00BF0EB90E20F8E700BF4FF6CA
:1013A000FF70A0823068A0610020A075214601A8CE
:1013B00063DF054600BF0DB12846E8E700BF20788F
:1013C0008DF816000120ADF81400A21C05A9A0DFBD
:1013D000054600BF0DB12846D9E700BF314620467B
:1013E00006F025FB054600BF0DB12846CFE700BF3C
:1013F0003146204607F067FD054600BF0DB128467F
:10140000C5E700BF0020C2E74C9E020070B505464C
:101410000C4605B104B970BD2088102804D01128ED
:1014200007D050280FD109E02146284604F087F95B
:101430000AE02146284604F0B3F905E02146284693
:1014400004F084FA00E000BF00BF00BFE3E737B557
:1014500084B004460D4600BF14B90E2007B030BD5D
:1014600000BFA08A4FF6FF71884201D0A07D08B965
:101470000820F3E7BDF81800142801DD0720EDE788
:1014800000200090019002900390A089ADF8000028
:10149000039506A8029001208DF80200A08A6946F3
:1014A000A6DFDBE770B50446204608F056F905468E
:1014B00005F0010070BD2DE9F04105460E460024FF
:1014C00032782146641C6A5472782146641C6A543E
:1014D00000BF022C01D1012000E00020074627B9FF
:1014E00000BF0020FEF7FAFE00BF00BF2046BDE8A7
:1014F000F081000070B588B027480068079000BFF1
:1015000000235022254907A807F0A6FA054600BF88
:101510002E4626B100BF3046FEF7E0FE00BF00BFFA
:1015200000BF6A460121002007F076FA044600BF9A
:10153000254625B100BF2846FEF7D0FE00BF00BFFC
:101540001720ADF81000684607F052FA044600BFB5
:10155000254625B100BF2846FEF7C0FE00BF00BFEC
:101560000F4807F039FA044600BF254625B100BFF1
:101570002846FEF7B3FE00BF00BF0A4807F0C0FAD6
:10158000044600BF254625B100BF2846FEF7A6FE4B
:1015900000BF00BF08B070BD909D02001026002063
:1015A000351302007F8B020001460148405C704702
:1015B000989D020010B50146094B585C00BF4FF0E2
:1015C000A044234600BFD3F81045C44004F00104F2
:1015D0000CB1012000E00020024682F0010010BDA5
:1015E000989D020010B502460949885C00BF4FF083
:1015F000A0442146D1F80435012484409C43C1F81D
:101600000845012484401C40C1F80C4500BF10BDB2
:10161000949D020010B504460249085D012103F0C3
:10162000D5FE10BD949D020010B504460249085D28
:10163000002103F0CBFE10BD949D020010B50146C1
:10164000094B585C00BF4FF0A044234600BFD3F8BD
:101650000445C44004F001040CB1012000E0002066
:10166000024682F0010010BD949D02007CB500246A
:101670000CE00948055D0020009003460122114658
:101680000190284603F004FE00BF641C042CF0D334
:1016900000F004F87CBD0000949D020010B5002409
:1016A00003E02046FFF7B6FF641C042CF9D310BDFD
:1016B00010B5002403E02046FFF7B6FF641C042C9D
:1016C000F9D310BD02464FF0FF30002106E0054B74
:1016D0005B5C934201D1084602E0491C0429F6D321
:1016E00000BF7047989D020070B505460C46002665
:1016F0000648056014B1204607F015FA0448006852
:1017000010B9FEF79BFC0646304670BD70210020E4
:101710007421002070B505462888102802D01128B1
:101720002CD115E01748006860B900F0ADFD044603
:1017300000BF34B11448006818B120461249096846
:10174000884700BF0F480068401C0E49086016E03B
:101750000C480068401E0B4908600846006860B9E4
:10176000FEF76CFC044600BF34B10748006818B1AE
:10177000204605490968884700BF00E000BF00BF58
:1017800070BD0000742100207021002010B50020E1
:1017900000F0E2FA044600BF1CB1062C01D020463E
:1017A00010BD00BF012000F0D7FA044600BF1CB1F5
:1017B000062C01D02046F3E700BF0020F0E7000030
:1017C0002DE9F04106460F464FF000080024304650
:1017D000FFF778FF0446042C41D227B3012F02D033
:1017E000022F3BD133E004EB4400234911F8008081
:1017F00004EB44000844407868B12048006800EBDE
:10180000800041001E4A1F480068FEF70BFE054697
:101810000DB91B48067004EB440017490844807852
:10182000194908551AE017480068FEF725FE1648C2
:10183000005D04EB4401104A11448978884205D1C7
:1018400004EB44001146084490F8028006E004EBE3
:1018500044000949084490F8018000BF00BFB8F176
:10186000000F06D00948006818B1404607490968CA
:101870008847BDE8F0810000A02600205C21002000
:1018800068210020A49D020069210020642100201D
:1018900010B504462046FFF78DFE10BD70B5054615
:1018A000042D06D0072D15D00A2D28D106F020FED4
:1018B00026E013211348008876DF0446082C08D060
:1018C00000BF264626B100BF3046FEF707FD00BF29
:1018D00000BF15E00B4800884FF6FF7188420DD11C
:1018E000FFF754FA0446082C08D000BF264626B15C
:1018F00000BF3046FEF7F2FC00BF00BF00E000BFB3
:1019000000BF70BD4621002030B503460020042BE7
:1019100023D2012A07D1012903D103F10E04E4B235
:1019200000E00024224679B1012902D0022911D118
:1019300004E003EB43040A4D2A550DE003EB430496
:10194000074D2C44627007E003EB4304044D2C4424
:10195000A27001E0072000BF00E0072030BD0000BA
:10196000A026002070B5044600250548007800F048
:10197000010018B1204600F05FF80546284670BD0A
:10198000602100202DE9F04105460E4690460024D6
:101990001F4806601F4805601F48C0F8008005F01A
:1019A0000200F8B1002706E0012211463846FFF791
:1019B000ABFF04467F1C042F01D2002CF4D02CB9BD
:1019C000720804211548FEF713FC044614B9FEF70B
:1019D000F9FB04462CB9124A00211248FEF7BEFC5E
:1019E000044600BF05F0010008B1FFF73FFE2CB927
:1019F0000D4A00210D48FEF7B1FC04462CB90C4AF3
:101A000001210C48FEF7AAFC04462046BDE8F081FF
:101A10005C2100206021002064210020A89D02009C
:101A20006F1D0200A49D0200C54002009C9D0200A3
:101A3000B9010200A09D02002DE9F04104460026F4
:101A40000025C048007820B10020BE490870FFF78B
:101A500025FE182C75D2DFE804F00C11123D6895B4
:101A6000BFCDD3F0EEEDECEBEAE9E8E7E6E5E4E341
:101A7000E2E1FFF713FEB44804705FE100BF00200D
:101A8000FFF7DCFD58B10020FFF7C4FD022C02D1A6
:101A90004FF4E16001E04FF47A60054609E0002070
:101AA000FFF7C2FD022C01D1C82001E04FF4C8703D
:101AB0000546A54804706420B5FBF0F0A349096809
:101AC00000FB01F700223946A1480068FEF7AAFC96
:101AD000064633E10020FFF7B1FD58B10020FFF7C3
:101AE00099FD032C02D14FF4487001E04FF47A6065
:101AF000054609E00020FFF797FD032C01D1C8201F
:101B000001E04FF4C87005468F4804706420B5FBAF
:101B1000F0F08E49096800FB01F7002239468C4835
:101B20000068FEF77FFC064608E10020FFF786FD0F
:101B300060B10020FFF76EFD042C03D14FF47A60F2
:101B400002E0FAE04FF47A6005460AE00020FFF771
:101B50006BFD042C02D14FF4C87001E04FF4C87043
:101B60000546794804706420B5FBF0F077490968B0
:101B700000FB01F70022394675480068FEF752FC69
:101B80000646DBE00020FFF759FD50B10020FFF7CB
:101B900041FD052C01D1C82001E04FF47A600546D3
:101BA00009E00020FFF740FD052C01D1C82001E02D
:101BB0004FF4C8700546644804706420B5FBF0F02B
:101BC0006249096800FB01F7002239466048006855
:101BD000FEF728FC0646B1E00020FFF703FD5A4857
:101BE00004705A480022016859480068FEF71AFC40
:101BF0000646A3E00020FFF717FD534804709DE060
:101C0000012050490870FFF7EDFC504800220168A0
:101C10004F480068FEF706FC06468FE088E086E045
:101C20007AE071E068E062E03EE03CE03AE038E013
:101C300036E030E01FE010E0FFE701204149087086
:101C4000FFF7D0FC4148006800EB800100224048CB
:101C50000068FEF7E7FB064670E00120394908708E
:101C6000FFF7C0FC39480022016839480068FEF7D8
:101C7000D9FB064662E0012032490870FFF7B2FC4A
:101C80003248006800EB8001002231480068FEF70E
:101C9000C9FB064652E0FFF70BFD2B4804704DE0F0
:101CA00000BF00BF00BF00BF2A480068FEF7E4FB8A
:101CB0000646C4F11105B5B1AEB9012D0FD9C82042
:101CC00068436421B0FBF1F02049096800FB01F78B
:101CD000002239461F480068FEF7A4FB0646022092
:101CE000FFF7A2FC02E00220FFF794FC26E0FFF7DA
:101CF000D5FC1548047021E0FFF7D0FC0020FFF769
:101D000093FC1148047019E0FFF7C8FC0120FFF7AD
:101D10008BFC0D48047011E0FFF7C0FC0020FFF7BA
:101D200083FC0120FFF780FC0748047006E000BF39
:101D3000FFF7BEFC0448047000E000BF00BF30465F
:101D4000BDE8F08159210020582100205C210020AD
:101D50009C9D0200A09D020070B504462046FFF73E
:101D600023FC0546032103F0E8FA002070BD10B5FE
:101D7000044620780221FFF723FD10BDF8B5054683
:101D8000134A40F6CD410320FFF7FCFD044600BF97
:101D9000264626B100BF3046FEF7A0FA00BF00BFBE
:101DA00069460020FFF7A0FC044600BF264626B186
:101DB00000BF3046FEF792FA00BF00BF9DF800005A
:101DC000022801D1012000E000202870F8BD0000A9
:101DD0009D18020001468879012809D10879012857
:101DE00006D1488842F60212904201D10120704784
:101DF0000020FCE74FF0FF31054A42F82010082888
:101E000004DBFF23A0F10801503253547047000057
:101E1000302C00200146024850F821007047000095
:101E2000302C00202DE9F04F03460C464FF0FF39CF
:101E30000AB1002000E0082084460AB1082000E032
:101E40000C208046614624E0154850F82100401CD3
:101E5000F0B91D460846274616464FFA80FBDFF8C4
:101E600040A00AF1300A0AF805B0DFF834A04AF8B9
:101E700020704EB94FFA85FBA0F1080ADFF820E088
:101E80000EF1500E0EF80AB000BF4FFA81F902E0D1
:101E9000491C4145D8D300BF4846BDE8F08F00003B
:101EA000302C00200146014840567047602C00202D
:101EB000014639B10448884204D80448884201D90F
:101EC000012070470020FCE790220020A022002083
:101ED00070B505460E46002407E055F8340002F0C0
:101EE000E3F808B9002070BD641CB442F5D30120AA
:101EF000F9E700000A49496C81B10949096C084AAF
:101F000002EBC1010160114691F84010491C01F03B
:101F1000070111641146496C491E51647047000065
:101F20006C2D0020064902688A4203D001680831FE
:101F30000160704702493839016000BFF9E70000CD
:101F4000A42D00200178022902D0017803290BD1A9
:101F500006490A6C817D1144044A116411464A6C99
:101F6000817D511A014A5164704700006C2D002098
:101F70002DE9F04104460D464FF6FF763046844287
:101F80000AD14FF48071284604F03EFF0646B6F5AC
:101F9000807F0FD126460DE0FF2C0BDC2146284622
:101FA00004F022FF07460FB1204601E04FF6FF7014
:101FB000064600BF3046BDE8F081000070B505461A
:101FC0000DB9094C01E0084C083409E0204602F044
:101FD00073F8064606B904E028467168884700BFD2
:101FE000F4E700BF70BD0000242C00202DE9F0476D
:101FF00082461F480068002836D01D4800680568E2
:1020000005F09AFC07461B4804682146384606F04E
:10201000BFFDC61C1848007808B905F09FFCAE4209
:1020200001D2284600E03046044424F07F44204694
:1020300005F07CFC05F080FC80463946404606F001
:10204000A7FD00F103093946204606F0A1FD8145B0
:1020500009D905F071FC814605F068FC2F2002F0DB
:10206000D9FC06F0EDFE01E005F096FCBDE8F08736
:102070002C22002030220020442200200146088823
:10208000062808DB0888B0F5486F06DD08884FF69B
:10209000FF72904201D0072070474888062808DB6D
:1020A0004888B0F5486F06DD48884FF6FF729042C9
:1020B00001D00720F0E708884FF6FF72904208D061
:1020C0004888904205D008884A88904201DD072060
:1020D000E2E70020E0E72DE9F04106460D46144610
:1020E00098462088801D404502D90C20BDE8F0812B
:1020F0003046FFF7C3FF074600BF0FB13846F5E78C
:1021000000BF0520218868542088401C20801220B0
:10211000218868542088401C2080228851193088EA
:1021200007F021FB218808442080228851197088FB
:1021300007F019FB2188084420800020D6E710B55D
:10214000044600BF2046FEF7C9F800BF10BD0000DE
:1021500030B587B01C216846FDF787F90020009054
:102160004FF4203001904FF47020029003208DF83E
:102170000C000020ADF80E008DF810000948059005
:10218000094806906846FEF76FFF044600BF2546E3
:1021900025B100BF2846FEF7A1F800BF00BF07B079
:1021A00030BD0000BD5602003F21020038B51B487B
:1021B00001F05CFF20BB1A48007848B1194840691B
:1021C000E8B100200090174841696846884716E04A
:1021D0001548007810B91348456801E01148856832
:1021E0000022294611480068FEF71CF9044634B164
:1021F0000C48806918B10B4881692046884709E07E
:102200000848406930B1012000900648416968469D
:10221000884700BF00200249087038BDA421002073
:10222000AC21002080270020A0210020C89D0200B2
:102230003EB504462088FEF77BFFD0B120881049C8
:102240000978FFF717F828B9208800220D49097886
:10225000FFF722F82088ADF8020005208DF8000075
:102260002088FEF771FF8DF80400684600F0C0FA80
:1022700005E02088012241F2060100F0EBF83EBDA6
:10228000F7210020F621002010B501220021084688
:10229000FFF73AFB044600BF1CB1072C01D02046D3
:1022A00010BD00BF072202210120FFF72DFB0446CD
:1022B00000BF1CB1072C01D02046F1E700BF04226B
:1022C00002210020FFF720FB044600BF1CB1072CB1
:1022D00001D02046E4E700BF0020E1E770B50446E6
:1022E0000D462A4621460248FFF7B1F870BD0000AE
:1022F000F425002070B506460D460EB1012070BDD4
:10230000287920B1012809D0022813D10FE02846EE
:1023100005F090F90446022028710DE0284600F0EF
:102320000FFD04460A2C01D141F61D5404E041F68C
:102330001D5401E00F2400BF00BF2046DFE700006E
:102340002DE9F0478146002532E01C48006800EB8B
:10235000C5042178012000FA01F6194800683040D0
:1023600020B317480068B04315490860207802F090
:10237000EDFC074621780120884012490968084091
:10238000217807FA01F188420FD16078012800D145
:1023900000E00020784080F00108606820B108F07B
:1023A000FF0120786268904700BF00BF681CC5B27B
:1023B000054800788542C8DBBDE8F0871022002080
:1023C000202200201C2200201422002070B5044688
:1023D00020793D2802D141F23D0001E04FF48850C0
:1023E000054620880022294601F0D8FF70BD000074
:1023F000014614480078144A127890421DD01148C2
:102400000078401C0F4A107010460078022801D155
:10241000002010700D480B4A127850F82200086016
:102420000B4A086812681044094A10601046006898
:1024300020F07F401060012070470020086000BF3E
:10244000FAE700003C2200203D2200203422002038
:1024500030220020FEB504460D461646094A07CA3A
:102460008DE80700ADF80240ADF804508DF8066025
:102470000022054801782046FEF70EFF684600F06E
:10248000B7F9FEBD3C9E0200F621002010B50446BF
:10249000A08928DF10BD000013480078062820D14D
:1024A0001148001D007800F00F00D0B90E48083028
:1024B000007800F0F000302801D1012070470A4870
:1024C0000830007800F0F000402801D10120F5E745
:1024D00005480830007800F0F000502801D10120B4
:1024E000ECE70020EAE70000E00F00F00A4800787F
:1024F00006280ED10848001D007800F00F0040B9F2
:1025000005480830007800F0F000302801D10120A3
:1025100070470020FCE70000E00F00F0134800784F
:10252000062820D11148001D007800F00F00D0B916
:102530000E480830007800F0F000302801D101206A
:1025400070470A480830007800F0F000402801D1B8
:102550000120F5E705480830007800F0F000502829
:1025600001D10120ECE70020EAE70000E00F00F0D5
:102570000A48007806280ED10848001D007800F0AF
:102580000F0040B905480830007800F0F00030280E
:1025900001D1012070470020FCE70000E00F00F0AF
:1025A00013480078062820D11148001D007800F05B
:1025B0000F00D0B90E480830007800F0F000302845
:1025C00001D1012070470A480830007800F0F0007F
:1025D000402801D10120F5E705480830007800F0D7
:1025E000F000502801D10120ECE70020EAE70000CC
:1025F000E00F00F00A48007806280ED10848001DB8
:10260000007800F00F0040B905480830007800F06D
:10261000F000302801D1012070470020FCE70000C5
:10262000E00F00F00A48007806280ED10848001D87
:10263000007800F00F0040B905480830007800F03D
:10264000F000302801D1012070470020FCE7000095
:10265000E00F00F00A48007806280ED10848001D57
:10266000007800F00F0040B905480830007800F00D
:10267000F000502801D1012070470020FCE7000045
:10268000E00F00F00278072A34D2DFE802F03304CA
:1026900007102029300000220A702CE001220A7065
:1026A00003898B818388CB81C2688A6023E0022200
:1026B0000A7003898B818388CB81C2688A60027C1F
:1026C000062A01D1012300E000230B7413E003224A
:1026D0000A70C3888B810389CB81C2688A600AE053
:1026E00004220A70C3888B810023CB8103E005227A
:1026F0000A7000E000BF00BF7047000070B50546DB
:10270000002409E0064850F8240020B1044850F89D
:10271000241028468847641C082CF3D370BD0000A1
:10272000D42C00203EB505460C46DCB1112C19D046
:102730000020009001900290ADF8025001940D2C01
:1027400003D10B208DF8000008E0862C03D10A206D
:102750008DF8000002E009208DF80000684600F0C6
:1027600057F800BF3EBD000070B50546002405E0E7
:10277000044850F8241028468847641C002CF7D0E1
:1027800070BD0000B021002070B50546002405E0B2
:10279000044850F8241028468847641C002CF7D0C1
:1027A00070BD0000BC21002070B50546002405E086
:1027B000044850F8241028468847641C022CF7D39C
:1027C00070BD0000E49D020070B50546002405E0E0
:1027D000054850F8241028468847641C03480078B0
:1027E0008442F5DB70BD0000D02B0020F2210020D8
:1027F00070B50546002405E0044850F8241028462A
:102800008847641C022CF7D370BD0000049E0200B0
:1028100070B50546002405E0044850F82410284609
:102820008847641C002CF7D070BD0000489E020051
:10283000F0B5034600241FE0124E306806689E4241
:1028400003D90668F61A06601AE006689B1B06683C
:102850003444002606600B4E35680A4FC6693E6058
:10286000C66846B10E1926F07F464660C668866087
:102870001668C661156000BF024800680028DBD1F9
:1028800000BFF0BD2C2200201FB50446606808B9C7
:10289000012000E000200390207806287BD2DFE8AA
:1028A00000F0820304304F7B00BFA08900F06DFA76
:1028B00018B9E08904F0CDFF10B3A08900F060FAE8
:1028C000ADF80200E08904F0C1FF8DF80400207823
:1028D000012807D1606808B9002000E003208DF8C6
:1028E000000006E0606808B9012000E004208DF8CF
:1028F000000060680390A0680290684603F02AFD1B
:1029000052E0A08900F041FA18B9E08904F0A1FF73
:10291000A8B1A08900F034FAADF80200E08904F013
:1029200095FF8DF80400606808B9022000E00520DA
:102930008DF80000A0680290684603F00BFD33E0BC
:10294000A08900F022FA28B3E08918BBA08900F022
:1029500017FAADF80200E08904F078FF8DF8040062
:10296000FF208DF80400606838B906208DF800005B
:10297000BDF8020003F004FF02E007208DF800001C
:1029800000200E4908700E49087003F043FE6846A7
:1029900003F0E0FC08E006E008208DF8000068463F
:1029A00003F0D8FC00E000BF00BF0448007820B16D
:1029B00000200249087003F02DFE1FBDCD2100202C
:1029C000CE21002010B588B00446022000F004FAA1
:1029D00010B9022008B010BD4FF6FF70844201D13B
:1029E0000420F7E705208DF8040001208DF8080089
:1029F000ADF80A400022114601A802F0CBFF18B141
:102A000004F08CFD0020E5E70820E3E700B587B07F
:102A1000022000F0E1F910B9022007B000BD062045
:102A20008DF8000000221146684602F0B3FF48B15D
:102A30000548007810B101200349087304F06EFDC9
:102A40000020EAE70820E8E7D42D002010B58CB07C
:102A5000142107A8FCF709FD022000F0BDF928B1F8
:102A600007A8FFF74BFE00200CB010BD012000F0BE
:102A7000B3F908B10020F7E7012000F0B9F900F040
:102A800087FA03F093F804460CB90B20ECE7062C08
:102A90000AD1022000F0ACF9012000F083F907A868
:102AA000FFF72CFE0020DFE701208DF800000C2C42
:102AB0001AD2DFE804F01906190719141915190BB1
:102AC000100C00BF00208DF804000EE000BF0320B2
:102AD0008DF8040009E002208DF8040005E000BF35
:102AE00001208DF8040000E000BF00BF0022114665
:102AF000684602F04FFF04F011FD0020B4E700002B
:102B000038B504460CB9052038BD6946204604F0A6
:102B1000B5FDE0B10F48BDF8001000EB0110808951
:102B2000002812DDA07A80B10A48BDF8001000EB41
:102B300001108089401E0749BDF8002001EB0211F9
:102B400088810020A072002502E0062500E00A2509
:102B50002846D9E7B42D00207FB514461D462B46E4
:102B6000224601A9684604F021FD04B070BD37B5C6
:102B70000C4615462B4622466946002004F016FDF9
:102B80003EBD37B50C4615462B4622460021684609
:102B900004F00CFD3EBD024602B109B905207047A4
:102BA000106808600020FAE738B504460D4604B105
:102BB0000DB9052038BD6946204604F05FFDA8B177
:102BC00061680B48BDF8002000EB02108089401CB2
:102BD000074ABDF8003002EB03129081296060685B
:102BE0000C3068600120A0720020E3E70A20E1E7D2
:102BF000B42D002070B504460D460CB9052070BDFB
:102C0000032300222946204606F092FFF7E770B51D
:102C100004460D46022300222946204606F088FF7E
:102C200070BD70B505460E4614460CB9052070BD42
:102C3000022322463146284606F07AFFF7E70000D5
:102C40000146094A1278082A01D10C200AE0074AF5
:102C5000054B1B7842F82310034A1278521C024B92
:102C60001A7000207047000049220020D42C002058
:102C7000F8B504460D46022000F0AEF808B902206F
:102C8000F8BD0CB90520FBE76946284607F03CF87B
:102C900006461EB9BDF80000208065803046EFE78B
:102CA00070B50446022000F097F808B9022070BD04
:102CB0000CB90520FBE72088022801DD0420F6E797
:102CC00020880A4901EB001671896088C01C081A27
:102CD00008D42188608807F009F8002020806080EF
:102CE000002500E004252846E1E70000B42D00207F
:102CF00070B504460D462A460021204600F00EF825
:102D0000A068401CA06070BD01468A68C868801A2F
:102D1000704701468A68C868801A704710B5836892
:102D20000B44848823400468E35C137010BDC268C0
:102D300083881A4003689954C268521CC260704765
:102D40003EB504460C4B6A460021A01D04F02EFC43
:102D500005465DB9019804F0FFFC054601200649CF
:102D60008988064A02EB0111887303E002480021BA
:102D70000160416028463EBD58220020B42D00204D
:102D80000146A1F5404080B270470146B1F5404F81
:102D900005DB4FF6FE70814201DC01207047002008
:102DA000FCE70000024909788143014A117070472D
:102DB0004822002010B504462078182802D1FEF7DA
:102DC00039FA207010BD10B504462078182802D1B9
:102DD000FEF730FA207010BD014604480078084024
:102DE00008B1012070470020FCE7000048220020C5
:102DF000024909780143014A1170704748220020B6
:102E000030B504461088C01C984201D90C2030BD52
:102E10000220158848551088401C10800120158814
:102E200048551088401C108015884C551088401C4F
:102E300010800020EBE700002DE9F04106460C462B
:102E400015460027B846862C03D0112C01D0002C43
:102E500035D1862C03D14FF00008012709E0112C51
:102E600003D14FF00108002703E014B94FF0000828
:102E70000027C5B13A46134801783046FEF70CFAF0
:102E80004246114801783046FEF706FA00220F4804
:102E900001783046FEF700FA00220D4801783046EE
:102EA000FEF7FAF90BE03A46084801783046FEF79B
:102EB000F3F94246064801783046FEF7EDF9BDE8E1
:102EC000F08100000D2200200C22002009220020A9
:102ED0000822002008B5684600F0BAF8009808B14A
:102EE000012008BD0020FCE7F8B505460C46164653
:102EF0001F461C48007800F0010008B90120F8BD09
:102F00002846FEF7D5FF08B90220F8E70CB90320E0
:102F1000F5E7C4F30B0008B10620F0E72868A042EB
:102F200004D804EB06306968884201D90520E6E739
:102F30000EB90420E3E7684604F034FA08B9072024
:102F4000DDE700984760009805600220009908724C
:102F5000C4F30F30009988810098068204F0EAFAE1
:102F60000020CCE76022002070B505460C462046C4
:102F700004F04CFA70BD4FF010204169481C08B1B4
:102F8000084670474FF0805040690003F9E70000A1
:102F90002DE9F0412B482C49401A04092948401AD0
:102FA0000509FFF7E8FF06462848007800F0010011
:102FB00010B10020BDE8F081002008E0224A02EBB9
:102FC00000110A6812B14A6802B16D1E401CA0428D
:102FD000F4D300202BE01C4901EB00124FF0000C51
:102FE000C7B2002117E0DFF8608008EB0113D3F8C7
:102FF0000080B8F1000F05D0D3F80480B8F1000FBD
:1030000000D007E093F80D80E04502DD93F80DC095
:10301000CFB200BF491CA142E5D30B4901EB071217
:103020005660117BA6EB013111601668401CA84266
:10303000D1D30648007840F0010004490870002010
:10304000B8E70000A022002090220020602200208B
:10305000014609B9032070470248406E086000200D
:10306000F9E70000F02D00202DE9F84305460C4655
:1030700016461F46DDF820801F48007800F001004A
:1030800010B90120BDE8F8832846FEF711FF08B902
:103090000220F7E706B10CB90320F3E706F00300BE
:1030A00010B904F0030008B10620EBE72868A0423D
:1030B00004D804EB87016868884201D20520E1E763
:1030C0000FB90420DEE7684604F06CF908B9072060
:1030D000D8E70098C0F804800098056001200099A6
:1030E00008720098C660009804610098878204F016
:1030F00021FA0020C6E700006022002070B50446D7
:103100001748006E00EB4000154901EBC00515485B
:10311000007800F0020068B1022C02D0032C08D124
:1031200003E0284602F074FB03E0284602F05AFB55
:1031300000BF12E00B48007800F0040068B10948B5
:10314000007820F00400074908700548406E20B15F
:103150000846007840F00200087004F0A9F970BD3C
:10316000F02D0020602200203EB500BF9DF8000039
:1031700020F00F00401C00909DF8000020F0F000AF
:103180001030009000BF0D221AA168467CDF044673
:1031900000BF254625B100BF2846FDF79FF800BFB8
:1031A00000BF642078DF044600BF254625B100BF7C
:1031B0002846FDF793F800BF00BF00200190029061
:1031C0000820ADF80400A020ADF806000020ADF8FE
:1031D00008004FF4C870ADF80A0001A87ADF044671
:1031E00000BF254625B100BF2846FDF777F800BF90
:1031F00000BF3EBD4545475F444554454354494F94
:103200004E00000070B505460DB1012070BD184894
:10321000007B18B100201649087301E000F0D4F8D3
:103220001348007808281DD2DFE800F01C04080CC1
:10323000101C141800F03CF8044615E000F0B2F839
:10324000044611E000F08EF804460DE000F044F86A
:10325000044609E000F01CF9044605E000F028F9F6
:10326000044601E00F2400BF00BF2046CEE7000067
:10327000D42D00200C480089401C0B4908810020F7
:103280004880087300BF0CE0084901EB0011097881
:1032900009B9012200E0002203490A310A54411C05
:1032A00088B20228F0DB7047D42D0020B42D002016
:1032B00010B5084800F032F840B900200549891ED1
:1032C00008704880486041F61D5010BD00F06AF853
:1032D000FBE70000D62D002070B50D4845880D484D
:1032E00000EB0510808968B90A4800EB051000233F
:1032F000012241680848FFF7F7FD0446042004490D
:10330000087002E000F08CF80446204670BD000012
:10331000D42D0020B42D00209022002010B50146AD
:103320000022002015E00D4B1B5C83B100240B4BE9
:103330001C540B4B03EB00139B8943B9084B03EB65
:1033400000139B7B012B02D10880012203E0431C68
:1033500098B20228E7DB00BF104610BDDE2D00202A
:10336000B42D0020F8B50C4844680C4800680B499F
:10337000898800EB81056088C01C86B2032006495D
:1033800008700020009008463346294642680448E9
:10339000FFF76AFEF8BD0000D42D00205022002067
:1033A0009022002010B507494888091D04F0A4F9AF
:1033B00018B1FFF7D7FF044602E0FFF78DFF044680
:1033C000204610BDD42D002010B5144800780828E0
:1033D00020D2DFE800F0041F1F0A1016171BFFF7AA
:1033E00049FF01200D49087015E000F06DF802203A
:1033F0000A4908700FE000F029F806200749087014
:1034000009E000BF07200549087004E001200349D6
:10341000087000E000BF00BF10BD0000D42D0020E8
:1034200010B5052006490870022006498880084624
:103430000023012201680448FFF756FD10BD00007B
:10344000D42D002050220020902200200D49086831
:103450000D4949880D4A02EB01114968094A11607A
:1034600009494988094A02EB0111486005498988E0
:10347000054A5288054B03EB021211810221014AD1
:103480009180704750220020D42D0020B42D0020C0
:1034900010B50620044908704988044A02EB01115E
:1034A000486802F061FB10BDD42D0020B42D00202F
:1034B00010B50720034908700020486002F064FB43
:1034C00010BD0000D42D0020054A50684288D21C4F
:1034D00091B2044A92880A44024B9A8070470000D5
:1034E000D42D0020502200203EB5044620885028CC
:1034F00021D0522802D0542825D103E0A08801F021
:103500007DF820E006208DF80000A08800F0F6FB92
:10351000ADF80200A088ADF80400BDF8020000F08C
:103520004FF9A08800220C490978FDF7B5FE6846DE
:10353000FFF71AF907E0A01DFEF74CFC10B1A088B8
:1035400001F0ACF800BF00BFFDF728F906F012F952
:1035500004F0CEFD3EBD0000B72100203EB504467C
:103560006088ADF80200207820B101280FD0022831
:103570002BD116E000208DF800006846FFF7F4F824
:10358000608800F0E5FA054601F038F81DE00120FA
:103590008DF80000A088ADF804006846FFF7E4F855
:1035A00013E0207980B1608800F0D2FA05464FF62A
:1035B000FF70854207D00122054801782846FDF7B3
:1035C0006BFE04F095FD00BF00BF00BF3EBD0000D4
:1035D000B721002010B50446207801280DD160885D
:1035E00001F00CF8608800F0CFF928B16088012262
:1035F00003490978FDF750FE00E000BF00BF10BD91
:10360000B721002010B500F095FCFDF713FE12491C
:103610000870FDF70FFE11490870FDF70BFE104909
:103620000870FDF707FE0F4908700B48007818284E
:103630000BD00A480078182807D0094800781828C5
:1036400003D008460078182801D1032010BD0120BE
:10365000054908700020F9E7B5210020B6210020B7
:10366000B7210020B8210020B421002010B586B079
:1036700000F0BEF801A8FDF74FFD002412E002A9FA
:1036800031F8140000F03AFB4FF6FF71884207D181
:1036900002A931F81400012206490978FDF7FCFD62
:1036A000601C84B20198A042E9D804F021FD06B064
:1036B00010BD0000B721002010B50446207807286F
:1036C00003D1608800F0EAFF00E000BF00BF10BD3A
:1036D00010B504460B4801782046FDF7CBFD70B1CC
:1036E00000210AE001EB4100074A02EB800040881C
:1036F000A04201D1C8B210BD491C0829F2D3FF2055
:10370000F9E70000C7210020F027002010B50024B1
:103710000DE004EB4401084A02EB810148880749A7
:103720000978FDF7A7FD08B9E0B210BD641C082CAC
:10373000EFD3FF20F9E70000F0270020C721002089
:103740002DE9F04105460F46012000FA05F418481E
:103750000068FCF791FE06460EB1BDE8F081154801
:1037600000682040E0B9284601F0F0FA28B112487C
:10377000006820431049086004E00F480068A04337
:103780000D4908600B48006820430A490860002280
:103790000A48016806480068FCF744FE064604E053
:1037A00004480068A0430349086000BFD5E7000053
:1037B000A49E0200202200201C22002018220020AB
:1037C0001CB50446044903C9CDE90001002269463D
:1037D000204602F040FC1CBDDC9D020010B500F04C
:1037E000AFFB012001490870002010BDC02100205E
:1037F00010B54FF6FF7002F00FFB0249088004F08D
:10380000ADFC10BDC22100202DE9FC478146484691
:1038100000F074FA0546002600274FF003084FF029
:10382000010A4FF6FF7085420CD06A4608212846EF
:1038300002F0DAFB04462CB90198861D8788D0F87F
:10384000008000BF00BF43463A4631464846A9DFE4
:103850000446042C01D1112415E0082C01D10024C8
:1038600011E00B2C0FD14FF0000A08F0020010B14C
:103870004FF0010807E006B927B1002600274FF0F6
:10388000030800E003240B2CDDD0BAF1000F00D1B7
:103890000B242046BDE8FC872DE9FC4780464046C6
:1038A00000F02CFA07464FF6FF70874203D143F22F
:1038B0000200BDE8FC874FF001094FF0000A00BF8D
:1038C0004FF0000A4A46511C1FFA81F96B46082145
:1038D000384602F0CBFB044604BB019D0320286060
:1038E0002A1DA91D40462B68AADF04462CB90821D1
:1038F000384602F071FC04460FE00C2C02D14FF068
:10390000010A02E0052C00D100240821384602F00B
:1039100047FC064606B1032400BF02E0072C00D195
:103920000C24BAF1000FCBD100BF2046C1E7000044
:103930007FB50446207801281BD12079012818D1B1
:10394000608802AA012102F04FFB054685B90220DA
:103950008DF800006088ADF8020003A808B10120CE
:1039600000E000208DF804006846FEF70DFF00BF60
:1039700000BF044800884FF6FF71884201D004F070
:10398000EDFB7FBDC22100207CB50446204600F03F
:10399000B5F906466A460121304602F025FB054688
:1039A0000DB100207CBD01980078FBE770B505469D
:1039B0004FF6FF7600BF4FF6FF720A48018828468F
:1039C000A7DF044643F20300844204D1054800887F
:1039D000401C0449088043F203008442EBD0204697
:1039E00070BD0000C4210020014688884FF6FF7298
:1039F000904203D0088808B1012070470020FCE7FE
:103A00003EB504460D4620780221B1EB500F01D09F
:103A100000203EBDB4F80100ADF80800E0788DF854
:103A20000A00A188ADF80010A0798DF8020001AA63
:103A300069462846FCF795FB032201A902A8FBF77B
:103A400026FD08B90120E4E70020E2E770B506464C
:103A50000C463046FFF73CFE0546FF2D0CD005EB2B
:103A60004500064901EB8000416821600189A18081
:103A7000807AA071002070BD0520FCE7F0270020AF
:103A800070B590B004462088102801D010B070BDE9
:103A90003422211D03A8FBF7CFFC4FF6FF759DF8DC
:103AA00010000321B1EB500F35D002F0B9FC9DF8A6
:103AB0001000400820B1012803D0022828D114E0CA
:103AC00000BF09E0019800F1110104A8FCF782F998
:103AD00010B1BDF8085006E06A4602A9072002F0BE
:103AE00071FC0028EED100BF13E008E00198411CF2
:103AF00004A8FFF785FF10B1BDF8085006E06A463C
:103B000002A9072002F05EFC0028EFD100BF00E010
:103B100000BF00BF00BFBDF80C0004A900F004FF07
:103B200006464FF6FF7085420FD0BDF80C002946BF
:103B300000F088F8BDF80C00ADF8060001208DF803
:103B4000040001A8FEF730FE00BF00BF9EE70000A2
:103B5000024600210DE001EB4100084B33F8200044
:103B6000904205D101EB410003EB80004088704793
:103B7000491C0829EFD34FF6FF70F8E7F027002023
:103B800010B500F0E9F9FDF755FB06490870084645
:103B90000078182801D1032010BD012002490870C7
:103BA0000020F9E7C7210020C62100202DE9F041BF
:103BB00004460D46601C00F06BFA10B90020BDE809
:103BC000F0811022691C601CFBF761FC08B9012020
:103BD00000E00020074605F1110104F11100FCF797
:103BE000F9F8064607B90EB10120E8E70020E6E73C
:103BF0000246108808B101207047002105E0901CA2
:103C0000405C08B10120F7E7491C0829F7D30020E0
:103C1000F2E770B505460C462846FFF7E9FF08B9FC
:103C2000002070BD28882188884201D00020F8E754
:103C30000822A11CA81CFBF72AFC08B90120F0E708
:103C40000020EEE770B504460D462946204602F0F6
:103C5000F9FD70BD30B587B00446207810B92079E1
:103C6000072801D007B030BD608804AA072102F000
:103C7000BBF9054605B1F5E702F0D2FB1EE060880E
:103C8000BDF81810884200D118E003990598FFF795
:103C90008DFF90B16088FFF75BFFADF80200002058
:103CA0008DF800006088ADF80400BDF81810ADF87C
:103CB00006106846FEF778FD07E000BF02AA06A9D5
:103CC000072002F07FFB0028D9D100BF00BFC9E761
:103CD00070B506463046FFF73BFF0446304602F01B
:103CE0008EF905464FF6FF70844204D01DB9014697
:103CF000204602F0A7FD284670BD000070B50546BD
:103D00002846FFF7E5FC0446FF2C05D004EB4400F1
:103D1000034931F8200070BD4FF6FF70FBE700004B
:103D2000F02700203EB5044602F07AFB10E001982F
:103D300000F146012046FFF76CFF30B9019800F111
:103D40002A012046FFF765FF10B1BDF808003EBD0F
:103D50006A4602A9072002F035FB0028E7D14FF69A
:103D6000FF70F4E72DE9F04106460C460F272EB10F
:103D70000120FFF717F80120BDE8F081207930B16C
:103D800001280AD0022833D0032864D13EE001F094
:103D9000FBFE0746012020715EE04FF00008002581
:103DA00016E0324800EB0510007802280ED12F49AA
:103DB00001EB0511486801F0D7FE074600202B49AA
:103DC00001EB051108704FF0010803E0681C85B293
:103DD000022DE6DB00BFB8F1000F08D10220FFF78B
:103DE00007F80120FEF7DEFF41F61D50C4E733E07F
:103DF0001F480023012201681E48FFF775F8074697
:103E000002201B4988800020207125E0184908689D
:103E100001F0AAFE0746184845881548D0F80080EA
:103E2000124800EB05104068114908600F4800EB8C
:103E30000510C0F80480084680880C4901EB051184
:103E4000088102200A4988800020084901EB0511F9
:103E50000870207100E000BF00BF27B10120FEF70D
:103E6000A1FF0E2088E7002086E70000B42D002087
:103E70005022002090220020D42D0020F8B52748A1
:103E8000007800B9F8BD00252548006808B9012070
:103E900000E00020064600BFDDB92248007800B1EE
:103EA000F0E7684648DF0446052C01D101250FE004
:103EB00024B100BF2046FCF711FA09E0009800F099
:103EC00043FE1948006818B11749009809688847E7
:103ED00000BFDEB91348007800B1D3E7134800886B
:103EE000009069461248006861DF0446052C01D144
:103EF00001260AE024B100BF2046FCF7EFF904E0F8
:103F00000B48006806490968884700BF0DB106B133
:103F100000E0C1E700BF00BFB4E700007822002046
:103F20008422002079220020882200208022002084
:103F30007C2200200020014908707047B421002035
:103F40000020034908704FF6FF700249088070474F
:103F5000C0210020C221002018200849087000203C
:103F600008E04FF6FF7100EB4002054B03EB8202C5
:103F70005180401C0828F4D370470000C72100205E
:103F8000F027002010B5002407E004EB8401044A68
:103F900002EB810005F0A1FD641C082CF5D310BDD7
:103FA0007028002010B5044640212046FBF75DFA3A
:103FB00010BD00004FF6FF7005490880002005493C
:103FC0000860182004490870044908707047000010
:103FD000F0210020E8210020F3210020F42100201E
:103FE00070B504460D4620791D4901EB4010007F55
:103FF000F8B14FF48871206801F07DFA4FF49071A8
:10400000206801F078FA4FF49271206801F073FA99
:104010004FF4A271206801F06EFA1249206801F095
:104020007AFA206800F0C8FD0646294600F094FDA3
:1040300014E04FF48E71206801F02DFA4FF4A27154
:10404000206801F028FA0849206801F033FA206856
:1040500000F0B2FD0646294600F07EFD70BD00006E
:10406000882C0020100302008000020001464888CE
:10407000064A1288904206DB4888044A52889042D9
:1040800001DC012070470020FCE70000982100209F
:104090000246002104E0505C08B101207047491C31
:1040A0001029F8D30020F9E7014601F0030008B910
:1040B000012070470020FCE70146086808B102684B
:1040C0000A60704710B504460448007800F001000B
:1040D00018B103480078FDF7AFFC10BD6021002047
:1040E000582100202DE9F04107460D4690461E4616
:1040F0002DB92948007810B90520BDE8F08135B107
:1041000042460021384604F059FB044605E0424689
:104110002249384604F052FB044600222146384624
:10412000FEF78AFE1EB121463846FEF7FBFA112C37
:104130000DD005DC34B3082C27D00D2C26D122E07D
:10414000862C12D0A4F540500238F8B91CE02A465B
:10415000134801783846FDF79FF842461148017828
:104160003846FDF799F8002412E02A460C480178F9
:104170003846FDF791F842460A4801783846FDF77F
:104180008BF805E000BF00BF00BF01E0032400BFC3
:1041900000BF2046B1E7000002220020FD210020E0
:1041A0000B2200200A2200202DE9FC4107460E4682
:1041B000904626B9002138467EDFBDE8FC81307884
:1041C00000F0010008B1012000E002200190384613
:1041D000FFF794FD05464FF6FF70854209D001A810
:1041E0002B46424631460090384600F024F80446FB
:1041F00019E0307800F0010028B13146384600F06F
:104200008EF804460FE0314638467EDF0446002033
:1042100000900CB9012000E000200246012329464D
:10422000384603F0CDFE24B99DF80410384603F05B
:104230000FFF2046C1E72DE9FF4F85B00F4690469E
:104240001E46DDF848900025AA4603AA07213046FD
:1042500001F0CAFE04466CB9049800F118050498F0
:1042600090F8440000F0010ABAF1000F02D004985F
:1042700000F13405B8F1000F13D194B98DB1BAF142
:10428000000F04D105F11200FFF7B2FC48B12A4635
:1042900005F11201059885DF0446002089F8000029
:1042A00027E00CB1052C24D10024387800F001005F
:1042B00060B101AB01220721304601F0D7FE044670
:1042C00024B90721304602F009F804461CB93946E2
:1042D00005987EDF044664B10721304601F060FF97
:1042E0008346BBF1000F03D0BBF1050F00D00324C0
:1042F00000BF0020009099F8000008B1012000E004
:10430000002003460CB9012000E00020024631469F
:10431000059803F055FE204609B0BDE8F08F2DE961
:10432000FE430746884601F05BFE05464FF6FF70E8
:1043300085421CD001AB01220721284601F096FEE0
:10434000044624B90721284601F0C8FF04461CB9D9
:10435000414638467EDF044654B10721284601F025
:104360001FFF064616B1052E00D0032400E00324EB
:104370004FF6FF70854201D0012000E00020009040
:104380000CB9012000E000200246012329463846EE
:1043900003F016FE2046BDE8FE8300002DE9F04143
:1043A00007460C461546114801783846FCF762FF6F
:1043B000D0B13846FFF7A2FC06464FF6FF708642A2
:1043C00011D00B4801783846FCF754FF30B12B462A
:1043D00022463146384601F081FC04E02A46214657
:1043E0003846FEF737F800BFBDE8F081F62100201F
:1043F000F72100202DE9F04786B005462846FCF756
:104400002BFF8046404603F04DFC58B301A8FCF753
:1044100083FE002422E002A931F814002946FCF7AB
:1044200029FF0646CEB102A931F814000F490978D8
:10443000FCF720FF814602A931F814000C490978E5
:10444000FCF718FF824602A931F8140001234A46FE
:104450005146FFF747FE074600BF641C0198A04283
:10446000D9D800BF06B0BDE8F08700000A220020BE
:104470000B22002070B504460D46294620467EDFFB
:104480000646304670BD000070B51C4804781C48D4
:10449000066827E01948406804EB440100EBC105B9
:1044A000601CC4B215488078A04200D1002428784E
:1044B000022802D0032812D103E0686804F0EEFB62
:1044C0000EE007E00E490868002101740C4AC1693A
:1044D000116000BF0A4800680028F3D100E000BF67
:1044E00000BF00BF05484078A042D3D1044800680F
:1044F000B04201D0012070BD0020FCE72422002042
:104500002C2200202DE9F0410546374807685AE083
:1045100015B12C46E56929E034494968334A1278D7
:1045200002EB420201EBC20030490978491C2F4AD4
:104530001170114609789278914202D100212B4ADC
:10454000117044680178012901D1217C01B13AE060
:1045500081686160C168A1600169E1604169A16130
:104560002349097809B10021616000BF21496068D1
:104570000968401A20F07F401F49884208D21D492F
:104580006068096804F004FBA168084420600FE03B
:1045900018486168006804F0FBFA0646A068B0425B
:1045A00003D9A068801B206001E00020206000BFCC
:1045B00000206060A060012020740020E06120469F
:1045C00004F038FB00BF002DA2D10848007807494D
:1045D000497888429CD104480068B84202D0012042
:1045E000BDE8F0810020FBE72C22002024220020DF
:1045F0004522002030220020FFFF7F00FEB5044648
:1046000000264FF6FF70844200D1FEBD2046FFF722
:10461000FBF8054645B10B2D16D0112D12D0A5F58E
:1046200040500238F8B91DE002208DF80000204605
:10463000FFF764FBADF80200ADF804406846FEF7F2
:1046400093F81FE001261DE003208DF800002046AE
:10465000FFF754FBADF80200ADF804406846FEF7E2
:1046600083F80FE00EE009208DF800002046FFF7E8
:1046700045FBADF80200ADF8044002956846FEF730
:1046800073F800BF00BF3246034801782046FCF7AC
:1046900003FE00BFB9E70000B6210020FEB50446C6
:1046A00000262046FFF7F8F80546112D1AD003DC46
:1046B0004DB10C2D34D117E0862D23D0A5F54050F7
:1046C000023868BB0DE001208DF80000ADF8044011
:1046D0002046FFF713FBADF802006846FEF744F8EA
:1046E0002DE02CE001262AE007208DF80000ADF82F
:1046F00004402046FFF702FBADF802006846FEF7D3
:1047000033F81CE008208DF80000ADF80440204686
:10471000FFF7F4FAADF802006846FEF725F80EE060
:1047200009208DF800002046FFF7E8FAADF80200F6
:10473000ADF8044002956846FEF716F800BF00BFCA
:104740003246034801782046FCF7A6FDFEBD000076
:10475000B5210020F8B504460D46002620782840F3
:1047600080B9002000906846FBF73CFF2078284085
:1047700018B920782843207001269DF80000FBF727
:1047800037FF00BF3046F8BD08B5002400BF2546FE
:1047900025B100BF2846FBF7A1FD00BF00BF04F014
:1047A00055FB6846FDF7EAFAFCF7A4FE9DF8000009
:1047B00002F082F8FEF7D8FCFBF76AFC03F09EFDDE
:1047C000FDF7C6FC04F074FEFBF760FF0320FCF766
:1047D00009FB044600BF254625B100BF2846FBF76C
:1047E0007DFD00BF00BF00BF02F090FDFCE72DE99A
:1047F000F04105460E4614469846A888871C208836
:10480000801C3844404502D90C20BDE8F081FE2FC1
:1048100001D90C20F9E7781C218870542088401CAD
:104820002080FF20218870542088401C208022880E
:104830009119288804F097FF218808442080A888CF
:1048400000280DDDA86808B90720DEE7AA882388BC
:104850009819A968FAF7F0FD2088A98808442080F3
:104860000020D2E72DE9F84F05460F46144698463A
:104870002878012804D1687810B90720BDE8F88F9E
:104880002088801C404508D82878012807D1208836
:10489000801C69780844404501D90C20EEE7208847
:1048A000A8EB0000801E86B200962188891CC819DA
:1048B00069467DDF814600BFB9F1000F01D048464F
:1048C000DCE700BF2878022806D1BDF80000B0421E
:1048D00002DC4FF0090A0BE04FF0080A28780128A3
:1048E00005D16878B04202DC6878009000E000965C
:1048F000BDF80000FE2801D90C20BFE7BDF800007C
:10490000401C218878542088401C2080208807F88B
:1049100000A02088401C20802088BDF8001008449A
:1049200020800020AAE7000070B505460E46FF244F
:1049300066B34FF6FF70854228D0012214480178F3
:104940002846FCF7A9FC2846FEF7C2FE0446FF2CC9
:1049500002D1FEF7DBFE0446FF2C17D004EB440027
:104960000C4901EB800045804FF6FF7004EB4401D9
:10497000084A22F8210004EB4400114601EB8000B4
:1049800031684160B1880181B1798172204670BD82
:10499000C7210020F027002070B505460E464FF6CF
:1049A000FF70854201D1002000E0681C84B208E05D
:1049B0002146304602F040FA08B1204670BD601C26
:1049C00084B2FF2CF4DD4FF6FF70F7E730B50246F6
:1049D0000B46D40802F00702012090401D5D2840DC
:1049E00030BD01464FF08040405808B1012070476B
:1049F0000020FCE708B500224FF080410A5009581A
:104A0000009100BF08BD0000014908607047000028
:104A10000803004000B9704700BF00BF00BF00BFDF
:104A200000BF00BF00BF00BF00BF1E4909681E4A8B
:104A3000914200D130E000BF00BF00BF00BF00BF07
:104A400000BF00BF00BF00BF00BF00BF00BF00BF6E
:104A500000BF00BF00BF00BF00BF00BF00BF00BF5E
:104A600000BF00BF00BF00BF00BF00BF00BF00BF4E
:104A700000BF00BF00BF00BF00BF00BF00BF00BF3E
:104A800000BF00BF00BF00BF00BF00BF00BF00BF2E
:104A900000BF00BF00BF00BF401E00D0BDE700BF89
:104AA000B9E700008C2200200024F40010B5002497
:104AB0001648007808B1852425E000201349886055
:104AC00048600861C86000BF00BF4109890001F16A
:104AD000E021D1F8001101228240114009B10121E9
:104AE00000E0002119B90721002000F035F800BFCF
:104AF00004F000F820B901200549086000BF00BF9C
:104B0000012002490870204610BD00001C2C002026
:104B10001805004008B5002000906846FBF762FDCC
:104B20000848007808B9FFF7C1FF0648C068401C74
:104B30000449C860012088709DF80000FBF758FD0B
:104B400008BD00001C2C002010B5044614B900203C
:104B5000FDF734FA10BD000070B50B4601461A4649
:104B6000002907DA5407260E104C01F00F052D1FFF
:104B7000665503E05407250E0D4C655400BF00BF79
:104B800000F01F02012191400A4A440942F8241012
:104B900000BF00BF00F01F020121914042099200B6
:104BA00002F1E022C2F8001100BF70BD18ED00E074
:104BB00000E400E080E200E00146C1F3073250B2B9
:104BC000704700002DE9F04706460D46304601F0DB
:104BD00005FFE0B13046FDF765F9083822490F5C62
:104BE000BC11032C08D1304600F0D9FB08B10320DA
:104BF00000E00220804605E0012C01D1022000E007
:104C0000032080464146304600F0B0FB2AE03046A3
:104C100001F0F0FE30B33046FDF744F90446A00041
:104C200000F5807087B22046104951F8201041F0FD
:104C300001020E4941F8202000BF384600F0FEFB7B
:104C40007DB13046FDF72EF98146FDF7E3F8804649
:104C5000B8F1000F04D0012101FA04F000F008FCC3
:104C600000BF00BFBDE8F087802C00201065004029
:104C70002DE9FC4704460E4617464FF00008204633
:104C800001F09EFE10B14FF0080855E0F278394669
:104C90002046FDF7C7F80546681C002849D0B078C3
:104CA00080B100BF00BF4FF0A042104600F5E062A7
:104CB00052F8242022F0020100F5E06242F82410AC
:104CC00000BF0CE096F80190002000904B46024691
:104CD00001460190204600F0EFFA00BF00BFF078D7
:104CE000D0B13078164951F82510164A1140144AAF
:104CF00042F82510114651F825104FF4F85202EAF7
:104D000004224FF4403303EA00431A4311430C4A90
:104D100042F8251000BF0EE0A5F108000A49085C22
:104D2000317840EA811042B2A5F1080006490A54E0
:104D300001E04FF0040800BF4046BDE8FC870000DA
:104D400010650040FFE0FCFF802C002010B50446F9
:104D5000204600F024FB08B1012010BD0020FCE734
:104D600070B5164890F8540010B10825284670BD5B
:104D7000002404E0204601F04DFE601CC4B2202C4B
:104D8000F8DB002404E02046FDF734F8601CC4B2D0
:104D90000C2CF8DB07210620FFF7DEFE4FF4BE7077
:104DA00000F04CFB4FF0004000F062FB0120034993
