:020000040001F9
:10F00000B84F002015F401001DF401001FF40100A9
:10F0100021F4010023F4010025F4010000000000A8
:10F0200000000000000000000000000027F40100C4
:10F0300029F40100000000002BF401002DF4010070
:10F0400029F801002FF4010025FC01002FF4010034
:10F050002FF401002FF4010055F501002FF40100F9
:10F060002FF401002FF401002FF401002FF4010010
:10F070002FF401002FF401002FF401002FF4010000
:10F080002FF4010079F801002FF401002FF40100A2
:10F090008FF901002FF4010099F901002FF401000C
:10F0A0002FF401002FF401002FF401002FF40100D0
:10F0B0002FF401002FF40100000000000000000008
:10F0C0002FF401002FF401002FF401002FF40100B0
:10F0D0002FF401002FF401002FF4010000000000C4
:10F0E0000000000000000000000000000000000020
:10F0F0000000000000000000000000000000000010
:10F1000000000000000000000000000000000000FF
:10F1100000000000000000000000000000000000EF
:10F40000DFF80CD000F068F800480047D14B02004C
:10F41000B84F00200648804706480047FEE7FEE751
:10F42000FEE7FEE7FEE7FEE7FEE7FEE7FEE7FEE7B4
:10F43000D9F9010001F4010010B5431A934209D231
:10F440008318881803E010F8011D03F8011D521EEF
:10F45000F9D210BD40EA01039B0703D009E008C9B7
:10F46000121F08C0042AFAD203E011F8013B00F889
:10F47000013B521EF9D210BDD2B201E000F8012BBF
:10F48000491EFBD270470022F6E710B513460A4624
:10F4900004461946FFF7F0FF204610BD421C10F845
:10F4A000011B0029FBD1801A704730B504460020AB
:10F4B000034600E05B1C934203D2E05CCD5C401B42
:10F4C000F8D030BD034611F8012B00F8012B002ABB
:10F4D000F9D1184670470000064C074D06E0E06879
:10F4E00040F0010394E8070098471034AC42F6D38B
:10F4F000FFF78AFFC4A40200E4A4020070B58C18D0
:10F5000010F8015B15F0070301D110F8013B2A1137
:10F5100006D110F8012B03E010F8016B01F8016B24
:10F520005B1EF9D12B0705D40023521E0DD401F820
:10F53000013BFAE710F8013BCB1A921C03E013F8E9
:10F54000015B01F8015B521EF9D5A142D8D300201E
:10F5500070BD00002DE9F04F89B04FF00008002089
:10F5600008904FF4807007900126002413E007985C
:10F5700006F096F948B100BF81480068304020B1DC
:10F58000079806F07FF948EA060876000798001DFC
:10F5900080B20790641C082CE9D34FF4BE7006F0CB
:10F5A0007FF950B14FF4BE7006F06CF948F0004896
:10F5B00008AA0121002006F04BF908F0FF0000B373
:10F5C000012600241BE006EA0800B0B100BF6D4828
:10F5D00050F82400C0F30420074600BF694850F8E3
:10F5E0002400C0F301408146204602F037FD054665
:10F5F00015B149463846A84700BF7600641C082C60
:10F60000E1D308F0004000287ED00020069005904D
:10F61000002505E04FF0FF3004A941F825006D1CDE
:10F62000002DF7D000BF0020069000246FE0564860
:10F63000005D0390039820F0C00753480057401C1A
:10F64000002863D004A9384605F0E4FB00285DD00B
:10F6500003984FEA901A384602F048FD814602F0BE
:10F66000FDFC0290029810B9BAF1030F4BD1BAF128
:10F67000030F11D1394605A80246CB0801F0070156
:10F6800012F803C04FF0010E0EFA01FE4CEA0E0C08
:10F6900002F803C000BF00BF00BF00BF4FF0A04191
:10F6A000084600F5E06151F82710C1F3014900BF99
:10F6B00008A9384605F0AEFB8346BBF1000F02D027
:10F6C000B9F1020F05D0BBF1000F1BD1B9F1030F47
:10F6D00018D1BAF1030F0FD1B9F1020F01D10320F4
:10F6E00000E0022001903846019906F063F8069880
:10F6F000401CC0B2069000BF029818B1514638466F
:10F70000029A904700BF00E036E000BF641C042C62
:10F710008DD3069858B3012703AA0121002006F0D3
:10F7200097F800250AE003A850F8250008A951F829
:10F730002510884201D0002702E06D1C002DF2D078
:10F7400000BF17B10020069010E000250CE003A8D0
:10F7500050F8250008A941F8250005A850F8250013
:10F7600004A941F825006D1C002DF0D000BF0698BB
:10F7700000287FF458AF00BF09B0BDE8F08F00004B
:10F780000463004010650040F82C002000F01F02C8
:10F7900001219140024A430942F8231070470000BA
:10F7A00080E200E000F01F0201219140024A43097B
:10F7B00042F823107047000080E100E000F01F02D3
:10F7C000012191404209920002F1E022C2F80011A9
:10F7D000704700F01F02012191404209920002F19E
:10F7E000E022C2F80011704700F01F020121914091
:10F7F000024A430942F823107047000000E200E08B
:10F8000010B5002807DA4A07140E054A00F00F0366
:10F810001B1FD45403E04A07130E024A135410BDB1
:10F8200018ED00E000E400E010B54FF4807005F042
:10F83000FCFA60B14FF4807005F000FB012005F088
:10F8400007FB01200B494870002002F0DBFC4FF45D
:10F85000827005F0EAFA58B14FF4827005F0EEFAC2
:10F86000022005F0F5FA01200249887002F0CAFC76
:10F8700010BD0000942C002010B50020094908603C
:10F8800000210948C0F84411C0F84811C0F84C11D3
:10F8900000200549C1F8000102493C39086009F01F
:10F8A0005BFD10BD40110140001001402DE9FC41FD
:10F8B00004460D46164600BF0C48007808B900F013
:10F8C000C3F900BF002001900090684600F09AFE46
:10F8D00032462946204600F00BF8074600BF9DF847
:10F8E000000000F095FE3846BDE8FC81402F002066
:10F8F0002DE9F047074688461646C24607EB470102
:10F900001B4800EBC109D9F8140020B1012811D01F
:10F91000022826D11EE0484600F0CCF90546B54243
:10F9200001D2002405E0344632465146484600F0F4
:10F9300008FA18E0484600F0BDF90546B54201D284
:10F94000284600E03046044622465146484600F02C
:10F95000F8F908E032465146484600F0B9F9044645
:10F9600001E0002400BF00BF2046BDE8F087000092
:10F97000582F002070B505460C462046FFF78EFD37
:10F980000646324621462846FFF790FF70BD10B567
:10F9900009F0F8FB10BD000070B50A48006868B1B6
:10F9A000084800688047044600BF254625B100BFCF
:10F9B000284600F0A3FC00BF00BF01E004F082FC79
:10F9C00070BD00007C220020014802490860704799
:10F9D0000090D0039422002010B502F0ABFE10B1CD
:10F9E00082488349486702F0BDFE28B1814800681B
:10F9F000C0F342308049086002F0DEFE28B17F4843
:10FA0000006820F080707D49086002F0EDFE48B18A
:10FA100000207B4908604FF08041C1F81001764911
:10FA2000091F086002F00AFF18B10320724964310F
:10FA3000086002F01BFF68B10520724908600120D0
:10FA400070497831086000206E49083108603F2015
:10FA5000091F086002F022FF002855D06A4800689C
:10FA60006A4908606848001D0068091D086066480A
:10FA700008300068091D086063480C300068091DE3
:10FA80000860614810300068091D08605E48143045
:10FA90000068091D08605C48183000685B49203127
:10FAA000086059481C300068091D0860564820301D
:10FAB0000068091D0860544824300068091D08606A
:10FAC000514828300068091D08604F482C300068F4
:10FAD000091D08604C48303000684C4940310860CE
:10FAE000494834300068091D0860474838300068CC
:10FAF000091D086044483C300068091D0860424800
:10FB000040300068091D086002F0EAFD30B1394854
:10FB10001430006800F04F003D49086037487438E1
:10FB2000006840F4700035497439086000BF00BFB8
:10FB300000BFBFF34F8F00BF00BF00BF00BF00BFBB
:10FB400000BFBFF36F8F00BF00BF00BF3148006828
:10FB500000F0004030B92F48001D006800F0004060
:10FB6000002840D001202C49086000BF2B480068C5
:10FB70000028FBD015202749086000BF27480068EF
:10FB80000028FBD015212348001D016000BF234839
:10FB900000680028FBD000201F49086000BF1F48F4
:10FBA00000680028FBD000BF00BF00BF00BF00BF3F
:10FBB000BFF34F8F00BF00BF00BF1048F038006890
:10FBC00000F4E06016490843001D0C49F039086054
:10FBD00000BF00BF00BFBFF34F8F00BF00BF00BF1B
:10FBE00000BF00BFFDE7FFF7EFFE10BD0DF0ADBA9F
:10FBF00000C00740440200103C050040FCED00E05E
:10FC00000C010040105600400404001020C50040C4
:10FC1000E40E00400012001004E5014000E4014041
:10FC20000000FA0510B50648007F20B104490548D8
:10FC300009F0F7FF03E00249024809F051FF10BD47
:10FC4000002D00200020004010B5114C0220206142
:10FC5000606110A0A0611249E16140212162002190
:10FC6000A1626162E1620BA0A0640E49E16410210F
:10FC700021650021A1656165E1650BA1E01DFFF72C
:10FC800021FC0AA12046FFF71DFC2020A07110BD19
:10FC9000402F00205465726D696E616C0000000099
:10FCA000F02E0020302F0020525454005345474777
:10FCB0004552000010B501460A69CB689A4204D843
:10FCC0008C68641EE41AA01801E0D41A601E10BDEE
:10FCD0002DE9F0470446894617464FF0000AE568CB
:10FCE00000BFD4F81080A84503D9A8EB0500461E34
:10FCF00004E0A5EB0800401CA1680E1AA068401B98
:10FD0000B04201D9304601E0A068401B0646BE4221
:10FD100001D2304600E0384606466168481932464E
:10FD20004946FFF789FBB244B144BF1B3544A06884
:10FD3000A84200D10025E560002FD2D15046BDE891
:10FD4000F0872DE9F047044689461546E668A06825
:10FD5000871BAF4208D9616888192A464946FFF7D0
:10FD60006BFB7019E06010E0B84661688819424684
:10FD70004946FFF761FBA5EB070809EB070142467F
:10FD80006068FFF759FBC4F80C80BDE8F08702E01B
:10FD900008C8121F08C1002AFAD170477047002016
:10FDA00001E001C1121F002AFBD170470146202942
:10FDB00008DA012088400A4A104008B10120704743
:10FDC0000020FCE7402909DAA1F12000012202FA13
:10FDD00000F008B10120F2E70020F0E70120EEE793
:10FDE000FC06FFBC00BFEFF31081084672B67047F7
:10FDF00070B505460C4605B10CB9002070BD2878D9
:10FE000040082178B0EB510F01D00020F6E7062220
:10FE1000611C681CFFF749FB08B90120EEE70020D0
:10FE2000ECE70246002104E0505C08B10120704775
:10FE3000491C0629F8D30020F9E7000010B5044654
:10FE40006CB108480068A04209D806484068A04242
:10FE500005D3204604F04CFB08B1012010BD002062
:10FE6000FCE70000982200202DE9FC41044688466A
:10FE70001646002537880020308094F82D0058B1B0
:10FE80003A463146404601F03BFA054600BF15B1FF
:10FE90002846BDE8FC8100BFA07850B13A46314603
:10FEA000404600F0D9FB054600BF0DB12846F0E7FB
:10FEB00000BFE07860B1E17848B23B463246414647
:10FEC00003F0C2F8054600BF0DB12846E1E700BFC8
:10FED000606868B1616891F900003B46324641466E
:10FEE00009F062FB054600BF0DB12846D1E700BF0F
:10FEF000208900280EDD43460622022104F1080075
:10FF0000CDE9006709F0D6FF054600BF0DB12846D0
:10FF1000BFE700BF208A00280EDD434607220321E9
:10FF200004F11000CDE9006709F0C4FF054600BFE9
:10FF30000DB12846ADE700BF208B00280EDD4346FB
:10FF40001522142104F11800CDE9006709F0B2FF71
:10FF5000054600BF0DB128469BE700BF206A58B197
:10FF60003B4632464146206A02F0D9F9054600BFB9
:10FF70000DB128468DE700BF606A58B13B46324656
:10FF80004146606A04F057FE054600BF0DB12846A1
:10FF90007FE700BF94F82C0000280BDD3B4632467B
:10FFA0004146204608F0D2FB054600BF0DB1284669
:10FFB0006FE700BF207858B13B46324641462046A5
:10FFC00004F074FE054600BF0DB1284661E700BF8E
:10FFD00028465EE770B504461448FFF722FF054641
:10FFE000012C06D0022C0BD0032C10D0042C1AD1DB
:10FFF00013E00F48407810B10DB1012070BD00BF73
:020000040002F8
:100000000B48807810B10DB10220F7E700BF084817
:10001000C07808B10320F1E700BF0548007908B1B6
:100020000420EBE700BF0020E8E700008521002066
:10003000442700200146481C052290FBF2F302FBF6
:100040001300C0B270470146C87800F0040008B938
:10005000072070470020FCE710B501220221002094
:1000600001F076FD044600BF1CB1072C01D02046EC
:1000700010BD00BF07220221012001F069FD0446E6
:1000800000BF1CB1072C01D02046F1E700BF0A22B7
:100090000021084601F05CFD044600BF1CB1072C9E
:1000A00001D02046E4E700BF0020E1E730B5AFB063
:1000B0003C2120A8FFF7E7F901208DF880000320FC
:1000C0008DF8810001208DF8820006208DF88300D4
:1000D0000420ADF890001C4920A84161202118A8F7
:1000E000FFF7D1F901208DF863004FF496701C9052
:1000F000B4201D90142215A101A8FFF79DF95920E5
:10010000ADF8180001A908911420ADF81C003C219D
:1001100009A8FFF7B8F900208DF8240006A812906E
:1001200000200F4B18AA09A9009020A800F056FD46
:10013000044600BF254625B100BF284600F0DEF882
:1001400000BF00BF2FB030BD48210020436865725A
:100150007562696D696E6420476F67676C657300CF
:100160008359020070B5032000F05EFE044600BF14
:10017000254625B100BF284600F0C0F800BF00BFEB
:1001800070BD70B58CB004460D461646002005E0E3
:10019000C0F10F01615C0DF80010401C1028F7D36E
:1001A0000D2104A8FFF76FF9002005E02A5CC0F1DB
:1001B0000F0304A9CA54401C0328F7D3684643DF41
:1001C000002005E0C0F10F0208A9895C3154401CF1
:1001D0000328F7D30CB070BD10B50446022001F01F
:1001E00025FB10BD10B5002407E00749096811F888
:1001F0003400012104F00AFF641C044800788442A2
:10020000F3D3002010BD0000182200201C22002083
:100210002DE9F84306460C461746052F02D2072063
:10022000BDE8F88304F0F0FF38B904F0BDFF0546DF
:1002300000BF0DB12846F3E700BF16480660164818
:1002400004701648076000201549086015490860C9
:1002500015E006EBC40814480068009098F8020006
:100260008DF8010098F80000104A694604F024FF58
:10027000054600BF0DB12846D2E700BF00BF201ED3
:10028000A4F10101CCB2E4D1094A0021094800F0EF
:1002900075F8C5E7182200201C220020202200202B
:1002A00024220020282200208CA402008939020088
:1002B0008925020088A4020000BF00BF00BF00BF64
:1002C00000BFBFF34F8F00BF00BF00BF09480068E9
:1002D00000F4E06008490843001D0649086000BFBB
:1002E00000BF00BFBFF34F8F00BF00BF00BF00BF04
:1002F00000BFFDE70CED00E00000FA053EB5044646
:10030000002000900190029002946A46002144F27D
:100310000100FFF7D1FF3EBD70B504460D462046F3
:1003200002F01BFE28B12946204602F005FE0020FF
:1003300070BD0520FCE7034609B90E20704712B1D5
:10034000501E104008B10920F8E71960501E98802F
:1003500000209860D86000BFF0E770B504460D46F5
:10036000204602F0FAFDA188884205D82946204699
:1003700002F001FE002070BD0420FCE710B503462A
:100380000C4600BF0B48406808B9082010BD00BFEC
:100390000AB90720FAE70BB90720F7E71868007CCD
:1003A00008B10820F2E71968002008744C744A610B
:1003B00000BFEBE72C2200202DE9F04107460D4657
:1003C00014461E46204600F0030109B9012100E051
:1003D000002111B90720BDE8F0810CB90720FAE728
:1003E00007F04EFD11480660002011490870487062
:1003F00008468570446000200E4908600E49087068
:100400000E4908701420FFF7C1F907211420FFF7E7
:10041000F7F91420FFF7D2F9384607F007FD07F087
:10042000FFFC074908600020D5E7000048220020B3
:100430002C220020342200204422002045220020CB
:10044000382200202DE9F04104460E461746254685
:1004500000BF1048406810B90820BDE8F08100BF17
:100460000CB90820F9E7052E01D20720F5E76869E5
:1004700008B90820F1E7687C012801D1304600E086
:10048000002080463B4642463146284608F014FF8D
:10049000E3E700002C22002070B50446254600BF8B
:1004A0000848406808B9082070BD00BF0CB16869F1
:1004B00008B90820F8E7002028740221284608F02F
:1004C0002AFFF1E72C2200202DE9F04104460F48D5
:1004D000077821460E48FFF71FFF804697B100209E
:1004E0000A49087001220B490B4804F0E3FE054657
:1004F00000BF2E4626B100BF3046FFF7FFFE00BF0B
:1005000000BF00BF4046BDE8F08100007A22002015
:10051000D02E0020792200206C2200202DE9F0410D
:1005200088B004460D46174698462E4807601DB908
:10053000072008B0BDE8F081A88882B22A4829685F
:10054000FFF7F9FE064600BF0EB13046F1E700BFE7
:10055000A88982B22548A968FFF7EDFE064600BFCC
:100560000EB13046E5E700BF202221496846FEF77C
:1005700063FF60690690207C08B1012000E0002044
:100580008DF814008DF81C80607C08B10E2000E00E
:1005900000208DF81500E0680290A06803902068A4
:1005A000019060680090134A6946134804F040FEC9
:1005B000064600BF0EB13046BBE700BF00200F4922
:1005C00008702068401C58B19DF81D0010B90A48F9
:1005D00004F0DAFE01220A49074804F06BFEA8E79E
:1005E0000020A6E774220020D02E0020E02E00205C
:1005F000A4A40200B19902006C2200207A220020FB
:100600007922002010B50446204607F085FD10BD74
:1006100070B5044625460E488068B0B1ADB9FFF705
:10062000E1FB06460A4800680A4908600848406835
:100630004FF0E021C1F804010020054988601EB98F
:1006400000BF62B600BF00BF00BF00BF70BD0000AA
:10065000402D002000E100E0F8B505460C461746A5
:100660002088001DB84201D90C20F8BD684679DF0A
:10067000064600BF0EB13046F7E700BF03202188D1
:1006800068542088401C20801920218868542088C4
:10069000401C208020884119BDF8000009F04DFB66
:1006A0002188084420800020DFE7000070B5002288
:1006B0004FF420310F480068FFF7C4FE044600BF26
:1006C000254625B100BF2846FFF718FE00BF00BF32
:1006D00000224FF4004108480068FFF7B3FE0446CB
:1006E00000BF254625B100BF2846FFF707FE00BF23
:1006F00000BF70BD54A3020058A3020070B50546A8
:100700000C462068401C28B1206805F078F8206865
:1007100005F02BF86068401C18B10021606805F0F6
:1007200017F828792D4901EB4010007F50B3286855
:10073000A169C0F8241500BF617D227D286841EAC7
:100740000203C0F86C3500BFD4E90012286805F038
:1007500011F9207D01283FD1A068401C18B100216B
:10076000A06804F0F5FFE068401C28B1E06805F0DF
:1007700046F8E06804F0F9FFD4E90221286805F0A2
:10078000E5F829E02868A169C0F8241500BF617D5B
:10079000227D286841EA0203C0F86C3500BFD4E925
:1007A0000012286805F0B9F8207D012814D1A0684E
:1007B000401C18B10021A06804F0CAFFE068401C8A
:1007C00028B1E06805F01BF8E06804F0CEFFD4E93A
:1007D0000221286805F08AF870BD0000002D002075
:1007E00030B58BB01348007800F058FD0546284618
:1007F00007F0C6FCD8B101A800F0B0FC142201A992
:1008000006A8FEF719FE00240DE007A931F8140030
:100810000849097800F050FD20B107A931F814000B
:1008200004F010F9641C0698A042EED800BF0BB08B
:1008300030BD0000BE21002010B50446637903F0EE
:1008400003022179208803F0CDFF10BD10B50446C6
:10085000207918B9204600F007F803E02046FFF79A
:10086000EBFF00BF00BF10BD2DE9F04188B004468A
:100870000025208800F0E4FC0746208803F062FC95
:100880000646A0680790607A0690208800222349D7
:10089000097800F023FD17B908B0BDE8F081607950
:1008A000C0F3800090B10721304605F0E5FE054613
:1008B000BDB108208DF800002088ADF80200ADF829
:1008C00004600295684602F0B7F80AE020881449EF
:1008D000097800F0F1FC20B1304603F01DFC8046A1
:1008E00000BF03208DF80C002088ADF80E00607961
:1008F000C0F380008DF81000A079C0F380018DF85E
:1009000011109DF81C108DF812109DF818108DF81C
:10091000131003A802F090F800BFBDE7FE210020ED
:1009200000220020F0B591B004460D46207DD8B1DC
:100930000020099000BF9DF8240020F00F00401C0B
:100940008DF824009DF8240020F0F00010308DF880
:10095000240000BF687B8DF825009DF8260020F05C
:100960000600801C8DF826001C210AA8FEF78BFDCE
:100970009DF8280020F00200801C8DF82800207DC2
:1009800008B1012000E000209DF8281060F3041158
:100990008DF8281000200B900D900E90207D08B14E
:1009A00009A800E000200F900020109000BF012057
:1009B0008DF80E0042F61920ADF80C0000BF0020A3
:1009C0000290A87B8DF80800E87B8DF809009DF85F
:1009D0000A0020F00600801C8DF80A009DF80A002D
:1009E00020F008008DF80A009DF80A0020F01000A1
:1009F0008DF80A009DF80A0020F001008DF80A0029
:100A0000287B0190142104A8FEF73DFD03A8049063
:100A100002A805900120ADF818000020ADF81A00DA
:100A20000120ADF81C0001A80890A088A31D04AA0D
:100A30000AA9A2DF064616B1304611B0F0BDA8687B
:100A4000002855D000BF01208DF80E0042F6081096
:100A5000ADF80C0000BF00200290287C8DF8080043
:100A600000BF9DF8090020F00F008DF809009DF8E7
:100A7000090020F0F0008DF8090000BF9DF80A0081
:100A800020F00600801C8DF80A009DF80A0020F076
:100A900008008DF80A009DF80A0020F010008DF87B
:100AA0000A009DF80A0020F001008DF80A0068464F
:100AB000A96800F0CAFD0746142104A8FEF7E3FC6C
:100AC00003A8049002A80590ADF818700020ADF8B6
:100AD0001A00BDF81800ADF81C00CDF820D0E08851
:100AE00004F10E0204A9A3DF06461EB13046A4E7B6
:100AF0000020E0810020A0E710B50E480078401CDF
:100B00000C490870084601780B4800F041FA044689
:100B100074B1082C0CD043F20400844208D043F294
:100B20000140844204D000BF2046FFF7E7FB00BF2E
:100B300010BD0000582100200426002010B50446F6
:100B4000FFF7DAFF10BD2DE9F04192B080460D4667
:100B50001F2011901090B8F1000F17D04046FFF7FA
:100B600072FA044600BF1CB1204612B0BDE8F08105
:100B700000BF11AA08A94046FFF776F9044600BF56
:100B80000CB12046F1E700BF08AE02E000260020CD
:100B90001190ADB1284608F097FA044600BF0CB199
:100BA0002046E2E700BF10AA69462846FFF75CF935
:100BB000044600BF0CB12046D7E700BF6F4602E0F5
:100BC000002700201090BDF84000C3B2BDF84400DB
:100BD000C1B23A46304672DFC7E700002DE9F04760
:100BE00004460F4615461E46DDF8208004B115B9AF
:100BF0000E20BDE8F08701204849087000204849D0
:100C00000870202229464748FEF716FC4648066031
:100C10004648C0F800804FF6FF70454908804548B7
:100C200000210160818081713C214348FEF72BFC4B
:100C3000207841490870A0788870E078C8706078A2
:100C40004870D4E90402C1E904020846D4E902125A
:100C5000C0E90212D4E90612C0E90612606AD8B1EE
:100C600036483549486236498160606A00883249B1
:100C7000496A0880606A80882F49496A8880002014
:100C800005E0616A8968095C2D4A1154401C2A49B3
:100C9000496A89888142F4D8A06A20B329492A4840
:100CA00081602549886227492348806A8160A06A5B
:100CB00080882149896A8880A06A00881E49896ADB
:100CC0000880002005E0A16A8968095C1D4A11546A
:100CD000401C1949896A89888142F4D894F82C000B
:100CE000154981F82C00206A58B118481249086249
:100CF000206A4088096A4880206A00880E49096A8B
:100D00000880606810B10C496068486039460A483C
:100D1000FFF719FF814648466BE70000802100205D
:100D200083210020442700209421002098210020C6
:100D3000902100208421002064270020A02700208B
:100D4000AC270020D8270020CC2700208C210020B1
:100D500010B504462088102804D0112806D01B287E
:100D60000CD107E0204604F015FF08E0204604F00F
:100D700047FF04E0204604F0CBFF00E000BF00BFC7
:100D800010BD000070B50546022D02D0032D15D10F
:100D900000E000BF0B48007878B1002009490870D6
:100DA0000948007800F040F8044634B1074800686C
:100DB00018B1204605490968884700E000BF00BF18
:100DC00070BD000081210020832100209821002097
:100DD00010B574DF01200F49087000200E4908701B
:100DE00006200E49C87000210C48FFF7ACFE0446EF
:100DF0000CB1204610BD0A48007800F015F80446F2
:100E000034B10848006818B1204606490968884787
:100E10000020EFE79C2100209E2100206427002075
:100E200083210020982100207FB505464D48007899
:100E300010B9082004B070BD4B48057002F06EF97F
:100E400020B10120494908700020F3E748480021FB
:100E50000160818081714748407818B1424800782C
:100E600001280DD04348807818B13F480078012808
:100E700006D04048807888B13B48007802280DD1E0
:100E80003D48006838B101203C49087008203A49C3
:100E90000968884702E00020384908702846FFF7B3
:100EA00099F83149087034480068C0B108460078A4
:100EB000032803D008460078042810D12D48007874
:100EC00068B12F48007850B900202E4908700120E1
:100ED0002D490870072028490968884702E000204A
:100EE00029490870002000900190029003908DF82D
:100EF00000008DF808001C48007805281CD2DFE8A7
:100F000000F01703080D1200684607F043FD044681
:100F100013E0684607F04EFD04460EE0684607F011
:100F20005FFD044609E0684607F08AFD044604E0D8
:100F300000201649087000E000BF00BF0A48007892
:100F400028B1684673DF04460CB1204672E70A48B0
:100F5000006820B10D4800780749096888470020DB
:100F600068E70000802100208321002081210020EB
:100F70008421002044270020942100208B21002080
:100F80009C2100209E2100209D2100208221002004
:100F900033B587B0044614B90E2009B030BD002522
:100FA000207C9DF82010884236D0002005900690C5
:100FB0000120ADF814000020ADF8160008A8069036
:100FC000E188608A05AAA4DF05461DB99DF82000C6
:100FD000207401E02846E0E7608A4FF6FF718842FE
:100FE00019D0207DB8B100200190029003900490A8
:100FF000E088ADF8040001208DF80600BDF8160069
:10100000ADF8080005A8039006980490608A01A92D
:10101000A6DF054600E008252846BEE7F8B50446E9
:101020000D4604B10DB90E20F8BD286820604FF6BA
:10103000FF70608228792075FF20207400BF012096
:101040008DF8020041F60F00ADF8000000BF221D30
:1010500069460120A0DF06460EB13046E4E7294686
:101060002046FFF75FFCDFE770B505460C4605B18B
:1010700004B970BD2088102804D0112807D050284A
:101080000FD109E02146284604F07AFD0AE0214606
:10109000284604F0A9FD05E02146284604F07AFE22
:1010A00000E000BF00BF00BFE3E7000070B50546E9
:1010B0001C2229461248FEF7BFF90020114908708A
:1010C000286850B1104829680A6802604968416080
:1010D0007ADF04463CB1204670BD0B487BDF0446F6
:1010E0000CB12046F8E74FF6FF7008490880002051
:1010F00007490870074A00210748FFF73FF9EBE767
:10110000F8270020B4210020A0210020AA210020DF
:10111000A8210020AD9D0200ACA3020010B504463A
:101120002088102806D0112808D012280ED0502868
:1011300010D107E0204604F007FD0CE0204604F043
:1011400033FD08E0204604F0FFFD04E0204604F0F3
:10115000EFFC00E000BF00BF10BD000010B504466A
:101160000348027D011D204607F083F810BD0000F2
:101170003428002010B504460348C17D2246001DD6
:1011800007F060F810BD00003428002010B50446B8
:101190000348017E2246001D07F054F810BD0000F0
:1011A0003428002070B504462088102804D0112867
:1011B0001DD01A2840D11EE006F0A8FDA08806F038
:1011C0001FFC20B900BF0420FFF798F80EE0E07B79
:1011D000022801D1012000E000200546A2882B460C
:1011E0001649A1F1120007F065F800BF24E0A088BD
:1011F00006F0AEFD20E0207A0121B1EB101F01DAEC
:10120000012000E000200346A2880C49491CA1F1FE
:10121000130007F04FF8207A0221B1EB101F01DA1A
:10122000012000E000200346A2880449891CA1F1A6
:10123000140007F03FF800BF00BF70BD4A2800202F
:1012400070B5044600250B48017D2246001D06F0BE
:10125000F9FF60B10748817D2246001D06F0F2FFCC
:1012600006460EB1022000E00120054600BF2846D8
:1012700070BD00003428002010B500240AE020468C
:1012800008F0E6FD20B9204608F0D8FD204610BD44
:10129000601CC4B2182CF2DB1820F8E710B5044625
:1012A000204608F0D5FD10B10248005D10BD0020B9
:1012B000FCE700004D28002070B505460C4620468E
:1012C00008F0C6FD30B10448015D2A46153806F025
:1012D000B9FF70BD0020FCE74D28002070B5054621
:1012E0000C461646204608F0B3FD30B103480119FC
:1012F00033462A46153806F0DDFF70BD4D28002024
:101300002DE9FC4105460C46174620880930B842B5
:1013100002D90C20BDE8FC8168466DDF064600BF9F
:101320000EB13046F6E700BF0820218868542088B7
:10133000401C20801B20218868542088401C20806D
:1013400020882844DDF801100160BDF80510818077
:101350002088801D20809DF80000400818B90020DA
:101360002188685402E00120218868542088401CAC
:1013700020800020CEE7000010B504462046FFF78D
:1013800011FF204605F0D6FF2046FFF7C7FE204696
:1013900000F0E4FA204604F00DFB2046FFF7D8FCED
:1013A00021460648FFF760FE2146054800F0F8F8A0
:1013B0002146044800F070F810BD0000042600200B
:1013C0001C26002038260020F0B58BB004460F46BE
:1013D000208C4FF6FF71884223D006AA394620465A
:1013E00002F0B6FC0646059600200190029003909C
:1013F00004902089ADF8040001208DF8060000203B
:10140000ADF8080005A8039006A80490208C01A957
:10141000A6DF054625B9BDF81400B04200D00C2562
:1014200000E0082528460BB0F0BDF8B504460E468E
:1014300030682060307960714FF6FF7020840020A2
:1014400084F82200A4F84C00142084F84E0000BF59
:1014500001208DF8020041F60D00ADF8000000BF3C
:10146000A21D69460120A0DF05460DB12846F8BD42
:101470003146204602F0EFFB05460DB12846F6E75F
:10148000B06838B13146204600F058F905460DB134
:101490002846ECE70020EAE770B505460C462088B0
:1014A000102804D0112807D050280FD109E0214678
:1014B000284604F06BFB0AE02146284604F09CFB1A
:1014C00005E02146284604F0A8FC00E000BF00BF6C
:1014D00070BD70B504460D46B4F84C0014280AD10E
:1014E000262204F12601881EFDF7A6FFB4F84C0061
:1014F000401EA4F84C0034F84C1F2088401C24F8EF
:101500004C0904F1240020F8115070BD70B586B06C
:1015100004460E46214B0FCB01AD0FC500BF14B9D9
:101520000E2006B070BD00BF00BF0EB90E20F8E758
:1015300000BF4FF6FF70A0823068A0610020A07548
:10154000214601A863DF054600BF0DB12846E8E744
:1015500000BF20788DF816000120ADF81400A21C01
:1015600005A9A0DF054600BF0DB12846D9E700BF99
:101570003146204606F0CFFC054600BF0DB1284697
:10158000CFE700BF3146204607F087FF054600BF82
:101590000DB12846C5E700BF0020C2E730A4020015
:1015A00070B505460C4605B104B970BD20881028F9
:1015B00004D0112807D050280FD109E02146284631
:1015C00004F0E1FA0AE02146284604F011FB05E0A8
:1015D0002146284604F0FEFB00E000BF00BF00BF2C
:1015E000E3E737B584B004460D4600BF14B90E20BA
:1015F00007B030BD00BFA08A4FF6FF71884201D00E
:10160000A07D08B90820F3E7BDF81800142801DD13
:101610000720EDE700200090019002900390A08940
:10162000ADF80000039506A8029001208DF8020095
:10163000A08A6946A6DFDBE770B50446204608F0BD
:1016400076FB054605F0010070BD2DE9F041054629
:101650000E46002432782146641C6A547278214672
:10166000641C6A5400BF022C01D1012000E000205C
:10167000074627B900BF0020FEF740FE00BF00BFAD
:101680002046BDE8F081000070B588B027480068AA
:10169000079000BF00235022254907A807F0B4FC9B
:1016A000054600BF2E4626B100BF3046FEF726FE97
:1016B00000BF00BF00BF6A460121002007F084FC84
:1016C000044600BF254625B100BF2846FEF716FE9A
:1016D00000BF00BF1720ADF81000684607F060FC9F
:1016E000044600BF254625B100BF2846FEF706FE8A
:1016F00000BF00BF0F4807F047FC044600BF254667
:1017000025B100BF2846FEF7F9FD00BF00BF0A481B
:1017100007F0CEFC044600BF254625B100BF284691
:10172000FEF7ECFD00BF00BF08B070BD74A302005F
:1017300088260020791302002F91020030B58FB067
:1017400005460C461C2108A8FDF79DFE9DF82000CB
:1017500020F00200801C8DF82000002009900B90E2
:101760000C900D900E9000BF01208DF80A0042F6FB
:101770003820ADF8080000BF00200190E07B8DF814
:101780000400207C8DF805009DF8060020F006007E
:10179000801C8DF806009DF8060020F008008DF8EA
:1017A00006009DF8060020F010008DF806009DF858
:1017B000060020F001008DF80600142103A8FDF7B3
:1017C00062FE02A8039001A804900120ADF8140065
:1017D0000020ADF816000120ADF81800A0680790B1
:1017E000E88805F1100303AA08A9A2DF0FB030BDF5
:1017F00001460148405C70477CA3020010B50146D9
:10180000094B585C00BF4FF0A044234600BFD3F8FB
:101810001045C44004F001040CB1012000E0002098
:10182000024682F0010010BD7CA3020010B5024602
:101830000949885C00BF4FF0A0442146D1F8043527
:10184000012484409C43C1F80845012484401C4085
:10185000C1F80C4500BF10BD78A3020010B50446C6
:101860000249085D012103F0D5FF10BD78A30200F5
:1018700010B504460249085D002103F0CBFF10BDFE
:1018800078A3020010B50146094B585C00BF4FF029
:10189000A044234600BFD3F80445C44004F001042B
:1018A0000CB1012000E00020024682F0010010BDD2
:1018B00078A302007CB500240CE00948055D0020F7
:1018C00000900346012211460190284603F004FFD0
:1018D00000BF641C042CF0D300F004F87CBD0000B1
:1018E00078A3020010B5002403E02046FFF7B6FFFE
:1018F000641C042CF9D310BD10B5002403E020466D
:10190000FFF7B6FF641C042CF9D310BD02464FF05C
:10191000FF30002106E0054B5B5C934201D1084695
:1019200002E0491C0429F6D300BF70477CA30200E3
:1019300070B505460C4600260648056014B12046E1
:1019400007F0C9FB0448006810B9FEF785FB06469E
:10195000304670BD782100207C21002070B50546FE
:101960002888102802D011282CD115E017480068CB
:1019700060B900F0ADFD044600BF34B11448006802
:1019800018B1204612490968884700BF0F4800680F
:10199000401C0E49086016E00C480068401E0B49C8
:1019A00008600846006860B9FEF756FB044600BFB1
:1019B00034B10748006818B12046054909688847CE
:1019C00000BF00E000BF00BF70BD00007C21002010
:1019D0007821002010B5002000F0E2FA044600BF94
:1019E0001CB1062C01D0204610BD00BF012000F024
:1019F000D7FA044600BF1CB1062C01D02046F3E7FD
:101A000000BF0020F0E700002DE9F04106460F4638
:101A10004FF0000800243046FFF778FF0446042CFE
:101A200041D227B3012F02D0022F3BD133E004EB88
:101A30004400234911F8008004EB44000844407836
:101A400068B12048006800EB800041001E4A1F4832
:101A50000068FEF7F7FC05460DB91B48067004EB5D
:101A60004400174908448078194908551AE0174876
:101A70000068FEF711FD1648005D04EB4401104AB2
:101A800011448978884205D104EB4400114608448A
:101A900090F8028006E004EB44000949084490F8FD
:101AA000018000BF00BFB8F1000F06D009480068F0
:101AB00018B14046074909688847BDE8F081000031
:101AC00018270020642100207021002088A3020034
:101AD000712100206C21002010B504462046FFF73C
:101AE0008DFE10BD70B50546042D06D0072D15D00E
:101AF0000A2D28D106F0D4FF26E0132113480088D0
:101B000076DF0446082C08D000BF264626B100BF69
:101B10003046FEF7F3FB00BF00BF15E00B4800881E
:101B20004FF6FF7188420DD1FFF752F90446082C99
:101B300008D000BF264626B100BF3046FEF7DEFBC8
:101B400000BF00BF00E000BF00BF70BD4621002005
:101B500030B503460020042B23D2012A07D10129E6
:101B600003D103F10E04E4B200E00024224679B16F
:101B7000012902D0022911D104E003EB43040A4DEC
:101B80002A550DE003EB4304074D2C44627007E037
:101B900003EB4304044D2C44A27001E0072000BF76
:101BA00000E0072030BD00001827002070B5044673
:101BB00000250548007800F0010018B1204600F02B
:101BC0005FF80546284670BD682100202DE9F041E8
:101BD00005460E46904600241F4806601F480560D3
:101BE0001F48C0F8008005F00200F8B1002706E0A9
:101BF000012211463846FFF7ABFF04467F1C042F35
:101C000001D2002CF4D02CB9720804211548FEF73B
:101C1000FFFA044614B9FEF7E5FA04462CB9124A55
:101C200000211248FEF7AAFB044600BF05F00100A0
:101C300008B1FFF73FFE2CB90D4A00210D48FEF711
:101C40009DFB04462CB90C4A01210C48FEF796FB7B
:101C500004462046BDE8F081642100206821002070
:101C60006C2100208CA30200B71F020088A3020091
:101C70000D45020080A30200D901020084A30200E6
:101C80002DE9F041044600260025C048007820B127
:101C90000020BE490870FFF725FE182C75D2DFE83A
:101CA00004F00C11123D6895BFCDD3F0EEEDECEBD6
:101CB000EAE9E8E7E6E5E4E3E2E1FFF713FEB4482A
:101CC00004705FE100BF0020FFF7DCFD58B1002089
:101CD000FFF7C4FD022C02D14FF4E16001E04FF4A4
:101CE0007A60054609E00020FFF7C2FD022C01D111
:101CF000C82001E04FF4C8700546A5480470642070
:101D0000B5FBF0F0A349096800FB01F70022394652
:101D1000A1480068FEF796FB064633E10020FFF776
:101D2000B1FD58B10020FFF799FD032C02D14FF40B
:101D3000487001E04FF47A60054609E00020FFF7A3
:101D400097FD032C01D1C82001E04FF4C87005466F
:101D50008F4804706420B5FBF0F08E49096800FBE1
:101D600001F7002239468C480068FEF76BFB0646F7
:101D700008E10020FFF786FD60B10020FFF76EFD4F
:101D8000042C03D14FF47A6002E0FAE04FF47A6059
:101D900005460AE00020FFF76BFD042C02D14FF44A
:101DA000C87001E04FF4C87005467948047064209B
:101DB000B5FBF0F07749096800FB01F700223946CE
:101DC00075480068FEF73EFB0646DBE00020FFF7A3
:101DD00059FD50B10020FFF741FD052C01D1C8206D
:101DE00001E04FF47A60054609E00020FFF740FD6E
:101DF000052C01D1C82001E04FF4C87005466448A5
:101E000004706420B5FBF0F06249096800FB01F73B
:101E10000022394660480068FEF714FB0646B1E030
:101E20000020FFF703FD5A4804705A480022016859
:101E300059480068FEF706FB0646A3E00020FFF7BE
:101E400017FD534804709DE0012050490870FFF7CA
:101E5000EDFC5048002201684F480068FEF7F2FA96
:101E600006468FE088E086E07AE071E068E062E0B4
:101E70003EE03CE03AE038E036E030E01FE010E0E1
:101E8000FFE7012041490870FFF7D0FC4148006896
:101E900000EB8001002240480068FEF7D3FA0646B6
:101EA00070E0012039490870FFF7C0FC3948002272
:101EB000016839480068FEF7C5FA064662E001206D
:101EC00032490870FFF7B2FC3248006800EB80012D
:101ED000002231480068FEF7B5FA064652E0FFF7E7
:101EE0000BFD2B4804704DE000BF00BF00BF00BFDA
:101EF0002A480068FEF7D0FA0646C4F11105B5B1CC
:101F0000AEB9012D0FD9C82068436421B0FBF1F0B0
:101F10002049096800FB01F7002239461F48006884
:101F2000FEF790FA06460220FFF7A2FC02E002202C
:101F3000FFF794FC26E0FFF7D5FC1548047021E07C
:101F4000FFF7D0FC0020FFF793FC1148047019E064
:101F5000FFF7C8FC0120FFF78BFC0D48047011E06F
:101F6000FFF7C0FC0020FFF783FC0120FFF780FC97
:101F70000748047006E000BFFFF7BEFC0448047089
:101F800000E000BF00BF3046BDE8F08161210020C5
:101F9000602100206421002080A3020084A30200AD
:101FA00070B504462046FFF723FC0546032103F0E5
:101FB000E8FB002070BD10B5044620780221FFF731
:101FC00023FD10BDF8B50546134A40F6CD41032068
:101FD000FFF7FCFD044600BF264626B100BF304691
:101FE000FEF78CF900BF00BF69460020FFF7A0FC98
:101FF000044600BF264626B100BF3046FEF77EF9F4
:1020000000BF00BF9DF80000022801D1012000E0C0
:1020100000202870F8BD0000E51A0200014688790A
:10202000012809D10879012806D1488842F6021210
:10203000904201D1012070470020FCE74FF0FF31B2
:10204000054A42F82010082804DBFF23A0F108010C
:102050005032535470470000A82C0020014602481B
:1020600050F8210070470000A82C00202DE9F04F07
:1020700003460C464FF0FF390AB1002000E008206B
:1020800084460AB1082000E00C208046614624E026
:10209000154850F82100401CF0B91D460846274657
:1020A00016464FFA80FBDFF840A00AF1300A0AF822
:1020B00005B0DFF834A04AF820704EB94FFA85FB1E
:1020C000A0F1080ADFF820E00EF1500E0EF80AB079
:1020D00000BF4FFA81F902E0491C4145D8D300BF47
:1020E0004846BDE8F08F0000A82C002001460148BA
:1020F00040567047D82C0020014639B10448884228
:1021000004D80448884201D9012070470020FCE728
:1021100098220020A822002070B505460E46002413
:1021200007E055F8340002F0E3F908B9002070BD6B
:10213000641CB442F5D30120F9E700000A49496C58
:1021400081B10949096C084A02EBC10101601146DD
:1021500091F84010491C01F0070111641146496CC7
:10216000491E516470470000E42D002006490268B2
:102170008A4203D00168083101607047024938394A
:10218000016000BFF9E700001C2E00200178022941
:1021900002D0017803290BD106490A6C817D1144D4
:1021A000044A116411464A6C817D511A014A5164F6
:1021B00070470000E42D00202DE9F04104460D4653
:1021C0004FF6FF76304684420AD14FF4807128469C
:1021D00005F06AF80646B6F5807F0FD126460DE079
:1021E000FF2C0BDC2146284605F04EF807460FB1C0
:1021F000204601E04FF6FF70064600BF3046BDE8BE
:10220000F081000070B505460DB9094C01E0084C9D
:10221000083409E0204602F073F9064606B904E0E6
:1022200028467168884700BFF4E700BF70BD000012
:102230009C2C00202DE9F04782461F4800680028AA
:1022400036D01D480068056805F0EAFD07461B48C2
:1022500004682146384606F073FFC61C184800780B
:1022600008B905F0EFFDAE4201D2284600E0304645
:10227000044424F07F44204605F0CCFD05F0D0FD59
:1022800080463946404606F05BFF00F103093946B7
:10229000204606F055FF814509D905F0C1FD81466C
:1022A00005F0B8FD2F2002F0D9FD07F0A1F801E0FC
:1022B00005F0E6FDBDE8F08734220020382200203A
:1022C0004C22002001460888062808DB0888B0F563
:1022D000486F06DD08884FF6FF72904201D0072054
:1022E00070474888062808DB4888B0F5486F06DD47
:1022F00048884FF6FF72904201D00720F0E7088827
:102300004FF6FF72904208D04888904205D0088866
:102310004A88904201DD0720E2E70020E0E72DE94E
:10232000F04106460D46144698462088801D4045DB
:1023300002D90C20BDE8F0813046FFF7C3FF074605
:1023400000BF0FB13846F5E700BF0520218868546B
:102350002088401C20801220218868542088401C3E
:10236000208022885119308807F0E7FC2188084432
:10237000208022885119708807F0DFFC21880844EA
:1023800020800020D6E710B5044600BF2046FDF7A8
:10239000B5FF00BF10BD000030B587B01C216846F6
:1023A000FDF771F8002000904FF4203001904FF4B9
:1023B0007020029003208DF80C000020ADF80E0074
:1023C0008DF8100009480590094806906846FEF708
:1023D0006DFE044600BF254625B100BF2846FDF727
:1023E0008DFF00BF00BF07B030BD0000055B0200DD
:1023F0008723020038B51B4802F05CF820BB1A485E
:10240000007848B119484069E8B1002000901748A9
:1024100041696846884716E01548007810B91348A6
:10242000456801E011488568002229461148006886
:10243000FEF708F8044634B10C48806918B10B481F
:1024400081692046884709E00848406930B1012089
:102450000090064841696846884700BF002002494D
:10246000087038BDAC210020B4210020F8270020DE
:10247000A8210020ACA302003EB504462088FEF748
:1024800079FED0B1208810490978FEF715FF28B9E8
:10249000208800220D490978FEF720FF2088ADF83A
:1024A000020005208DF800002088FEF76FFE8DF8F1
:1024B0000400684600F0C0FA05E02088012241F2DD
:1024C000060100F0EBF83EBDFF210020FE210020B8
:1024D00010B5012200210846FFF73AFB044600BF71
:1024E0001CB1072C01D0204610BD00BF07220221DD
:1024F0000120FFF72DFB044600BF1CB1072C01D0C3
:102500002046F1E700BF042202210020FFF720FB54
:10251000044600BF1CB1072C01D02046E4E700BFF1
:102520000020E1E770B504460D462A4621460248E0
:10253000FFF757F870BD00001C26002070B5064656
:102540000D460EB1012070BD287920B1012809D0B7
:10255000022813D10FE0284605F0BCFA04460220F9
:1025600028710DE0284600F00FFD04460A2C01D129
:1025700041F61D5404E041F61D5401E00F2400BF54
:1025800000BF2046DFE700002DE9F0478146002527
:1025900032E01C48006800EBC5042178012000FAF5
:1025A00001F619480068304020B317480068B0436E
:1025B00015490860207802F0EDFD074621780120DA
:1025C0008840124909680840217807FA01F18842D9
:1025D0000FD16078012800D100E00020784080F021
:1025E0000108606820B108F0FF0120786268904718
:1025F00000BF00BF681CC5B2054800788542C8DB33
:10260000BDE8F08718220020282200202422002084
:102610001C22002070B5044620793D2802D141F2E9
:102620003D0001E04FF488500546208800222946ED
:1026300002F0D8F870BD0000014614480078144A32
:10264000127890421DD011480078401C0F4A10703B
:1026500010460078022801D1002010700D480B4A66
:10266000127850F8220008600B4A0868126810447B
:10267000094A10601046006820F07F401060012079
:1026800070470020086000BFFAE7000044220020E5
:10269000452200203C22002038220020FEB50446BE
:1026A0000D461646094A07CA8DE80700ADF80240F4
:1026B000ADF804508DF806600022054801782046E8
:1026C000FEF70CFE684600F0B7F9FEBD20A402003C
:1026D000FE21002010B50446A08928DF10BD0000AF
:1026E00013480078062820D11148001D007800F01A
:1026F0000F00D0B90E480830007800F0F000302804
:1027000001D1012070470A480830007800F0F0003D
:10271000402801D10120F5E705480830007800F095
:10272000F000502801D10120ECE70020EAE700008A
:10273000E00F00F00A48007806280ED10848001D76
:10274000007800F00F0040B905480830007800F02C
:10275000F000302801D1012070470020FCE7000084
:10276000E00F00F013480078062820D11148001D22
:10277000007800F00F00D0B90E480830007800F063
:10278000F000302801D1012070470A480830007855
:1027900000F0F000402801D10120F5E7054808309D
:1027A000007800F0F000502801D10120ECE7002073
:1027B000EAE70000E00F00F00A48007806280ED192
:1027C0000848001D007800F00F0040B905480830A7
:1027D000007800F0F000302801D10120704700207F
:1027E000FCE70000E00F00F013480078062820D135
:1027F0001148001D007800F00F00D0B90E480830D5
:10280000007800F0F000302801D1012070470A481C
:102810000830007800F0F000402801D10120F5E7F1
:1028200005480830007800F0F000502801D1012060
:10283000ECE70020EAE70000E00F00F00A4800782B
:1028400006280ED10848001D007800F00F0040B99E
:1028500005480830007800F0F000302801D1012050
:1028600070470020FCE70000E00F00F00A48007805
:1028700006280ED10848001D007800F00F0040B96E
:1028800005480830007800F0F000302801D1012020
:1028900070470020FCE70000E00F00F00A480078D5
:1028A00006280ED10848001D007800F00F0040B93E
:1028B00005480830007800F0F000502801D10120D0
:1028C00070470020FCE70000E00F00F00278072AC4
:1028D00034D2DFE802F03304071020293000002250
:1028E0000A702CE001220A7003898B818388CB81D6
:1028F000C2688A6023E002220A7003898B81838880
:10290000CB81C2688A60027C062A01D1012300E0E3
:1029100000230B7413E003220A70C3888B810389A0
:10292000CB81C2688A600AE004220A70C3888B8166
:102930000023CB8103E005220A7000E000BF00BF46
:102940007047000070B50546002409E0064850F8BD
:10295000240020B1044850F8241028468847641CFD
:10296000082CF3D370BD00004C2D00203EB5054669
:102970000C46DCB1112C19D000200090019002907F
:10298000ADF8025001940D2C03D10B208DF80000FE
:1029900008E0862C03D10A208DF8000002E009200F
:1029A0008DF80000684600F057F800BF3EBD0000FB
:1029B00070B50546002405E0044850F82410284668
:1029C0008847641C002CF7D070BD0000B82100209F
:1029D00070B50546002405E0044850F82410284648
:1029E0008847641C002CF7D070BD0000C421002073
:1029F00070B50546002405E0044850F82410284628
:102A00008847641C022CF7D370BD0000C8A30200E5
:102A100070B50546002405E0054850F82410284606
:102A20008847641C034800788442F5DB70BD0000D1
:102A3000482C0020FA21002070B50546002405E04E
:102A4000044850F8241028468847641C022CF7D309
:102A500070BD0000E8A3020070B50546002405E043
:102A6000044850F8241028468847641C002CF7D0EE
:102A700070BD00002CA40200F0B5034600241FE046
:102A8000124E306806689E4203D90668F61A066040
:102A90001AE006689B1B06683444002606600B4E4D
:102AA00035680A4FC6693E60C66846B10E1926F001
:102AB0007F464660C66886601668C661156000BFBE
:102AC000024800680028DBD100BFF0BD342200209E
:102AD0001FB50446606808B9012000E0002003909B
:102AE000207806287BD2DFE800F0820304304F7B99
:102AF00000BFA08900F06DFA18B9E08905F0F9F877
:102B000010B3A08900F060FAADF80200E08905F08A
:102B1000EDF88DF804002078012807D1606808B925
:102B2000002000E003208DF8000006E0606808B98E
:102B3000012000E004208DF8000060680390A06888
:102B40000290684603F056FE52E0A08900F041FA78
:102B500018B9E08905F0CDF8A8B1A08900F034FAE1
:102B6000ADF80200E08905F0C1F88DF80400606856
:102B700008B9022000E005208DF80000A06802904E
:102B8000684603F037FE33E0A08900F022FA28B34C
:102B9000E08918BBA08900F017FAADF80200E089BF
:102BA00005F0A4F88DF80400FF208DF8040060689B
:102BB00038B906208DF80000BDF8020004F030F8A6
:102BC00002E007208DF8000000200E4908700E4931
:102BD000087003F06FFF684603F00CFE08E006E0A3
:102BE00008208DF80000684603F004FE00E000BFF6
:102BF00000BF0448007820B100200249087003F0AB
:102C000059FF1FBDD5210020D621002010B588B066
:102C10000446022000F004FA10B9022008B010BDEA
:102C20004FF6FF70844201D10420F7E705208DF8AC
:102C3000040001208DF80800ADF80A40002211467A
:102C400001A803F0F7F818B104F0B8FE0020E5E79A
:102C50000820E3E700B587B0022000F0E1F910B9E1
:102C6000022007B000BD06208DF8000000221146AA
:102C7000684603F0DFF848B10548007810B101203C
:102C80000349087304F09AFE0020EAE70820E8E709
:102C90004C2E002010B58CB0142107A8FCF7F3FBD4
:102CA000022000F0BDF928B107A8FFF74BFE002075
:102CB0000CB010BD012000F0B3F908B10020F7E717
:102CC000012000F0B9F900F087FA03F0BFF90446DB
:102CD0000CB90B20ECE7062C0AD1022000F0ACF96D
:102CE000012000F083F907A8FFF72CFE0020DFE7A2
:102CF00001208DF800000C2C1AD2DFE804F0190630
:102D0000190719141915190B100C00BF00208DF8A4
:102D100004000EE000BF03208DF8040009E002204B
:102D20008DF8040005E000BF01208DF8040000E0EC
:102D300000BF00BF00221146684603F07BF804F094
:102D40003DFE0020B4E7000038B504460CB905206C
:102D500038BD6946204604F0E1FEE0B10F48BDF8F9
:102D6000001000EB01108089002812DDA07A80B1EC
:102D70000A48BDF8001000EB01108089401E074989
:102D8000BDF8002001EB021188810020A07200250F
:102D900002E0062500E00A252846D9E72C2E00206F
:102DA0007FB514461D462B46224601A9684604F00D
:102DB0004DFE04B070BD37B50C4615462B46224675
:102DC0006946002004F042FE3EBD37B50C4615466C
:102DD0002B4622460021684604F038FE3EBD0246DE
:102DE00002B109B905207047106808600020FAE7B1
:102DF00038B504460D4604B10DB9052038BD694605
:102E0000204604F08BFEA8B161680B48BDF8002095
:102E100000EB02108089401C074ABDF8003002EB2D
:102E200003129081296060680C3068600120A072F4
:102E30000020E3E70A20E1E72C2E002070B50446CD
:102E40000D460CB9052070BD0323002229462046FB
:102E500007F05EF9F7E770B504460D46022300223D
:102E60002946204607F054F970BD70B505460E4658
:102E700014460CB9052070BD02232246314628466F
:102E800007F046F9F7E700000146094A1278082AD8
:102E900001D10C200AE0074A054B1B7842F82310A9
:102EA000034A1278521C024B1A700020704700002F
:102EB000512200204C2D0020F8B504460D4602207A
:102EC00000F0AEF808B90220F8BD0CB90520FBE708
:102ED0006946284607F008FA06461EB9BDF8000004
:102EE000208065803046EFE770B50446022000F090
:102EF00097F808B9022070BD0CB90520FBE72088BF
:102F0000022801DD0420F6E720880A4901EB0016BB
:102F100071896088C01C081A08D42188608807F06D
:102F2000D5F9002020806080002500E00425284697
:102F3000E1E700002C2E002070B504460D462A461D
:102F40000021204600F00EF8A068401CA06070BD73
:102F500001468A68C868801A704701468A68C8684E
:102F6000801A704710B583680B4484882340046836
:102F7000E35C137010BDC26883881A4003689954DB
:102F8000C268521CC26070473EB504460C4B6A468C
:102F90000021A01D04F05AFD05465DB9019804F01A
:102FA0002BFE0546012006498988064A02EB0111DD
:102FB000887303E0024800210160416028463EBD5D
:102FC000602200202C2E00200146A1F5404080B256
:102FD00070470146B1F5404F05DB4FF6FE70814268
:102FE00001DC012070470020FCE70000024909785D
:102FF0008143014A117070475022002010B50446E9
:103000002078182802D1FEF737F9207010BD10B5CE
:1030100004462078182802D1FEF72EF9207010BD42
:10302000014604480078084008B10120704700209C
:10303000FCE7000050220020024909780143014AC0
:10304000117070475022002030B504461088C01C13
:10305000984201D90C2030BD0220158848551088AF
:10306000401C10800120158848551088401C108095
:1030700015884C551088401C10800020EBE700009C
:103080002DE9F04106460C4615460027B846862C29
:1030900003D0112C01D0002C35D1862C03D14FF058
:1030A0000008012709E0112C03D14FF00108002787
:1030B00003E014B94FF000080027C5B13A461348A1
:1030C00001783046FEF70AF9424611480178304649
:1030D000FEF704F900220F4801783046FEF7FEF8AB
:1030E00000220D4801783046FEF7F8F80BE03A462A
:1030F000084801783046FEF7F1F842460648017864
:103100003046FEF7EBF8BDE8F08100001522002004
:1031100014220020112200201022002008B5684649
:1031200000F0BAF8009808B1012008BD0020FCE7C3
:10313000F8B505460C4616461F461C48007800F0B8
:10314000010008B90120F8BD2846FEF7D5FF08B9EF
:103150000220F8E70CB90320F5E7C4F30B0008B12F
:103160000620F0E72868A04204D804EB063069681E
:10317000884201D90520E6E70EB90420E3E7684656
:1031800004F060FB08B90720DDE70098476000986D
:103190000560022000990872C4F30F3000998881FD
:1031A0000098068204F016FC0020CCE7682200207C
:1031B00070B505460C46204604F078FB70BD4FF014
:1031C00010204169481C08B1084670474FF08050F4
:1031D00040690003F9E700002DE9F0412B482C4934
:1031E000401A04092948401A0509FFF7E8FF064676
:1031F0002848007800F0010010B10020BDE8F081FF
:10320000002008E0224A02EB00110A6812B14A6865
:1032100002B16D1E401CA042F4D300202BE01C49DB
:1032200001EB00124FF0000CC7B2002117E0DFF8ED
:10323000608008EB0113D3F80080B8F1000F05D0CF
:10324000D3F80480B8F1000F00D007E093F80D80A8
:10325000E04502DD93F80DC0CFB200BF491CA1428A
:10326000E5D30B4901EB07125660117BA6EB013148
:1032700011601668401CA842D1D30648007840F07F
:103280000100044908700020B8E70000A8220020CF
:103290009822002068220020014609B903207047C7
:1032A0000248406E08600020F9E70000682E002008
:1032B0002DE9F84305460C4616461F46DDF82080EA
:1032C0001F48007800F0010010B90120BDE8F88324
:1032D0002846FEF711FF08B90220F7E706B10CB93E
:1032E0000320F3E706F0030010B904F0030008B16F
:1032F0000620EBE72868A04204D804EB8701686841
:10330000884201D20520E1E70FB90420DEE76846D4
:1033100004F098FA08B90720D8E70098C0F80480AC
:10332000009805600120009908720098C660009816
:1033300004610098878204F04DFB0020C6E700007E
:103340006822002070B504461748006E00EB40006C
:10335000154901EBC0051548007800F0020068B17E
:10336000022C02D0032C08D103E0284602F094FC82
:1033700003E0284602F07AFC00BF12E00B48007818
:1033800000F0040068B10948007820F00400074903
:1033900008700548406E20B10846007840F00200F1
:1033A000087004F0D5FA70BD682E00206822002055
:1033B0003EB500BF9DF8000020F00F00401C0090BB
:1033C0009DF8000020F0F0001030009000BF0D22AA
:1033D0001AA168467CDF044600BF254625B100BF20
:1033E0002846FCF78BFF00BF00BF642078DF04464F
:1033F00000BF254625B100BF2846FCF77FFF00BF70
:1034000000BF0020019002900820ADF80400A02029
:10341000ADF806000020ADF808004FF4C870ADF814
:103420000A0001A87ADF044600BF254625B100BF87
:103430002846FCF763FF00BF00BF3EBD4545475F20
:10344000444554454354494F4E00000070B505466D
:103450000DB1012070BD1848007B18B1002016493D
:10346000087301E000F0D4F81348007808281DD252
:10347000DFE800F01C04080C101C141800F03CF8E5
:10348000044615E000F0B2F8044611E000F08EF8B2
:1034900004460DE000F044F8044609E000F01CF991
:1034A000044605E000F028F9044601E00F2400BFBF
:1034B00000BF2046CEE700004C2E00200C480089BB
:1034C000401C0B49088100204880087300BF0CE0B5
:1034D000084901EB0011097809B9012200E0002236
:1034E00003490A310A54411C88B20228F0DB7047B4
:1034F0004C2E00202C2E002010B5084800F032F889
:1035000040B900200549891E08704880486041F68E
:103510001D5010BD00F06AF8FBE700004E2E0020A1
:1035200070B50D4845880D4800EB0510808968B9D5
:103530000A4800EB05100023012241680848FFF704
:10354000F7FD044604200449087002E000F08CF8FE
:103550000446204670BD00004C2E00202C2E00207A
:103560009822002010B501460022002015E00D4BE6
:103570001B5C83B100240B4B1C540B4B03EB00135F
:103580009B8943B9084B03EB00139B7B012B02D1B2
:103590000880012203E0431C98B20228E7DB00BF49
:1035A000104610BD562E00202C2E0020F8B50C48D9
:1035B00044680C4800680B49898800EB81056088E5
:1035C000C01C86B2032006490870002000900846FF
:1035D0003346294642680448FFF76AFEF8BD0000FA
:1035E0004C2E0020582200209822002010B50749B8
:1035F0004888091D04F0D0FA18B1FFF7D7FF044638
:1036000002E0FFF78DFF0446204610BD4C2E00203F
:1036100010B514480078082820D2DFE800F0041F15
:103620001F0A1016171BFFF749FF01200D490870EC
:1036300015E000F06DF802200A4908700FE000F074
:1036400029F806200749087009E000BF072005494E
:10365000087004E001200349087000E000BF00BFCB
:1036600010BD00004C2E002010B505200649087042
:103670000220064988800846002301220168044888
:10368000FFF756FD10BD00004C2E002058220020F0
:10369000982200200D4908680D4949880D4A02EB1F
:1036A00001114968094A116009494988094A02EB30
:1036B0000111486005498988054A5288054B03EB8A
:1036C000021211810221014A918070475822002084
:1036D0004C2E00202C2E002010B506200449087026
:1036E0004988044A02EB0111486802F08DFC10BDC4
:1036F0004C2E00202C2E002010B507200349087006
:103700000020486002F090FC10BD00004C2E00200C
:10371000054A50684288D21C91B2044A92880A44F1
:10372000024B9A80704700004C2E00205822002047
:103730003EB504462088502821D0522802D0542873
:1037400025D103E0A08801F07DF920E006208DF866
:103750000000A08800F0F6FCADF80200A088ADF8EB
:103760000400BDF8020000F04FF9A08800220C49C7
:103770000978FDF7B3FD6846FFF71AF907E0A01DC9
:10378000FEF74CFC10B1A08801F0ACF900BF00BFFF
:10379000FDF726F806F0DEFA04F01EFF3EBD00003D
:1037A000BF2100203EB504466088ADF802002078B5
:1037B00020B101280FD002282BD116E000208DF86F
:1037C00000006846FFF7F4F8608800F0E5FB054666
:1037D00001F038F91DE001208DF80000A088ADF857
:1037E00004006846FFF7E4F813E0207980B16088B0
:1037F00000F0D2FB05464FF6FF70854207D001224C
:10380000054801782846FDF769FD04F0E5FE00BF94
:1038100000BF00BF3EBD0000BF21002010B5044620
:10382000207801280DD1608801F00CF9608800F043
:10383000CFF928B16088012203490978FDF74EFDD0
:1038400000E000BF00BF10BDBF21002010B500F098
:1038500095FDFDF711FD12490870FDF70DFD1149A9
:103860000870FDF709FD10490870FDF705FD0F49C7
:1038700008700B48007818280BD00A4800781828E0
:1038800007D009480078182803D00846007818287F
:1038900001D1032010BD0120054908700020F9E77F
:1038A000BD210020BE210020BF210020C02100201A
:1038B000BC21002010B586B000F0BEF801A8FDF7CD
:1038C0004DFC002412E002A931F8140000F03AFC8B
:1038D0004FF6FF71884207D102A931F81400012286
:1038E00006490978FDF7FAFC601C84B20198A042F1
:1038F000E9D804F071FE06B010BD0000BF21002021
:1039000010B504462078072803D1608801F0EAF852
:1039100000E000BF00BF10BD10B504460B480178A1
:103920002046FDF7C9FC70B100210AE001EB41001F
:10393000074A02EB80004088A04201D1C8B210BD06
:10394000491C0829F2D3FF20F9E70000CF2100200D
:103950006828002010B500240DE004EB4401084A5B
:1039600002EB8101488807490978FDF7A5FC08B9F1
:10397000E0B210BD641C082CEFD3FF20F9E7000073
:1039800068280020CF2100202DE9F04105460F4690
:10399000012000FA05F418480068FCF77DFD064692
:1039A0000EB1BDE8F081154800682040E0B9284616
:1039B00001F0F0FB28B1124800682043104908606C
:1039C00004E00F480068A0430D4908600B480068F8
:1039D00020430A49086000220A4801680648006836
:1039E000FCF730FD064604E004480068A0430349A4
:1039F000086000BFD5E7000088A40200282200204C
:103A000024220020202200201CB50446044903C9BA
:103A1000CDE9000100226946204602F06CFD1CBD84
:103A2000C0A3020010B500F0AFFC012001490870EE
:103A3000002010BDC821002010B54FF6FF7002F025
:103A40003BFC0249088004F0FDFD10BDCA210020A6
:103A50002DE9FC478146484600F074FB05460026E8
:103A600000274FF003084FF0010A4FF6FF70854220
:103A70000CD06A460821284602F006FD04462CB9FF
:103A80000198861D8788D0F8008000BF00BF43469C
:103A90003A4631464846A9DF0446042C01D1112498
:103AA00015E0082C01D1002411E00B2C0FD14FF0B0
:103AB000000A08F0020010B14FF0010807E006B953
:103AC00027B1002600274FF0030800E003240B2C49
:103AD000DDD0BAF1000F00D10B242046BDE8FC87F1
:103AE0002DE9FC478046404600F02CFB07464FF688
:103AF000FF70874203D143F20200BDE8FC874FF01C
:103B000001094FF0000A00BF4FF0000A4A46511C5D
:103B10001FFA81F96B460821384602F0F7FC04468B
:103B200004BB019D032028602A1DA91D40462B6867
:103B3000AADF04462CB90821384602F09DFD044650
:103B40000FE00C2C02D14FF0010A02E0052C00D14D
:103B500000240821384602F073FD064606B103240E
:103B600000BF02E0072C00D10C24BAF1000FCBD12A
:103B700000BF2046C1E700007FB504462078012839
:103B80001BD12079012818D1608802AA012102F0F6
:103B90007BFC054685B902208DF800006088ADF8F1
:103BA000020003A808B1012000E000208DF8040005
:103BB0006846FEF70DFF00BF00BF044800884FF6BF
:103BC000FF71884201D004F03DFD7FBDCA21002075
:103BD0007CB50446204600F0B5FA06466A46012147
:103BE000304602F051FC05460DB100207CBD019825
:103BF0000078FBE770B505464FF6FF7600BF4FF63D
:103C0000FF720A4801882846A7DF044643F20300F2
:103C1000844204D105480088401C0449088043F2CE
:103C200003008442EBD0204670BD0000CC21002070
:103C3000014688884FF6FF72904203D0088808B189
:103C4000012070470020FCE710B5044604F0BEF8E0
:103C500000F0D2F810BD30B595B005460C460020F6
:103C60000D9000BF9DF8340020F00F00401C8DF82F
:103C700034009DF8340020F0F00010308DF834004E
:103C800000BF207B8DF835009DF8360020F006003F
:103C9000801C8DF836001C210EA8FBF7F4FB9DF864
:103CA000380020F0100010308DF8380000200F9000
:103CB000119012900DA813900020149000BF0120C5
:103CC0008DF81E0042F63720ADF81C0000BF002022
:103CD0000690607B8DF81800A07B8DF819009DF888
:103CE0001A0020F00600801C8DF81A009DF81A00BA
:103CF00020F008008DF81A009DF81A0020F010003E
:103D00008DF81A009DF81A0020F00100401C8DF873
:103D10001A00142108A8FBF7B6FB07A8089006A80C
:103D2000099001AA0021284600F012F8ADF82800F9
:103D30000020ADF82A001420ADF82C0001A80C904A
:103D4000E88805F1080308AA0EA9A2DF15B030BD66
:103D50002DE9F0470446894617464FF00008012533
:103D6000607908B148F0040894F8220008B148F0DE
:103D70000208B9F1FF0F08DD48F00108791948463B
:103D800005F0E1FF2844C5B204E02946681CC5B22D
:103D900007F80190B4F84C00002801DD48F0100845
:103DA000002619E094F84E10A81C81420AD2B4F8FB
:103DB0004C00801B420004F1240000EB4601FBF79D
:103DC0003BFB0DE0791904F1240232F8160005F0EE
:103DD000BAFF2844C5B2761CB4F84C00B042E1DC0E
:103DE00000BFB4F84C00801BA4F84C0087F800809A
:103DF0002846BDE8F087000010B511480088401C37
:103E00000F49088008460088642801DD3C200880AE
:103E10000B4801880B48FDF7D7FA044674B1082C0B
:103E20000CD043F20400844208D043F201408442A3
:103E300004D000BF2046FCF761FA00BF10BD0000AF
:103E40005A210020382600203EB504460D46207831
:103E50000221B1EB500F01D000203EBDB4F80100AB
:103E6000ADF80800E0788DF80A00A188ADF80010E0
:103E7000A0798DF8020001AA69462846FCF781F96D
:103E8000032201A902A8FBF710FB08B90120E4E70F
:103E90000020E2E770B506460C463046FFF73CFDD1
:103EA0000546FF2D0CD005EB4500064901EB8000CF
:103EB000416821600189A180807AA071002070BDD5
:103EC0000520FCE76828002070B590B004462088E3
:103ED000102801D010B070BD3422211D03A8FBF7BB
:103EE000ABFA4FF6FF759DF810000321B1EB500FB0
:103EF00035D002F0E5FC9DF81000400820B1012803
:103F000003D0022828D114E000BF09E0019800F195
:103F1000110104A8FBF76CFF10B1BDF8085006E0D2
:103F20006A4602A9072002F09DFC0028EED100BFDE
:103F300013E008E00198411C04A8FFF785FF10B1C9
:103F4000BDF8085006E06A4602A9072002F08AFC84
:103F50000028EFD100BF00E000BF00BF00BFBDF8E8
:103F60000C0004A900F004FF06464FF6FF708542DE
:103F70000FD0BDF80C00294600F088F8BDF80C0001
:103F8000ADF8060001208DF8040001A8FEF730FD11
:103F900000BF00BF9EE70000024600210DE001EBDC
:103FA0004100084B33F82000904205D101EB41005D
:103FB00003EB800040887047491C0829EFD34FF677
:103FC000FF70F8E76828002010B500F0E9F9FDF768
:103FD00053F90649087008460078182801D10320D3
:103FE00010BD0120024908700020F9E7CF21002010
:103FF000CE2100202DE9F04104460D46601C00F062
:104000006BFA10B90020BDE8F0811022691C601C19
:10401000FBF74BFA08B9012000E00020074605F144
:10402000110104F11100FBF7E3FE064607B90EB1DA
:104030000120E8E70020E6E70246108808B10120E9
:104040007047002105E0901C405C08B10120F7E7B3
:10405000491C0829F7D30020F2E770B505460C4645
:104060002846FFF7E9FF08B9002070BD288821889D
:10407000884201D00020F8E70822A11CA81CFBF709
:1040800014FA08B90120F0E70020EEE770B5044605
:104090000D462946204602F025FE70BD30B587B09A
:1040A0000446207810B92079072801D007B030BD28
:1040B000608804AA072102F0E7F9054605B1F5E793
:1040C00002F0FEFB1EE06088BDF81810884200D1A7
:1040D00018E003990598FFF78DFF90B16088FFF70E
:1040E0005BFFADF8020000208DF800006088ADF89D
:1040F0000400BDF81810ADF806106846FEF778FC0D
:1041000007E000BF02AA06A9072002F0ABFB0028C7
:10411000D9D100BF00BFC9E770B506463046FFF7EA
:104120003BFF0446304602F0BAF905464FF6FF70F1
:10413000844204D01DB90146204602F0D3FD284632
:1041400070BD000070B505462846FFF7E5FB044644
:10415000FF2C05D004EB4400034931F8200070BD6A
:104160004FF6FF70FBE70000682800203EB50446CC
:1041700002F0A6FB10E0019800F146012046FFF78F
:104180006CFF30B9019800F12A012046FFF765FF66
:1041900010B1BDF808003EBD6A4602A9072002F032
:1041A00061FB0028E7D14FF6FF70F4E72DE9F041FD
:1041B00006460C460F272EB10120FEF717FF0120FF
:1041C000BDE8F081207930B101280AD0022833D02F
:1041D000032864D13EE001F027FF0746012020714B
:1041E0005EE04FF00008002516E0324800EB0510B5
:1041F000007802280ED12F4901EB0511486801F023
:1042000003FF074600202B4901EB051108704FF012
:10421000010803E0681C85B2022DE6DB00BFB8F19F
:10422000000F08D10220FEF707FF0120FEF7DEFE97
:1042300041F61D50C4E733E01F4800230122016806
:104240001E48FEF775FF074602201B4988800020A4
:10425000207125E01849086801F0D6FE0746184885
:1042600045881548D0F80080124800EB05104068DA
:10427000114908600F4800EB0510C0F8048008469B
:1042800080880C4901EB0511088102200A498880C9
:104290000020084901EB05110870207100E000BF03
:1042A00000BF27B10120FEF7A1FE0E2088E7002005
:1042B00086E700002C2E00205822002098220020A3
:1042C0004C2E0020F8B52748007800B9F8BD00252D
:1042D0002548006808B9012000E00020064600BF1C
:1042E000DDB92248007800B1F0E7684648DF0446AF
:1042F000052C01D101250FE024B100BF2046FBF7BA
:10430000FDFF09E0009800F043FE1948006818B16D
:10431000174900980968884700BFDEB9134800783C
:1043200000B1D3E71348008800906946124800683E
:1043300061DF0446052C01D101260AE024B100BF4B
:104340002046FBF7DBFF04E00B48006806490968DC
:10435000884700BF0DB106B100E0C1E700BF00BF54
:10436000B4E70000802200208C220020812200205F
:104370009022002088220020842200200020014971
:1043800008707047BC2100200020034908704FF6D8
:10439000FF70024908807047C8210020CA21002010
:1043A000182008490870002008E04FF6FF7100EB64
:1043B0004002054B03EB82025180401C0828F4D3D5
:1043C00070470000CF2100206828002010B500248D
:1043D00007E004EB8401044A02EB810005F06DFE66
:1043E000641C082CF5D310BDE828002010B5044645
:1043F00040212046FBF747F810BD00004FF6FF7044
:104400000549088000200549086018200449087003
:104410000449087070470000F8210020F0210020B6
:10442000FB210020FC21002070B504460D462079B8
:104430001D4901EB4010007FF8B14FF488712068EE
:1044400001F07DFA4FF49071206801F078FA4FF492
:104450009271206801F073FA4FF4A271206801F0A4
:104460006EFA1249206801F07AFA206800F0C8FD5F
:104470000646294600F094FD14E04FF48E71206842
:1044800001F02DFA4FF4A271206801F028FA0849D2
:10449000206801F033FA206800F0B2FD0646294694
:1044A00000F07EFD70BD0000002D00201003020012
:1044B0008000020001464888064A1288904206DBC6
:1044C0004888044A5288904201DC0120704700204D
:1044D000FCE70000A02100200246002104E0505C1F
:1044E00008B101207047491C1029F8D30020F9E7D2
:1044F000014601F0030008B9012070470020FCE7E5
:104500000146086808B102680A60704710B50446A1
:104510000448007800F0010018B103480078FDF766
:10452000AFFB10BD68210020602100202DE9F04183
:1045300007460D4690461E462DB92948007810B909
:104540000520BDE8F08135B142460021384604F02F
:104550000DFC044605E042462249384604F006FCBC
:104560000446002221463846FEF78AFD1EB1214648
:104570003846FEF7FBF9112C0DD005DC34B3082CBE
:1045800027D00D2C26D122E0862C12D0A4F5405045
:104590000238F8B91CE02A46134801783846FCF77F
:1045A0009DFE4246114801783846FCF797FE0024EC
:1045B00012E02A460C4801783846FCF78FFE424646
:1045C0000A4801783846FCF789FE05E000BF00BFC5
:1045D00000BF01E0032400BF00BF2046B1E7000098
:1045E0000A2200200522002013220020122200208F
:1045F0002DE9FC4107460E46904626B90021384673
:104600007EDFBDE8FC81307800F0010008B10120B8
:1046100000E0022001903846FFF794FD05464FF672
:10462000FF70854209D001A82B46424631460090D2
:10463000384600F024F8044619E0307800F0010014
:1046400028B13146384600F08EF804460FE0314676
:1046500038467EDF0446002000900CB9012000E0BF
:104660000020024601232946384603F01DFF24B9E5
:104670009DF80410384603F05FFF2046C1E72DE99E
:10468000FF4F85B00F4690461E46DDF84890002546
:10469000AA4603AA0721304601F0F6FE04466CB98B
:1046A000049800F11805049890F8440000F0010AFD
:1046B000BAF1000F02D0049800F13405B8F1000FF0
:1046C00013D194B98DB1BAF1000F04D105F11200E4
:1046D000FFF7B2FC48B12A4605F11201059885DFC3
:1046E0000446002089F8000027E00CB1052C24D1F5
:1046F0000024387800F0010060B101AB01220721ED
:10470000304601F003FF044624B90721304602F089
:1047100035F804461CB9394605987EDF044664B175
:104720000721304601F08CFF8346BBF1000F03D018
:10473000BBF1050F00D0032400BF0020009099F8C2
:10474000000008B1012000E0002003460CB9012060
:1047500000E0002002463146059803F0A5FE204601
:1047600009B0BDE8F08F2DE9FE430746884601F009
:1047700087FE05464FF6FF7085421CD001AB012233
:104780000721284601F0C2FE044624B90721284625
:1047900001F0F4FF04461CB9414638467EDF04466A
:1047A00054B10721284601F04BFF064616B1052EED
:1047B00000D0032400E003244FF6FF70854201D0AF
:1047C000012000E0002000900CB9012000E0002052
:1047D000024601232946384603F066FE2046BDE81E
:1047E000FE8300002DE9F04107460C4615461148AE
:1047F00001783846FCF760FDD0B13846FFF7A2FCDF
:1048000006464FF6FF70864211D00B4801783846B5
:10481000FCF752FD30B12B4622463146384601F0B6
:10482000ADFC04E02A4621463846FDF737FF00BFBD
:10483000BDE8F081FE210020FF2100202DE9F04796
:1048400086B005462846FCF729FD8046404603F021
:104850009DFC58B301A8FCF781FC002422E002A9CA
:1048600031F814002946FCF727FD0646CEB102A90F
:1048700031F814000F490978FCF71EFD814602A9A2
:1048800031F814000C490978FCF716FD824602A99C
:1048900031F8140001234A465146FFF747FE074608
:1048A00000BF641C0198A042D9D800BF06B0BDE883
:1048B000F0870000122200201322002070B5044669
:1048C0000D46294620467EDF0646304670BD000074
:1048D00070B51C4804781C48066827E019484068F1
:1048E00004EB440100EBC105601CC4B2154880789C
:1048F000A04200D100242878022802D0032812D137
:1049000003E0686804F0A2FC0EE007E00E490868C6
:10491000002101740C4AC169116000BF0A48006897
:104920000028F3D100E000BF00BF00BF0548407879
:10493000A042D3D104480068B04201D0012070BD2C
:104940000020FCE72C220020342200202DE9F04139
:104950000546374807685AE015B12C46E56929E055
:1049600034494968334A127802EB420201EBC20033
:1049700030490978491C2F4A1170114609789278FC
:10498000914202D100212B4A11704468017801291B
:1049900001D1217C01B13AE081686160C168A16008
:1049A0000169E1604169A1612349097809B10021E8
:1049B000616000BF214960680968401A20F07F40AB
:1049C0001F49884208D21D496068096804F0B8FB95
:1049D000A168084420600FE018486168006804F08E
:1049E000AFFB0646A068B04203D9A068801B2060D8
:1049F00001E00020206000BF00206060A060012076
:104A000020740020E061204604F0ECFB00BF002D84
:104A1000A2D1084800780749497888429CD10448C7
:104A20000068B84202D00120BDE8F0810020FBE719
:104A3000342200202C2200204D2200203822002089
:104A4000FFFF7F00FEB5044600264FF6FF7084424C
:104A500000D1FEBD2046FEF7FBFF054645B10B2DFC
:104A600016D0112D12D0A5F540500238F8B91DE02E
:104A700002208DF800002046FFF764FBADF802002D
:104A8000ADF804406846FDF793FF1FE001261DE0E6
:104A900003208DF800002046FFF754FBADF802001C
:104AA000ADF804406846FDF783FF0FE00EE00920F3
:104AB0008DF800002046FFF745FBADF80200ADF889
:104AC000044002956846FDF773FF00BF00BF324601
:104AD000034801782046FCF701FC00BFB9E700005D
:104AE000BE210020FEB5044600262046FEF7F8FF52
:104AF0000546112D1AD003DC4DB10C2D34D117E031
:104B0000862D23D0A5F54050023868BB0DE001206A
:104B10008DF80000ADF804402046FFF713FBADF818
:104B200002006846FDF744FF2DE02CE001262AE054
:104B300007208DF80000ADF804402046FFF702FB87
:104B4000ADF802006846FDF733FF1CE008208DF841
:104B50000000ADF804402046FFF7F4FAADF802007B
:104B60006846FDF725FF0EE009208DF8000020467D
:104B7000FFF7E8FAADF80200ADF804400295684688
:104B8000FDF716FF00BF00BF3246034801782046FC
:104B9000FCF7A4FBFEBD0000BD210020F8B50446D3
:104BA0000D4600262078284080B9002000906846F5
:104BB000FBF728FD2078284018B92078284320707A
:104BC00001269DF80000FBF723FD00BF3046F8BD2D
:104BD00008B5002400BF254625B100BF2846FBF7D5
:104BE0008DFB00BF00BF04F009FC6846FDF7EAF941
:104BF000FCF74AFD9DF8000002F0AEF8FEF7D8FB86
:104C0000FBF754FA03F0EEFDFDF7C6FB04F03AFFA4
:104C1000FBF74CFD0320FCF707F9044600BF2546CF
:104C200025B100BF2846FBF769FB00BF00BF00BFEE
:104C300002F0BCFDFCE72DE9F04105460E461446A6
:104C40009846A888871C2088801C3844404502D993
:104C50000C20BDE8F081FE2F01D90C20F9E7781C6B
:104C6000218870542088401C2080FF2021887054A7
:104C70002088401C208022889119288805F05DF842
:104C8000218808442080A88800280DDDA86808B97C
:104C90000720DEE7AA8823889819A968FAF7CCFBD1
:104CA0002088A988084420800020D2E72DE9F84F09
:104CB00005460F46144698462878012804D168789E
:104CC00010B90720BDE8F88F2088801C404508D81F
:104CD0002878012807D12088801C6978084440453D
:104CE00001D90C20EEE72088A8EB0000801E86B2D8
:104CF00000962188891CC81969467DDF814600BF5E
:104D0000B9F1000F01D04846DCE700BF287802283F
:104D100006D1BDF80000B04202DC4FF0090A0BE0FA
:104D20004FF0080A2878012805D16878B04202DCE3
:104D30006878009000E00096BDF80000FE2801D9D8
:104D40000C20BFE7BDF80000401C21887854208863
:104D5000401C2080208807F800A02088401C20806C
:104D60002088BDF80010084420800020AAE7000039
:104D700070B505460E46FF2466B34FF6FF708542B8
:104D800028D00122144801782846FCF7A7FA2846C3
:104D9000FEF7C2FD0446FF2C02D1FEF7DBFD044600
:104DA000FF2C17D004EB44000C4901EB8000458038
