:020000040001F9
:10F000003852002015F401001DF401001FF4010026
:10F0100021F4010023F4010025F4010000000000A8
:10F0200000000000000000000000000027F40100C4
:10F0300029F40100000000002BF401002DF4010070
:10F0400029F801002FF401005D0202002FF40100F5
:10F050002FF401002FF4010055F50100A9FA010079
:10F06000450202002FF401002FF401002FF40100EB
:10F070002FF401002FF401002FF401002FF4010000
:10F080002FF4010075FA01002FF401002FF40100A4
:10F09000AFFF01002FF40100B9FF01002FF40100C0
:10F0A0002FF401002FF401002FF401002FF40100D0
:10F0B0002FF401002FF40100000000000000000008
:10F0C0002FF401002FF401002FF401002FF40100B0
:10F0D0002FF401002FF401002FF4010000000000C4
:10F0E0000000000000000000000000000000000020
:10F0F0000000000000000000000000000000000010
:10F1000000000000000000000000000000000000FF
:10F1100000000000000000000000000000000000EF
:10F40000DFF80CD000F068F80048004739560200D9
:10F41000385200200648804706480047FEE7FEE7CE
:10F42000FEE7FEE7FEE7FEE7FEE7FEE7FEE7FEE7B4
:10F43000F9FF010001F4010010B5431A934209D20B
:10F440008318881803E010F8011D03F8011D521EEF
:10F45000F9D210BD40EA01039B0703D009E008C9B7
:10F46000121F08C0042AFAD203E011F8013B00F889
:10F47000013B521EF9D210BDD2B201E000F8012BBF
:10F48000491EFBD270470022F6E710B513460A4624
:10F4900004461946FFF7F0FF204610BD421C10F845
:10F4A000011B0029FBD1801A704730B504460020AB
:10F4B000034600E05B1C934203D2E05CCD5C401B42
:10F4C000F8D030BD034611F8012B00F8012B002ABB
:10F4D000F9D1184670470000064C074D06E0E06879
:10F4E00040F0010394E8070098471034AC42F6D38B
:10F4F000FFF78AFF20BE020040BE020070B58C18E4
:10F5000010F8015B15F0070301D110F8013B2A1137
:10F5100006D110F8012B03E010F8016B01F8016B24
:10F520005B1EF9D12B0705D40023521E0DD401F820
:10F53000013BFAE710F8013BCB1A921C03E013F8E9
:10F54000015B01F8015B521EF9D5A142D8D300201E
:10F5500070BD00002DE9F04F89B04FF00008002089
:10F5600008904FF4807007900126002413E007985C
:10F5700007F012F948B100BF81480068304020B15F
:10F58000079807F0FBF848EA060876000798001D80
:10F5900080B20790641C082CE9D34FF4BE7007F0CA
:10F5A000FBF850B14FF4BE7007F0E8F848F000489F
:10F5B00008AA0121002007F0C7F808F0FF0000B3F7
:10F5C000012600241BE006EA0800B0B100BF6D4828
:10F5D00050F82400C0F30420074600BF694850F8E3
:10F5E0002400C0F301408146204603F077F9054628
:10F5F00015B149463846A84700BF7600641C082C60
:10F60000E1D308F0004000287ED00020069005904D
:10F61000002505E04FF0FF3004A941F825006D1CDE
:10F62000002DF7D000BF0020069000246FE0564860
:10F63000005D0390039820F0C00753480057401C1A
:10F64000002863D004A9384606F038F900285DD0B8
:10F6500003984FEA901A384603F088F9814603F080
:10F660003DF90290029810B9BAF1030F4BD1BAF1EB
:10F67000030F11D1394605A80246CB0801F0070156
:10F6800012F803C04FF0010E0EFA01FE4CEA0E0C08
:10F6900002F803C000BF00BF00BF00BF4FF0A04191
:10F6A000084600F5E06151F82710C1F3014900BF99
:10F6B00008A9384606F002F98346BBF1000F02D0D4
:10F6C000B9F1020F05D0BBF1000F1BD1B9F1030F47
:10F6D00018D1BAF1030F0FD1B9F1020F01D10320F4
:10F6E00000E0022001903846019906F0DFFF0698FD
:10F6F000401CC0B2069000BF029818B1514638466F
:10F70000029A904700BF00E036E000BF641C042C62
:10F710008DD3069858B3012703AA0121002007F0D2
:10F7200013F800250AE003A850F8250008A951F8AD
:10F730002510884201D0002702E06D1C002DF2D078
:10F7400000BF17B10020069010E000250CE003A8D0
:10F7500050F8250008A941F8250005A850F8250013
:10F7600004A941F825006D1C002DF0D000BF0698BB
:10F7700000287FF458AF00BF09B0BDE8F08F00004B
:10F7800004630040106500403C2F002000F01F0281
:10F7900001219140024A430942F8231070470000BA
:10F7A00080E200E000F01F0201219140024A43097B
:10F7B00042F823107047000080E100E000F01F02D3
:10F7C000012191404209920002F1E022C2F80011A9
:10F7D000704700F01F02012191404209920002F19E
:10F7E000E022C2F80011704700F01F020121914091
:10F7F000024A430942F823107047000000E200E08B
:10F8000010B5002807DA4A07140E054A00F00F0366
:10F810001B1FD45403E04A07130E024A135410BDB1
:10F8200018ED00E000E400E010B54FF4807006F041
:10F8300050F860B14FF4807006F054F8012006F0E3
:10F840005BF801200B494870002003F01BF94FF4CE
:10F85000827006F03EF858B14FF4827006F042F81C
:10F86000022006F049F801200249887003F00AF9E5
:10F8700010BD0000D82E002070B506467048066006
:10F8800070480068801C6F490860084600686E492F
:10F890000968451A6A4800686C490968884212DAA2
:10F8A0006B480068052190FBF1F000EB4000A84296
:10F8B00009DA6348006867490968884203DA6048E2
:10F8C0000068644908605E480068604909688842C9
:10F8D00009DD5B48006860490968884203DD5848D3
:10F8E00000685D490860FA2D68DD55480068574991
:10F8F0000968884262DD5948007800285ED1544882
:10F900000068052190FBF1F000EB4000A84255DAB9
:10F910000120524908704B4800684B490968401A59
:10F920004B49086047480068474908604C480078E0
:10F9300018B100204A49087070BD4A48007860B18B
:10F9400000204849087000BF05E041490968464A5F
:10F9500042F82010401C0628F7DB002400200AE0B3
:10F96000414A411C52F8211042F82010114651F82A
:10F9700020100C44401C0428F2DD354800683A4948
:10F980004861084640690444062094FBF0F44EF6B2
:10F99000602090FBF4F0354908600846006837287D
:10F9A00008DD08460068872804DA2948006809F05D
:10F9B000F3FA02E000202D49086000BF20480068EB
:10F9C0002249096888421EDA2448007801281AD1A1
:10F9D000002022490870204800681E490968401A22
:10F9E00023490860086800EBD0711A4A126802EBDC
:10F9F0006101164A116010460068174908601046F8
:10FA000000681449086040F6C410854216DD0020E5
:10FA1000164908604FF400600C49086000200E4948
:10FA200008604FF480500B4908600648006806499A
:10FA3000086001200A4908700A49087000BF7BE786
:10FA400044210020802100208421002090210020DA
:10FA5000482100208C210020882100204C210020FA
:10FA600098210020992100203028002040210020EA
:10FA70009421002010B500200949086000210948A0
:10FA8000C0F84411C0F84811C0F84C1100200549D5
:10FA9000C1F8000102493C3908600BF04BF810BD79
:10FAA0004011014000100140FEB54FF4827006F095
:10FAB000D1FE002835D04FF4827006F0D5FE79488B
:10FAC00090F82B0018B1774890F82C0048B300202C
:10FAD0008DF8000073484068019072480189ADF8C4
:10FAE0000810C06820B900206E4981F829000FE095
:10FAF0006C48C0686B4948600846808A08810020CD
:10FB0000C860084690F82B0010B9002006F0C4FE2B
:10FB100064480168684688470020624981F82C00E3
:10FB200000BF604890F82B0000286CD04FF4807024
:10FB300006F090FE002866D04FF4807006F094FE28
:10FB40005848C08AB0B957480089564991F82A10D8
:10FB5000401A5449C8820A4612890B46DB8AD21AD7
:10FB60000B465B6803EB42000A4692F82A1006F047
:10FB700025FE41E04B48C08A4A4991F82A10884244
:10FB800016DD4848C08A474991F82A10401A45496D
:10FB9000C8820A4612890B46DB8AD21A0B465B687A
:10FBA00003EB42000A4692F82A1006F007FE23E013
:10FBB0003C48C08A3B4991F82A1088420FD1394805
:10FBC000C06860B10120374981F82C000020C8824C
:10FBD0000A4692F82A10D06806F0F0FD0CE0314891
:10FBE000C08A304991F82A10884205D101202D4958
:10FBF00081F82C000020C8824FF4827006F034FE99
:10FC0000042006F049FE4FF4887006F023FE78B118
:10FC10004FF4887006F028FE0020224981F8290060
:10FC200002208DF80000084601686846884700BF3A
:10FC30004FF48A7006F00EFE40B14FF48A7006F061
:10FC400013FE0020174981F829002AE015480569AC
:10FC500024E0B5FA85F64FF00040F0408543B0004F
:10FC600000F58C74204606F0F5FDB8B1204606F08C
:10FC7000FBFD01208DF80000A4F58C70C0F3C700D7
:10FC80008DF80400A4F58C70012121EA90018DF813
:10FC90000510044801686846884700BF002DD8D188
:10FCA00000BFFEBD642F00202DE9FC4104460D4637
:10FCB000164600BF0C48007808B900F0E1FA00BF12
:10FCC000002001900090684601F0C6F832462946AF
:10FCD000204600F00BF8074600BF9DF8000001F039
:10FCE000C1F83846BDE8FC81C03100202DE9F0475D
:10FCF000074688461646C24607EB47011B4800EBFD
:10FD0000C109D9F8140020B1012811D0022826D148
:10FD10001EE0484600F0EAFA0546B54201D200244A
:10FD200005E0344632465146484600F034FC18E0BF
:10FD3000484600F0DBFA0546B54201D2284600E00D
:10FD40003046044622465146484600F024FC08E06E
:10FD500032465146484600F0E5FB044601E00024E7
:10FD600000BF00BF2046BDE8F0870000D83100206A
:10FD700070B505460C462046FFF790FB0646324616
:10FD800021462846FFF790FF70BD0FB438B50446F2
:10FD900006A800906A462046059900F003F838BC92
:10FDA0005DF814FB2DE9F04F99B082460D461446DC
:10FDB00003A814904020159000201690CDF860A064
:10FDC000179000BF2E786D1C06B9DDE0252E79D185
:10FDD00000274FF0010900BF2E78232E12D02B2EC2
:10FDE0000CD02D2E02D0302E10D103E047F00107A9
:10FDF0006D1C0EE047F002076D1C0AE047F0040797
:10FE00006D1C06E047F008076D1C02E04FF000098A
:10FE100000BF00BFB9F1000FDED14FF0000800BFF6
:10FE20002E78302E01DB392E00DD07E06D1CA6F1A7
:10FE3000300008EB880100EB4108F1E700BF00202B
:10FE400013902E782E2E12D16D1C00BF2E78302EDE
:10FE500001DB392E00DD09E06D1CA6F1300013999D
:10FE600001EB810100EB41001390EFE700BF2E781A
:10FE700000BF6C2E01D0682E02D12E786D1C00E0E0
:10FE800000E0F6E700BF702E5DD008DC252E6AD0BA
:10FE9000582E35D0632E09D0642E69D113E0732E0D
:10FEA0003CD0752E1DD0782E62D128E02168081D27
:10FEB0002060D1F8009009F0FF0B594614A800F01B
:10FEC0000FFB56E058E02168081D2060D1F8009033
:10FED000CDE900870A22494614A8139B00F014FAC2
:10FEE00047E02168081D2060D1F80090CDE9008727
:10FEF0000A22494614A8139B00F07CFA39E000BF9F
:10FF00002168081D2060D1F80090CDE900871022FB
:10FF1000494614A8139B00F06DFA2AE02168081DD9
:10FF20002060D1F800B000BF9BF800600BF1010B1E
:10FF300006B906E0314614A800F0D2FA1798002856
:10FF4000F2DA00BF15E02168081D2060D1F80090AA
:10FF5000002008210B461022CDE90010494614A8C4
:10FF600000F048FA05E0252114A800F0B9FA00E0F5
:10FF700000BF00BF6D1C03E0314614A800F0B0FACA
:10FF800017980028BFF61EAF00BF179800280ADD9B
:10FF9000169820B103A95046169AFFF785FEDDE9B1
:10FFA000161008441790179819B0BDE8F08F10B5D7
:10FFB0000AF0B2FB10BD000070B50A48006868B1D5
:10FFC000084800688047044600BF254625B100BFA9
:10FFD000284600F0BDFD00BF00BF01E004F0A6FD13
:10FFE00070BD0000D8220020014802490860704717
:10FFF0000090D003F022002010B502F0DBFF10B11A
:020000040002F8
:1000000082488349486702F0EDFF28B181480068C3
:10001000C0F342308049086003F00EF828B17F48F1
:10002000006820F080707D49086003F01DF848B139
:1000300000207B4908604FF08041C1F810017649EB
:10004000091F086003F03AF818B1032072496431BF
:10005000086003F04BF868B1052072490860012080
:1000600070497831086000206E49083108603F20EF
:10007000091F086003F052F8002855D06A4800684C
:100080006A4908606848001D0068091D08606648E4
:1000900008300068091D086063480C300068091DBD
:1000A0000860614810300068091D08605E4814301F
:1000B0000068091D08605C48183000685B49203101
:1000C000086059481C300068091D086056482030F7
:1000D0000068091D0860544824300068091D086044
:1000E000514828300068091D08604F482C300068CE
:1000F000091D08604C48303000684C4940310860A8
:10010000494834300068091D0860474838300068A5
:10011000091D086044483C300068091D08604248D9
:1001200040300068091D086002F01AFF30B13948FC
:100130001430006800F04F003D49086037487438BB
:10014000006840F4700035497439086000BF00BF92
:1001500000BFBFF34F8F00BF00BF00BF00BF00BF95
:1001600000BFBFF36F8F00BF00BF00BF3148006802
:1001700000F0004030B92F48001D006800F000403A
:10018000002840D001202C49086000BF2B4800689F
:100190000028FBD015202749086000BF27480068C9
:1001A0000028FBD015212348001D016000BF234813
:1001B00000680028FBD000201F49086000BF1F48CE
:1001C00000680028FBD000BF00BF00BF00BF00BF19
:1001D000BFF34F8F00BF00BF00BF1048F03800686A
:1001E00000F4E06016490843001D0C49F03908602E
:1001F00000BF00BF00BFBFF34F8F00BF00BF00BFF5
:1002000000BF00BFFDE7FFF7EFFE10BD0DF0ADBA78
:1002100000C00740440200103C050040FCED00E037
:100220000C010040105600400404001020C500409E
:10023000E40E00400012001004E5014000E401401B
:100240000000FA0510B504220249034804F0FCFD41
:1002500010BD0000942F00200080004010B506481B
:10026000007F20B1044905480BF003F903E002497F
:1002700002480BF05DF810BD442F00200020004024
:1002800010B5114C02202061606110A0A0611249DC
:10029000E161402121620021A1626162E1620BA063
:1002A000A0640E49E164102121650021A16561650A
:1002B000E1650BA1E01DFFF705F90AA12046FFF754
:1002C00001F92020A07110BDC03100205465726D6D
:1002D000696E616C0000000070310020B0310020B8
:1002E00052545400534547474552000010B501464B
:1002F0000A69CB689A4204D88C68641EE41AA01874
:1003000001E0D41A601E10BD2DE9FC5F06460F46C1
:1003100092469846DDE90C45002F01DA784200E06C
:10032000384683464FF0010903E09BFBFAFB09F1D5
:100330000109D345F9DAC84500D9C14634B1002FC7
:1003400003DB05F00400042800D1641E05F0020060
:1003500010B1B8F1000F11D005F0010070B96CB107
:1003600008E0641E2021304600F0BAF8F06800284A
:1003700000DA02E00CB1A145F3D300BFF068002819
:1003800036DB002F05DA7F422D21304600F0A8F839
:1003900007E005F00400042803D12B21304600F0CB
:1003A0009FF8F068002823DB05F00200022814D132
:1003B00005F0010088B9B8F1000F0ED16CB108E06A
:1003C000641E3021304600F08BF8F068002800DA17
:1003D00002E00CB1A145F3D300BFF068002807DBB1
:1003E0004346524639463046CDE9004500F002F812
:1003F000BDE8FC9F2DE9FC5F8046894615461E46F8
:100400000C9CCDF804900127BB4605E00198B0FB99
:10041000F5F001900BF1010B0198A842F6D25E4570
:1004200000D9B3460D9800F00100D0B9CCB10D98B9
:1004300000F00200022803D116B93020009001E03C
:100440002020009009E0641E4046009900F048F822
:10045000D8F80C00002800DA02E00CB1A345F2D372
:1004600000BFD8F80C00002835DB09E0012E01D9C7
:10047000761E04E0B9FBF7FAAA4500D201E06F430B
:10048000F4E700BF00BFB9FBF7FA0AFB179913485E
:1004900010F80A10404600F023F8D8F80C000028A5
:1004A00000DA03E0B7FBF5F7002FECD100BF0D98A1
:1004B00000F0010078B174B109E0641E20214046CB
:1004C00000F00EF8D8F80C00002800DA02E00CB1B9
:1004D000A345F2D300BFBDE8FC9F000010BE0200A0
:1004E00070B504460E46A568681C6168814206D353
:1004F00020684655681CA060E068401CE060D4E9B4
:10050000011088420DD1A26821682069FFF7CCFB59
:10051000A168884203D04FF0FF30E06001E0002086
:10052000A06070BD2DE9F0470446894617464FF09C
:10053000000AE56800BFD4F81080A84503D9A8EBED
:100540000500461E04E0A5EB0800401CA1680E1A39
:10055000A068401BB04201D9304601E0A068401BB2
:100560000646BE4201D2304600E038460646616883
:10057000481932464946FEF75FFFB244B144BF1BFB
:100580003544A068A84200D10025E560002FD2D1F3
:100590005046BDE8F0872DE9F047044689461546E8
:1005A000E668A068871BAF4208D9616888192A46A7
:1005B0004946FEF741FF7019E06010E0B8466168F7
:1005C000881942464946FEF737FFA5EB070809EBB5
:1005D000070142466068FEF72FFFC4F80C80BDE8B3
:1005E000F08702E008C8121F08C1002AFAD170473C
:1005F0007047002001E001C1121F002AFBD17047A3
:100600000146202908DA012088400A4A104008B132
:10061000012070470020FCE7402909DAA1F1200001
:10062000012202FA00F008B10120F2E70020F0E711
:100630000120EEE7FC06FFBC00BFEFF31081084687
:1006400072B6704770B505460C4605B10CB900206E
:1006500070BD287840082178B0EB510F01D0002000
:10066000F6E70622611C681CFEF71FFF08B901208F
:10067000EEE70020ECE70246002104E0505C08B100
:1006800001207047491C0629F8D30020F9E7000033
:1006900010B504466CB108480068A04209D8064865
:1006A0004068A04205D3204604F042FC08B1012076
:1006B00010BD0020FCE70000F42200202DE9FC41E1
:1006C000044688461646002537880020308094F876
:1006D0002D0058B13A463146404601F019FA054618
:1006E00000BF15B12846BDE8FC8100BFA07850B11D
:1006F0003A463146404600F0D9FB054600BF0DB1F1
:100700002846F0E700BFE07860B1E17848B23B46A8
:100710003246414603F0D8F8054600BF0DB12846E1
:10072000E1E700BF606868B1616891F900003B468D
:10073000324641460AF0D2FB054600BF0DB12846BD
:10074000D1E700BF208900280EDD434606220221A2
:1007500004F10800CDE900670AF0D4FF054600BFA8
:100760000DB12846BFE700BF208A00280EDD4346B2
:100770000722032104F11000CDE900670AF0C2FF4F
:10078000054600BF0DB12846ADE700BF208B00280D
:100790000EDD43461522142104F11800CDE900674F
:1007A0000AF0B0FF054600BF0DB128469BE700BF29
:1007B000206A58B13B4632464146206A02F0EFF9C2
:1007C000054600BF0DB128468DE700BF606A58B1ED
:1007D0003B4632464146606A04F082FF054600BF50
:1007E0000DB128467FE700BF94F82C0000280BDDF0
:1007F0003B4632464146204609F094F9054600BF83
:100800000DB128466FE700BF207858B13B4632460D
:100810004146204604F09FFF054600BF0DB1284623
:1008200061E700BF28465EE770B504461448FFF74D
:1008300022FF0546012C06D0022C0BD0032C10D031
:10084000042C1AD113E00F48407810B10DB10120EB
:1008500070BD00BF0B48807810B10DB10220F7E7E2
:1008600000BF0848C07808B10320F1E700BF054881
:10087000007908B10420EBE700BF0020E8E70000A2
:10088000D5210020882900200146481C052290FB24
:10089000F2F302FB1300C0B270470146C87800F0C3
:1008A000040008B9072070470020FCE710B50122BA
:1008B0000221002001F01CFD044600BF1CB1072CE2
:1008C00001D0204610BD00BF07220221012001F007
:1008D0000FFD044600BF1CB1072C01D02046F1E7F4
:1008E00000BF0A220021084601F002FD044600BFB5
:1008F0001CB1072C01D02046E4E700BF0020E1E74F
:1009000030B5AFB03C2120A8FEF7BDFD01208DF829
:10091000800003208DF8810001208DF882000620E0
:100920008DF883000420ADF890001C4920A8416197
:10093000202118A8FEF7A7FD01208DF863004FF4D1
:1009400096701C90B4201D90142215A101A8FEF7EA
:1009500073FD5920ADF8180001A908911420ADF8D5
:100960001C003C2109A8FEF78EFD00208DF8240014
:1009700006A8129000200F4B18AA09A9009020A8E1
:1009800000F060FD044600BF254625B100BF2846A3
:1009900000F0DEF800BF00BF2FB030BD9C2100206A
:1009A000436865727562696D696E6420476F676739
:1009B0006C6573004D6B020070B5032000F03CFEC7
:1009C000044600BF254625B100BF284600F0C0F808
:1009D00000BF00BF70BD70B58CB004460D46164612
:1009E000002005E0C0F10F01615C0DF80010401C13
:1009F0001028F7D30D2104A8FEF745FD002005E0DF
:100A00002A5CC0F10F0304A9CA54401C0328F7D381
:100A1000684643DF002005E0C0F10F0208A9895CA9
:100A20003154401C0328F7D30CB070BD10B50446F8
:100A3000022001F0E7FA10BD10B5002407E00749D5
:100A4000096811F83400012105F038F8641C0448E5
:100A500000788442F3D3002010BD000074220020EF
:100A6000782200202DE9F84306460C461746052F4C
:100A700002D20720BDE8F88305F01EF938B905F069
:100A8000EBF8054600BF0DB12846F3E700BF164856
:100A90000660164804701648076000201549086073
:100AA0001549086015E006EBC4081448006800907A
:100AB00098F802008DF8010098F80000104A694685
:100AC00005F052F8054600BF0DB12846D2E700BF39
:100AD00000BF201EA4F10101CCB2E4D1094A0021DB
:100AE000094800F075F8C5E774220020782200203C
:100AF0007C2200208022002084220020D8BD020019
:100B000009420200092E0200D4BD020000BF00BF4E
:100B100000BF00BF00BFBFF34F8F00BF00BF00BFCB
:100B20000948006800F4E06008490843001D0649D0
:100B3000086000BF00BF00BFBFF34F8F00BF00BF02
:100B400000BF00BF00BFFDE70CED00E00000FA05AC
:100B50003EB50446002000900190029002946A463F
:100B6000002144F20100FFF7D1FF3EBD70B50446FD
:100B70000D46204602F031FE28B12946204602F0FB
:100B80001BFE002070BD0520FCE7034609B90E20BE
:100B9000704712B1501E104008B10920F8E71960E3
:100BA000501E988000209860D86000BFF0E770B5B4
:100BB00004460D46204602F010FEA188884205D862
:100BC0002946204602F017FE002070BD0420FCE7F5
:100BD00010B503460C4600BF0B48406808B9082012
:100BE00010BD00BF0AB90720FAE70BB90720F7E7E5
:100BF0001868007C08B10820F2E719680020087422
:100C00004C744A6100BFEBE7882200202DE9F041D7
:100C100007460D4614461E46204600F0030109B95A
:100C2000012100E0002111B90720BDE8F0810CB9D5
:100C30000720FAE708F0E8F911480660002011499A
:100C40000870487008468570446000200E490860AE
:100C50000E4908700E4908701420FEF797FD072111
:100C60001420FEF7CDFD1420FEF7A8FD384608F04D
:100C7000A1F908F099F9074908600020D5E70000BC
:100C8000A42200208822002090220020A022002000
:100C9000A1220020942200202DE9F04104460E46B6
:100CA0001746254600BF1048406810B90820BDE827
:100CB000F08100BF0CB90820F9E7052E01D207200A
:100CC000F5E7686908B90820F1E7687C012801D1D7
:100CD000304600E0002080463B46424631462846EA
:100CE00009F0B4FDE3E700008822002070B5044657
:100CF000254600BF0848406808B9082070BD00BFFD
:100D00000CB1686908B90820F8E7002028740221AE
:100D1000284609F0EEFEF1E7882200202DE9F04197
:100D200004460F48077821460E48FFF71FFF80460C
:100D300097B100200A49087001220B490B4805F0C1
:100D400035FA054600BF2E4626B100BF3046FFF7F4
:100D5000FFFE00BF00BF00BF4046BDE8F0810000BD
:100D6000D622002050310020D5220020C8220020A9
:100D70002DE9F04188B004460D46174698462E48A6
:100D800007601DB9072008B0BDE8F081A88882B2CD
:100D90002A482968FFF7F9FE064600BF0EB1304623
:100DA000F1E700BFA88982B22548A968FFF7EDFEE8
:100DB000064600BF0EB13046E5E700BF20222149BC
:100DC0006846FEF739FB60690690207C08B1012077
:100DD00000E000208DF814008DF81C80607C08B1C4
:100DE0000E2000E000208DF81500E0680290A06859
:100DF00003902068019060680090134A6946134888
:100E000005F092F9064600BF0EB13046BBE700BFC1
:100E100000200F4908702068401C58B19DF81D0043
:100E200010B90A4805F02CFA01220A49074805F0D2
:100E3000BDF9A8E70020A6E7D0220020503100200D
:100E400060310020F0BD020001B20200C822002083
:100E5000D6220020D522002010B50446204608F0F6
:100E600047FB10BD70B5044625460E488068B0B1FA
:100E7000ADB9FFF7E1FB06460A4800680A49086079
:100E8000084840684FF0E021C1F8040100200549FE
:100E900088601EB900BF62B600BF00BF00BF00BFC0
:100EA00070BD0000C02F002000E100E0F8B505464D
:100EB0000C4617462088001DB84201D90C20F8BD09
:100EC000684679DF064600BF0EB13046F7E700BF3F
:100ED0000320218868542088401C20801920218804
:100EE00068542088401C208020884119BDF80000EB
:100EF0000AF04BFB2188084420800020DFE7000037
:100F000070B500224FF420510F480068FFF7C4FE6F
:100F1000044600BF254625B100BF2846FFF718FE4E
:100F200000BF00BF00224FF4006108480068FFF7CF
:100F3000B3FE044600BF254625B100BF2846FFF793
:100F400007FE00BF00BF70BDA4BB0200A8BB02002B
:100F500070B505460C462068401C28B1206805F095
:100F6000CAFB206805F07DFB6068401C18B10021B9
:100F7000606805F069FB28792D4901EB4010007F7E
:100F800050B32868A169C0F8241500BF617D227D97
:100F9000286841EA0203C0F86C3500BFD4E90012AA
:100FA000286805F0F9FC207D01283FD1A068401C8D
:100FB00018B10021A06805F047FBE068401C28B18B
:100FC000E06805F098FBE06805F04BFBD4E90221EE
:100FD000286805F0CDFC29E02868A169C0F824152F
:100FE00000BF617D227D286841EA0203C0F86C35AC
:100FF00000BFD4E90012286805F0A1FC207D01287B
:1010000014D1A068401C18B10021A06805F01CFB99
:10101000E068401C28B1E06805F06DFBE06805F071
:1010200020FBD4E90221286805F072FC70BD0000A5
:10103000442F002030B58BB01348007800F036FD07
:101040000546284608F088FAD8B101A800F08EFCC1
:10105000142201A906A8FEF7EFF900240DE007A964
:1010600031F814000849097800F02EFD20B107A9D5
:1010700031F8140004F01AFA641C0698A042EED865
:1010800000BF0BB030BD00000E2200200146034817
:10109000084008B9012070470020FCE700C0F0FFBD
:1010A00010B50446637903F003022179208804F027
:1010B000CDF810BD10B50446207918B9204600F0CF
:1010C00007F803E02046FFF7EBFF00BF00BF10BDAD
:1010D0002DE9F04188B004460025208800F0B8FCD6
:1010E0000746208803F062FC0646A0680790607AF5
:1010F0000690208800222349097800F0F7FC17B9F0
:1011000008B0BDE8F0816079C0F3800090B107219C
:10111000304606F097FB0546BDB108208DF800006B
:101120002088ADF80200ADF804600295684602F030
:10113000C3F80AE020881449097800F0C5FC20B102
:10114000304603F01DFC804600BF03208DF80C00E4
:101150002088ADF80E006079C0F380008DF8100093
:10116000A079C0F380018DF811109DF81C108DF846
:1011700012109DF818108DF8131003A802F09CF8B7
:1011800000BFBDE74E22002050220020F0B591B0F4
:1011900004460D46207DD8B10020099000BF9DF87F
:1011A000240020F00F00401C8DF824009DF824003E
:1011B00020F0F00010308DF8240000BF687B8DF81F
:1011C00025009DF8260020F00600801C8DF82600E2
:1011D0001C210AA8FEF757F99DF8280020F002000C
:1011E000801C8DF82800207D08B1012000E000203F
:1011F0009DF8281060F304118DF8281000200B9042
:101200000D900E90207D08B109A800E000200F90FD
:101210000020109000BF01208DF80E0042F619202A
:10122000ADF80C0000BF00200290A87B8DF80800EC
:10123000E87B8DF809009DF80A0020F00600801C6C
:101240008DF80A009DF80A0020F008008DF80A00C9
:101250009DF80A0020F010008DF80A009DF80A00A1
:1012600020F001008DF80A00287B0190142104A8C9
:10127000FEF709F903A8049002A805900120ADF833
:1012800018000020ADF81A000120ADF81C0001A8DC
:101290000890A088A31D04AA0AA9A2DF064616B1D9
:1012A000304611B0F0BDA868002855D000BF01201D
:1012B0008DF80E0042F60810ADF80C0000BF0020BB
:1012C0000290287C8DF8080000BF9DF8090020F0EE
:1012D0000F008DF809009DF8090020F0F0008DF84E
:1012E000090000BF9DF80A0020F00600801C8DF860
:1012F0000A009DF80A0020F008008DF80A009DF809
:101300000A0020F010008DF80A009DF80A0020F075
:1013100001008DF80A006846A96800F082FD0746C2
:10132000142104A8FEF7AFF803A8049002A80590C2
:10133000ADF818700020ADF81A00BDF81800ADF82F
:101340001C00CDF820D0E08804F10E0204A9A3DF30
:1013500006461EB13046A4E70020E0810020A0E749
:1013600010B50E480078401C0C49087008460178FA
:101370000B4800F015FA044674B1082C0CD043F267
:101380000400844208D043F20140844204D000BFEC
:101390002046FFF7DDFB00BF10BD0000AC210020A0
:1013A0004828002010B50446FFF7DAFF10BD2DE9EC
:1013B000F04192B080460D461F2011901090B8F178
:1013C000000F17D04046FFF768FA044600BF1CB173
:1013D000204612B0BDE8F08100BF11AA08A940461E
:1013E000FFF76CF9044600BF0CB12046F1E700BFDF
:1013F00008AE02E0002600201190ADB1284609F0A9
:1014000053F8044600BF0CB12046E2E700BF10AA23
:1014100069462846FFF752F9044600BF0CB1204642
:10142000D7E700BF6F4602E0002700201090BDF80C
:101430004000C3B2BDF84400C1B23A46304672DF44
:10144000C7E700002DE9F04704460F4615461E4643
:10145000DDF8208004B115B90E20BDE8F087012029
:10146000484908700020484908702022294647480A
:10147000FDF7E2FF464806604648C0F800804FF698
:10148000FF704549088045480021016081808171D5
:101490003C214348FDF7F7FF207841490870A078C8
:1014A0008870E078C87060784870D4E90402C1E9B7
:1014B00004020846D4E90212C0E90212D4E9061275
:1014C000C0E90612606AD8B13648354948623649E3
:1014D0008160606A00883249496A0880606A808851
:1014E0002F49496A8880002005E0616A8968095CA3
:1014F0002D4A1154401C2A49496A89888142F4D8EE
:10150000A06A20B329492A48816025498862274971
:101510002348806A8160A06A80882149896A88801E
:10152000A06A00881E49896A0880002005E0A16A37
:101530008968095C1D4A1154401C1949896A8988C7
:101540008142F4D894F82C00154981F82C00206AC7
:1015500058B1184812490862206A4088096A4880D0
:10156000206A00880E49096A0880606810B10C4939
:101570006068486039460A48FFF719FF81464846C7
:101580006BE70000D0210020D32100208829002013
:10159000E4210020E8210020E0210020D4210020C7
:1015A000A8290020E4290020F02900201C2A00207E
:1015B000102A0020DC21002010B5044620881028C5
:1015C00004D0112806D01B280CD107E0204605F0D6
:1015D000C7FB08E0204605F0F9FB04E0204605F0D3
:1015E0007DFC00E000BF00BF10BD000070B50546E7
:1015F000022D02D0032D15D100E000BF0B4800786A
:1016000078B10020094908700948007800F014F802
:10161000044634B10748006818B1204605490968F6
:10162000884700E000BF00BF70BD0000D12100204E
:10163000D3210020E82100207FB505464D480078E1
:1016400010B9082004B070BD4B48057002F0A6F92F
:1016500020B10120494908700020F3E748480021E3
:101660000160818081714748407818B14248007814
:1016700001280DD04348807818B13F4800780128F0
:1016800006D04048807888B13B48007802280DD1C8
:101690003D48006838B101203C49087008203A49AB
:1016A0000968884702E00020384908702846FFF79B
:1016B000BBF83149087034480068C0B1084600786A
:1016C000032803D008460078042810D12D4800785C
:1016D00068B12F48007850B900202E4908700120C9
:1016E0002D490870072028490968884702E0002032
:1016F00029490870002000900190029003908DF815
:1017000000008DF808001C48007805281CD2DFE88E
:1017100000F01703080D1200684608F02BFB044682
:1017200013E0684608F036FB04460EE0684608F011
:1017300047FB044609E0684608F072FB044604E0F3
:1017400000201649087000E000BF00BF0A4800787A
:1017500028B1684673DF04460CB1204672E70A4898
:10176000006820B10D4800780749096888470020C3
:1017700068E70000D0210020D3210020D1210020E3
:10178000D421002088290020E4210020DB21002032
:10179000EC210020EE210020ED210020D2210020AC
:1017A00033B587B0044614B90E2009B030BD00250A
:1017B000207C9DF82010884236D0002005900690AD
:1017C0000120ADF814000020ADF8160008A806901E
:1017D000E188608A05AAA4DF05461DB99DF82000AE
:1017E000207401E02846E0E7608A4FF6FF718842E6
:1017F00019D0207DB8B10020019002900390049090
:10180000E088ADF8040001208DF80600BDF8160050
:10181000ADF8080005A8039006980490608A01A915
:10182000A6DF054600E008252846BEE7F8B50446D1
:101830000D4604B10DB90E20F8BD286820604FF6A2
:10184000FF70608228792075FF20207400BF01207E
:101850008DF8020041F60F00ADF8000000BF221D18
:1018600069460120A0DF06460EB13046E4E729466E
:101870002046FFF78BFCDFE770B505460C4605B147
:1018800004B970BD2088102804D0112807D0502832
:101890000FD109E02146284605F058FA0AE0214612
:1018A000284605F087FA05E02146284605F058FB52
:1018B00000E000BF00BF00BFE3E7000070B50546D1
:1018C0001C2229461248FDF7B7FD00201149087077
:1018D000286850B1104829680A6802604968416068
:1018E0007ADF04463CB1204670BD0B487BDF0446DE
:1018F0000CB12046F8E74FF6FF7008490880002039
:1019000007490870074A00210748FFF761F9EBE72C
:101910003C2A002004220020F0210020FA2100208F
:10192000F8210020FDB502003CBC020010B50446C1
:101930002088102806D0112808D012280ED0502850
:1019400010D107E0204605F0E5F90CE0204605F04F
:1019500011FA08E0204605F0DDFA04E0204605F023
:10196000CDF900E000BF00BF10BD000010B5044677
:101970000348027D011D204607F067FE10BD0000F0
:10198000782A002010B504460348C17D2246001D78
:1019900007F044FE10BD0000782A002010B5044670
:1019A0000348017E2246001D07F038FE10BD0000EE
:1019B000782A002070B504462088102804D0112809
:1019C0001DD01A2840D11EE007F086FAA08807F043
:1019D000FDF820B900BF0420FFF7BAF80EE0E07B65
:1019E000022801D1012000E000200546A2882B46F4
:1019F0001649A1F1120007F049FE00BF24E0A088BB
:101A000007F08CFA20E0207A0121B1EB101F01DAF7
:101A1000012000E000200346A2880C49491CA1F1E6
:101A2000130007F033FE207A0221B1EB101F01DA18
:101A3000012000E000200346A2880449891CA1F18E
:101A4000140007F023FE00BF00BF70BD8E2A0020E7
:101A500070B5044600250B48017D2246001D07F0A5
:101A6000DDFD60B10748817D2246001D07F0D6FDEF
:101A700006460EB1022000E00120054600BF2846C0
:101A800070BD0000782A002010B500240AE020462E
:101A900009F006FE20B9204609F0F8FD204610BDE9
:101AA000601CC4B2182CF2DB1820F8E710B504460D
:101AB000204609F0F5FD10B10248005D10BD002080
:101AC000FCE70000912A002070B505460C46204630
:101AD00009F0E6FD30B10448015D2A46153807F0EB
:101AE0009DFD70BD0020FCE7912A002070B50546E1
:101AF0000C461646204609F0D3FD30B103480119C3
:101B000033462A46153807F0C1FD70BD912A0020E2
:101B10002DE9FC4105460C46174620880930B8429D
:101B200002D90C20BDE8FC8168466DDF064600BF87
:101B30000EB13046F6E700BF08202188685420889F
:101B4000401C20801B20218868542088401C208055
:101B500020882844DDF801100160BDF8051081805F
:101B60002088801D20809DF80000400818B90020C2
:101B70002188685402E00120218868542088401C94
:101B800020800020CEE7000010B504462046FFF775
:101B900011FF204606F0B4FC2046FFF7C7FE2046A2
:101BA00000F0C8FA204604F0EBFF2046FFF704FDE2
:101BB00021460648FFF760FE2146054800F0DCF8A4
:101BC0002146044800F070F810BD000048280020AD
:101BD000602800207C280020F0B58BB004460F461A
:101BE000208C4FF6FF71884223D006AA3946204642
:101BF00002F0F1FC06460596002001900290039049
:101C000004902089ADF8040001208DF80600002022
:101C1000ADF8080005A8039006A80490208C01A93F
:101C2000A6DF054625B9BDF81400B04200D00C254A
:101C300000E0082528460BB0F0BDF8B504460E4676
:101C400030682060307960714FF6FF70208400208A
:101C500084F82200A4F84C00142084F84E0000BF41
:101C600001208DF8020041F60D00ADF8000000BF24
:101C7000A21D69460120A0DF05460DB12846F8BD2A
:101C80003146204602F02AFC05460DB12846F6E70B
:101C9000B06838B13146204600F03CF905460DB138
:101CA0002846ECE70020EAE770B505460C46208898
:101CB000102804D0112807D050280FD109E0214660
:101CC000284605F049F80AE02146284605F07AF84A
:101CD00005E02146284605F086F900E000BF00BF78
:101CE00070BD000070B586B004460E46214B0FCB88
:101CF00001AD0FC500BF14B90E2006B070BD00BF06
:101D000000BF0EB90E20F8E700BF4FF6FF70A082AB
:101D10003068A0610020A075214601A863DF054658
:101D200000BF0DB12846E8E700BF20788DF8160007
:101D30000120ADF81400A21C05A9A0DF054600BFD4
:101D40000DB12846D9E700BF3146204607F0A7F974
:101D5000054600BF0DB12846CFE700BF31462046FB
:101D600009F035F8054600BF0DB12846C5E700BFAC
:101D70000020C2E7C0BC020070B505460C4605B1A4
:101D800004B970BD2088102804D0112807D050282D
:101D90000FD109E02146284604F0DBFF0AE0214686
:101DA000284605F00BF805E02146284605F0F8F82E
:101DB00000E000BF00BF00BFE3E737B584B00446D2
:101DC0000D4600BF14B90E2007B030BD00BFA08A79
:101DD0004FF6FF71884201D0A07D08B90820F3E7D3
:101DE000BDF81800142801DD0720EDE70020009061
:101DF000019002900390A089ADF80000039506A819
:101E0000029001208DF80200A08A6946A6DFDBE778
:101E100070B50446204609F0B2FB054605F0010006
:101E200070BD2DE9F04105460E460024327821466A
:101E3000641C6A5472782146641C6A5400BF022CE8
:101E400001D1012000E00020074627B900BF002093
:101E5000FEF77EFE00BF00BF2046BDE8F081000017
:101E600070B588B027480068079000BF0023502253
:101E7000254907A808F0B8FA054600BF2E4626B146
:101E800000BF3046FEF764FE00BF00BF00BF6A46D9
:101E90000121002008F088FA044600BF254625B13C
:101EA00000BF2846FEF754FE00BF00BF1720ADF864
:101EB0001000684608F064FA044600BF254625B1C4
:101EC00000BF2846FEF744FE00BF00BF0F4808F0E1
:101ED0004BFA044600BF254625B100BF2846FEF751
:101EE00037FE00BF00BF0A4808F0D2FA044600BF20
:101EF000254625B100BF2846FEF72AFE00BF00BFD9
:101F000008B070BD04BC0200CC280020891B020070
:101F100007A6020030B58FB005460C461C2108A864
:101F2000FDF7B1FA9DF8200020F00200801C8DF82A
:101F30002000002009900B900C900D900E9000BF97
:101F400001208DF80A0042F63820ADF8080000BFE5
:101F500000200190E07B8DF80400207C8DF80500C6
:101F60009DF8060020F00600801C8DF806009DF804
:101F7000060020F008008DF806009DF8060020F00D
:101F800010008DF806009DF8060020F001008DF885
:101F90000600142103A8FDF776FA02A8039001A811
:101FA00004900120ADF814000020ADF816000120C7
:101FB000ADF81800A0680790E88805F1100303AA9F
:101FC00008A9A2DF0FB030BD01460148405C704750
:101FD0000CBC020010B50146094B585C00BF4FF025
:101FE000A044234600BFD3F81045C44004F00104C8
:101FF0000CB1012000E00020024682F0010010BD7B
:102000000CBC020010B502460949885C00BF4FF0C5
:10201000A0442146D1F80435012484409C43C1F8F2
:102020000845012484401C40C1F80C4500BF10BD88
:1020300008BC020010B504460249085D012104F005
:1020400065FB10BD08BC020010B504460249085DDE
:10205000002104F05BFB10BD08BC020010B5014676
:10206000094B585C00BF4FF0A044234600BFD3F893
:102070000445C44004F001040CB1012000E000203C
:10208000024682F0010010BD08BC02007CB50024AD
:102090000CE00948055D002000900346012211462E
:1020A0000190284604F094FA00BF641C042CF0D37D
:1020B00000F004F87CBD000008BC020010B500244C
:1020C00003E02046FFF7B6FF641C042CF9D310BDD3
:1020D00010B5002403E02046FFF7B6FF641C042C73
:1020E000F9D310BD02464FF0FF30002106E0054B4A
:1020F0005B5C934201D1084602E0491C0429F6D3F7
:1021000000BF70470CBC020070B505460C460026A7
:102110000648056014B1204608F0F4F90448006848
:1021200010B9FEF7C3FB0646304670BDC82100203B
:10213000CC21002070B505462888102802D011282F
:102140002CD115E01748006860B900F001FE044684
:1021500000BF34B11448006818B12046124909681C
:10216000884700BF0F480068401C0E49086016E011
:102170000C480068401E0B4908600846006860B9BA
:10218000FEF794FB044600BF34B10748006818B15D
:10219000204605490968884700BF00E000BF00BF2E
:1021A00070BD0000CC210020C821002010B5002007
:1021B00000F048FB044600BF1CB1062C01D02046AD
:1021C00010BD00BF012000F03DFB044600BF1CB164
:1021D000062C01D02046F3E700BF0020F0E7000006
:1021E0002DE9F04106460F464FF000080024304626
:1021F000FFF778FF0446042C41D227B3012F02D009
:10220000022F3BD133E004EB4400234911F8008056
:1022100004EB44000844407868B12048006800EBB3
:10222000800041001E4A1F480068FEF735FD054644
:102230000DB91B48067004EB440017490844807828
:10224000194908551AE017480068FEF74FFD16486F
:10225000005D04EB4401104A11448978884205D19D
:1022600004EB44001146084490F8028006E004EBB9
:1022700044000949084490F8018000BF00BFB8F14C
:10228000000F06D00948006818B1404607490968A0
:102290008847BDE8F08100005C290020B4210020BF
:1022A000C021002018BC0200C1210020BC21002058
:1022B00010B504462046FFF78DFE10BD70B50B4AE1
:1022C000CD21032000F0E6F8044600BF254625B1E5
:1022D00000BF2846FEF73CFC00BF00BF002002F014
:1022E0003DFE012002F03AFE70BD00004D230200C9
:1022F00030B503460020042B23D2012A07D101293F
:1023000003D103F10E04E4B200E00024224679B1C7
:10231000012902D0022911D104E003EB43040A4D44
:102320002A550DE003EB4304074D2C44627007E08F
:1023300003EB4304044D2C44A27001E0072000BFCE
:1023400000E0072030BD00005C29002010B50446E5
:1023500008F0ECF8102C02D0112C58D12BE02FA152
:102360000020FDF705FD37480078012803D1022041
:10237000344908701EE033480078022803D1032056
:102380003049087016E02F480078032803D1042054
:102390002C4908700EE02B480078042803D1052052
:1023A0002849087006E027480078052802D1012056
:1023B000244908702CE024A10020FDF7D9FC214815
:1023C0000078012803D105201E4908701EE01D4831
:1023D0000078022803D101201A49087016E0194834
:1023E0000078032803D10220164908700EE0154832
:1023F0000078042803D103201249087006E0114830
:102400000078052802D104200E49087000E010BDB4
:1024100000BF08F051F800BFF9E700005374617283
:1024200074696E67206E65787420696E7465727663
:10243000656E74696F6E5F73746174652E2E2E0AFB
:102440000000000029210020476F696E672062614B
:10245000636B20746F206C61737420696E74657295
:1024600076656E74696F6E5F73746174652E2E2E5F
:102470000A00000070B5044600250548007800F009
:10248000010018B1204600F05FF80546284670BDEF
:10249000B82100202DE9F04105460E469046002463
:1024A0001F4806601F4805601F48C0F8008005F0FF
:1024B0000200F8B1002706E0012211463846FFF776
:1024C00017FF04467F1C042F01D2002CF4D02CB936
:1024D000720804211548FEF7C5FA044614B9FEF740
:1024E000ABFA04462CB9124A00211248FEF770FBE1
:1024F000044600BF05F0010008B1FFF7C7FD2CB985
:102500000D4A00210D48FEF763FB04462CB90C4A26
:1025100001210C48FEF75CFB04462046BDE8F08133
:10252000B4210020B8210020BC2100201CBC0200E6
:102530005B28020018BC0200754F020010BC0200AC
:102540002D0A020014BC02002DE9F04104460026C9
:102550000025B748007820B10020B5490870FFF782
:10256000ADFD182C75D2DFE804F00C11123D689512
:10257000BFCDD3F1EFEEEDECEBEAE9E8E7E6E5E419
:10258000E3E2FFF79BFDAB4804704DE100BF022082
:10259000FFF764FD58B10220FFF74CFD022C02D179
:1025A0004FF4E16001E04FF47A60054609E0022053
:1025B000FFF74AFD022C01D1C82001E04FF4C8709A
:1025C00005469C4804706420B5FBF0F09A49096800
:1025D00000FB01F70022394698480068FEF75CFBD3
:1025E000064621E10220FFF739FD58B10220FFF72E
:1025F00021FD032C02D14FF4487001E04FF47A60C2
:10260000054609E00220FFF71FFD032C01D1C82079
:1026100001E04FF4C8700546864804706420B5FB9D
:10262000F0F08549096800FB01F70022394683482C
:102630000068FEF731FB0646F6E00220FFF70EFDCC
:1026400060B10220FFF7F6FC042C03D14FF47A604E
:1026500002E0E8E04FF47A6005460AE00220FFF766
:10266000F3FC042C02D14FF4C87001E04FF4C870A1
:102670000546704804706420B5FBF0F06E490968A7
:1026800000FB01F7002239466C480068FEF704FBA6
:102690000646C9E00220FFF7E1FC50B10220FFF737
:1026A000C9FC052C01D1C82001E04FF47A60054631
:1026B00009E00220FFF7C8FC052C01D1C82001E089
:1026C0004FF4C87005465B4804706420B5FBF0F019
:1026D0005949096800FB01F700223946574800684C
:1026E000FEF7DAFA06469FE00220FFF78BFC51481E
:1026F000047051480022016850480068FEF7CCFA87
:10270000064691E00220FFF79FFC4A4804708BE0E8
:102710000120474908700320FFF774FC4648002257
:10272000016846480068FEF7B7FA06467CE077E0A5
:1027300075E071E06DE069E065E041E03FE03DE0BB
:102740003BE039E033E021E011E0FFE701203849C8
:1027500008700320FFF756FC3748006800EB800143
:10276000002236480068FEF797FA06465CE0012032
:102770002F4908700320FFF745FC2F48002201680D
:102780002E480068FEF788FA06464DE001202849E9
:1027900008700320FFF736FC2748006800EB800133
:1027A000002226480068FEF777FA06463CE0FFF76D
:1027B0008FFC2048047037E000BF00BF00BF00BF9F
:1027C0001F480068FEF792FA0646C4F11105B5B13C
:1027D000AEB9012D0FD9C82068436421B0FBF1F0D8
:1027E0001549096800FB01F70022394614480068C2
:1027F000FEF752FA06460220FFF726FC02E002200E
:10280000FFF718FC10E00B4804700DE00948047055
:102810000AE00848047007E00648047004E000BFBE
:102820000448047000E000BF00BF3046BDE8F081FE
:10283000B1210020B0210020B421002010BC0200F2
:1028400014BC020070B504462046FFF7BDFB0546E8
:10285000032103F012FF002070BD10B5044620785C
:102860000221FFF7BDFC10BDF8B504466946002003
:10287000FFF74AFC054600BF2E4626B100BF304692
:10288000FEF766F900BF00BF9DF80000022801D1E5
:10289000012000E000202070F8BD01468879012861
:1028A00009D10879012806D1488842F602129042DF
:1028B00001D1012070470020FCE700004FF0FF31FC
:1028C000054A42F82010082804DBFF23A0F1080184
:1028D0005032535470470000EC2E0020014602484D
:1028E00050F8210070470000EC2E00202DE9F04F39
:1028F00003460C464FF0FF390AB1002000E00820E3
:1029000084460AB1082000E00C208046614624E09D
:10291000154850F82100401CF0B91D4608462746CE
:1029200016464FFA80FBDFF840A00AF1300A0AF899
:1029300005B0DFF834A04AF820704EB94FFA85FB95
:10294000A0F1080ADFF820E00EF1500E0EF80AB0F0
:1029500000BF4FFA81F902E0491C4145D8D300BFBE
:102960004846BDE8F08F0000EC2E002001460148EB
:10297000405670471C2F0020014639B10448884258
:1029800004D80448884201D9012070470020FCE7A0
:10299000F42200200423002070B505460E460024D2
:1029A00007E055F8340002F0C3FA08B9002070BD02
:1029B000641CB442F5D30120F9E700000A49496CD0
:1029C00081B10949096C084A02EBC1010160114655
:1029D00091F84010491C01F0070111641146496C3F
:1029E000491E5164704700006430002006490268A7
:1029F0008A4203D0016808310160704702493839C2
:102A0000016000BFF9E700009C3000200178022936
:102A100002D0017803290BD106490A6C817D11444B
:102A2000044A116411464A6C817D511A014A51646D
:102A300070470000643000202DE9F04104460D4647
:102A40004FF6FF76304684420AD14FF48071284613
:102A500005F010FD0646B6F5807F0FD126460DE045
:102A6000FF2C0BDC2146284605F0F4FC07460FB18D
:102A7000204601E04FF6FF70064600BF3046BDE835
:102A8000F081000070B505460DB9094C01E0084C15
:102A9000083409E0204602F053FA064606B904E07D
:102AA00028467168884700BFF4E700BF70BD00008A
:102AB000E02E00202DE9F04782461F4800680028DC
:102AC00036D01D480068056806F06EFA07461B48B8
:102AD00004682146384607F09FFDC61C1848007858
:102AE00008B906F073FAAE4201D2284600E030463B
:102AF000044424F07F44204606F050FA06F054FACD
:102B000080463946404607F087FD00F10309394603
:102B1000204607F081FD814509D906F045FA814636
:102B200006F03CFA2F2002F0EDFE08F04FF801E02D
:102B300006F06AFABDE8F087902200209422002077
:102B4000A822002001460888062808DB0888B0F57E
:102B5000486F06DD08884FF6FF72904201D00720CB
:102B600070474888062808DB4888B0F5486F06DDBE
:102B700048884FF6FF72904201D00720F0E708889E
:102B80004FF6FF72904208D04888904205D00888DE
:102B90004A88904201DD0720E2E70020E0E72DE9C6
:102BA000F04106460D46144698462088801D404553
:102BB00002D90C20BDE8F0813046FFF7C3FF07467D
:102BC00000BF0FB13846F5E700BF052021886854E3
:102BD0002088401C20801220218868542088401CB6
:102BE000208022885119308808F0CFFC21880844C1
:102BF000208022885119708808F0C7FC2188084479
:102C000020800020D6E710B5044600BF2046FDF71F
:102C10009FFF00BF10BD000030B587B01C21684683
:102C2000FCF731FC002000904FF4205001904FF44D
:102C30007040029003208DF80C000020ADF80E00CB
:102C40008DF8100009480590094806906846FEF77F
:102C500035FE044600BF254625B100BF2846FDF7D6
:102C600077FF00BF00BF07B030BD0000D16C02008D
:102C7000072C020038B51B4802F02EF920BB1A4879
:102C8000007848B119484069E8B100200090174821
:102C900041696846884716E01548007810B913481E
:102CA000456801E0114885680022294611480068FE
:102CB000FDF7F2FF044634B10C48806918B10B48A7
:102CC00081692046884709E00848406930B1012001
:102CD0000090064841696846884700BF00200249C5
:102CE000087038BDFC210020042200203C2A00206E
:102CF000F82100203CBC02003EB504462088FEF7C7
:102D000041FED0B1208810490978FEF7DDFE28B9D0
:102D1000208800220D490978FEF7E8FE2088ADF8EA
:102D2000020005208DF800002088FEF737FE8DF8A0
:102D30000400684600F0C0FA05E02088012241F254
:102D4000060100F0EBF83EBD4F2200204E2200208D
:102D500010B5012200210846FFF7CAFA044600BF59
:102D60001CB1072C01D0204610BD00BF0722022154
:102D70000120FFF7BDFA044600BF1CB1072C01D0AB
:102D80002046F1E700BF042202210020FFF7B0FA3D
:102D9000044600BF1CB1072C01D02046E4E700BF69
:102DA0000020E1E770B504460D462A462146024858
:102DB000FFF703F870BD00006028002070B50646DC
:102DC0000D460EB1012070BD287920B1012809D02F
:102DD000022813D10FE0284605F062FF04460220C6
:102DE00028710DE0284600F00FFD04460A2C01D1A1
:102DF00041F61D5404E041F61D5401E00F2400BFCC
:102E000000BF2046DFE700002DE9F047814600259E
:102E100032E01C48006800EBC5042178012000FA6C
:102E200001F619480068304020B317480068B043E5
:102E300015490860207802F005FF07462178012037
:102E40008840124909680840217807FA01F1884250
:102E50000FD16078012800D100E00020784080F098
:102E60000108606820B108F0FF012078626890478F
:102E700000BF00BF681CC5B2054800788542C8DBAA
:102E8000BDE8F087742200208422002080220020E8
:102E90007822002070B5044620793D2802D141F205
:102EA0003D0001E04FF48850054620880022294665
:102EB00002F0CCF970BD0000014614480078144AB5
:102EC000127890421DD011480078401C0F4A1070B3
:102ED00010460078022801D1002010700D480B4ADE
:102EE000127850F8220008600B4A086812681044F3
:102EF000094A10601046006820F07F4010600120F1
:102F000070470020086000BFFAE70000A022002000
:102F1000A12200209822002094220020FEB5044621
:102F20000D461646094A07CA8DE80700ADF802406B
:102F3000ADF804508DF8066000220548017820465F
:102F4000FEF7D4FD684600F0B7F9FEBDB0BC020044
:102F50004E22002010B50446A08928DF10BD0000D5
:102F600013480078062820D11148001D007800F091
:102F70000F00D0B90E480830007800F0F00030287B
:102F800001D1012070470A480830007800F0F000B5
:102F9000402801D10120F5E705480830007800F00D
:102FA000F000502801D10120ECE70020EAE7000002
:102FB000E00F00F00A48007806280ED10848001DEE
:102FC000007800F00F0040B905480830007800F0A4
:102FD000F000302801D1012070470020FCE70000FC
:102FE000E00F00F013480078062820D11148001D9A
:102FF000007800F00F00D0B90E480830007800F0DB
:10300000F000302801D1012070470A4808300078CC
:1030100000F0F000402801D10120F5E70548083014
:10302000007800F0F000502801D10120ECE70020EA
:10303000EAE70000E00F00F00A48007806280ED109
:103040000848001D007800F00F0040B9054808301E
:10305000007800F0F000302801D1012070470020F6
:10306000FCE70000E00F00F013480078062820D1AC
:103070001148001D007800F00F00D0B90E4808304C
:10308000007800F0F000302801D1012070470A4894
:103090000830007800F0F000402801D10120F5E769
:1030A00005480830007800F0F000502801D10120D8
:1030B000ECE70020EAE70000E00F00F00A480078A3
:1030C00006280ED10848001D007800F00F0040B916
:1030D00005480830007800F0F000302801D10120C8
:1030E00070470020FCE70000E00F00F00A4800787D
:1030F00006280ED10848001D007800F00F0040B9E6
:1031000005480830007800F0F000302801D1012097
:1031100070470020FCE70000E00F00F00A4800784C
:1031200006280ED10848001D007800F00F0040B9B5
:1031300005480830007800F0F000502801D1012047
:1031400070470020FCE70000E00F00F00278072A3B
:1031500034D2DFE802F033040710202930000022C7
:103160000A702CE001220A7003898B818388CB814D
:10317000C2688A6023E002220A7003898B818388F7
:10318000CB81C2688A60027C062A01D1012300E05B
:1031900000230B7413E003220A70C3888B81038918
:1031A000CB81C2688A600AE004220A70C3888B81DE
:1031B0000023CB8103E005220A7000E000BF00BFBE
:1031C0007047000070B50546002409E0064850F835
:1031D000240020B1044850F8241028468847641C75
:1031E000082CF3D370BD0000CC2F00203EB505465F
:1031F0000C46DCB1112C19D00020009001900290F7
:10320000ADF8025001940D2C03D10B208DF8000075
:1032100008E0862C03D10A208DF8000002E0092086
:103220008DF80000684600F057F800BF3EBD000072
:1032300070B50546002405E0044850F824102846DF
:103240008847641C002CF7D070BD000008220020C5
:1032500070B50546002405E0044850F824102846BF
:103260008847641C002CF7D070BD00001422002099
:1032700070B50546002405E0044850F8241028469F
:103280008847641C022CF7D370BD000058BC0200B4
:1032900070B50546002405E0054850F8241028467E
:1032A0008847641C034800788442F5DB70BD000049
:1032B0008C2E00204A22002070B50546002405E02F
:1032C000044850F8241028468847641C022CF7D381
:1032D00070BD000078BC020070B50546002405E012
:1032E000044850F8241028468847641C002CF7D066
:1032F00070BD0000BCBC0200F0B5034600241FE016
:10330000124E306806689E4203D90668F61A0660B7
:103310001AE006689B1B06683444002606600B4EC4
:1033200035680A4FC6693E60C66846B10E1926F078
:103330007F464660C66886601668C661156000BF35
:10334000024800680028DBD100BFF0BD90220020B9
:103350001FB50446606808B9012000E00020039012
:10336000207806287BD2DFE800F0820304304F7B10
:1033700000BFA08900F06DFA18B9E08905F09FFD43
:1033800010B3A08900F060FAADF80200E08905F002
:1033900093FD8DF804002078012807D1606808B9F2
:1033A000002000E003208DF8000006E0606808B906
:1033B000012000E004208DF8000060680390A06800
:1033C0000290684604F0FCFA52E0A08900F041FA4D
:1033D00018B9E08905F073FDA8B1A08900F034FAAE
:1033E000ADF80200E08905F067FD8DF80400606823
:1033F00008B9022000E005208DF80000A0680290C6
:10340000684604F0DDFA33E0A08900F022FA28B320
:10341000E08918BBA08900F017FAADF80200E08936
:1034200005F04AFD8DF80400FF208DF80400606867
:1034300038B906208DF80000BDF8020004F0D6FC73
:1034400002E007208DF8000000200E4908700E49A8
:10345000087004F015FC684604F0B2FA08E006E0D3
:1034600008208DF80000684604F0AAFA00E000BFCA
:1034700000BF0448007820B100200249087004F021
:10348000FFFB1FBD252200202622002010B588B09A
:103490000446022000F004FA10B9022008B010BD62
:1034A0004FF6FF70844201D10420F7E705208DF824
:1034B000040001208DF80800ADF80A4000221146F2
:1034C00001A803F09DFD18B105F05EFB0020E5E7C3
:1034D0000820E3E700B587B0022000F0E1F910B959
:1034E000022007B000BD06208DF800000022114622
:1034F000684603F085FD48B10548007810B1012009
:103500000349087305F040FB0020EAE70820E8E7DC
:10351000CC30002010B58CB0142107A8FBF7B3FF06
:10352000022000F0BDF928B107A8FFF74BFE0020EC
:103530000CB010BD012000F0B3F908B10020F7E78E
:10354000012000F0B9F900F087FA03F065FE0446A7
:103550000CB90B20ECE7062C0AD1022000F0ACF9E4
:10356000012000F083F907A8FFF72CFE0020DFE719
:1035700001208DF800000C2C1AD2DFE804F01906A7
:10358000190719141915190B100C00BF00208DF81C
:1035900004000EE000BF03208DF8040009E00220C3
:1035A0008DF8040005E000BF01208DF8040000E064
:1035B00000BF00BF00221146684603F021FD05F060
:1035C000E3FA0020B4E7000038B504460CB9052042
:1035D00038BD6946204605F087FBE0B10F48BDF8CD
:1035E000001000EB01108089002812DDA07A80B164
:1035F0000A48BDF8001000EB01108089401E074901
:10360000BDF8002001EB021188810020A072002586
:1036100002E0062500E00A252846D9E7AC30002064
:103620007FB514461D462B46224601A9684605F083
:10363000F3FA04B070BD37B50C4615462B4622464A
:103640006946002005F0E8FA3EBD37B50C46154640
:103650002B4622460021684605F0DEFA3EBD0246B2
:1036600002B109B905207047106808600020FAE728
:1036700038B504460D4604B10DB9052038BD69467C
:10368000204605F031FBA8B161680B48BDF8002069
:1036900000EB02108089401C074ABDF8003002EBA5
:1036A00003129081296060680C3068600120A0726C
:1036B0000020E3E70A20E1E7AC30002070B50446C3
:1036C0000D460CB9052070BD032300222946204673
:1036D00008F046F9F7E770B504460D4602230022CC
:1036E0002946204608F03CF970BD70B505460E46E7
:1036F00014460CB9052070BD0223224631462846E7
:1037000008F02EF9F7E700000146094A1278082A66
:1037100001D10C200AE0074A054B1B7842F8231020
:10372000034A1278521C024B1A70002070470000A6
:10373000AD220020CC2F0020F8B504460D46022013
:1037400000F0AEF808B90220F8BD0CB90520FBE77F
:103750006946284608F0F0F906461EB9BDF8000093
:10376000208065803046EFE770B50446022000F007
:1037700097F808B9022070BD0CB90520FBE7208836
:10378000022801DD0420F6E720880A4901EB001633
:1037900071896088C01C081A08D42188608808F0E4
:1037A000BDF9002020806080002500E00425284627
:1037B000E1E70000AC30002070B504460D462A4613
:1037C0000021204600F00EF8A068401CA06070BDEB
:1037D00001468A68C868801A704701468A68C868C6
:1037E000801A704710B583680B44848823400468AE
:1037F000E35C137010BDC26883881A400368995453
:10380000C268521CC26070473EB504460C4B6A4603
:103810000021A01D05F000FA05465DB9019805F0EC
:10382000D1FA0546012006498988064A02EB0111B2
:10383000887303E0024800210160416028463EBDD4
:10384000BC220020AC3000200146A1F5404080B2EF
:1038500070470146B1F5404F05DB4FF6FE708142DF
:1038600001DC012070470020FCE7000002490978D4
:103870008143014A11707047AC22002010B5044604
:103880002078182802D1FEF7FFF8207010BD10B57F
:1038900004462078182802D1FEF7F6F8207010BDF3
:1038A000014604480078084008B101207047002014
:1038B000FCE70000AC220020024909780143014ADC
:1038C00011707047AC22002030B504461088C01C2F
:1038D000984201D90C2030BD022015884855108827
:1038E000401C10800120158848551088401C10800D
:1038F00015884C551088401C10800020EBE7000014
:103900002DE9F04106460C4615460027B846862CA0
:1039100003D0112C01D0002C35D1862C03D14FF0CF
:103920000008012709E0112C03D14FF001080027FE
:1039300003E014B94FF000080027C5B13A46134818
:1039400001783046FEF7D2F84246114801783046F9
:10395000FEF7CCF800220F4801783046FEF7C6F893
:1039600000220D4801783046FEF7C0F80BE03A46D9
:10397000084801783046FEF7B9F842460648017813
:103980003046FEF7B3F8BDE8F08100006522002064
:1039900064220020612200206022002008B56846D1
:1039A00000F0BAF8009808B1012008BD0020FCE73B
:1039B000F8B505460C4616461F461C48007800F030
:1039C000010008B90120F8BD2846FEF7D5FF08B967
:1039D0000220F8E70CB90320F5E7C4F30B0008B1A7
:1039E0000620F0E72868A04204D804EB0630696896
:1039F000884201D90520E6E70EB90420E3E76846CE
:103A000005F006F808B90720DDE700984760009840
:103A10000560022000990872C4F30F300099888174
:103A20000098068205F0BCF80020CCE7C4220020F4
:103A300070B505460C46204605F01EF870BD4FF0E7
:103A400010204169481C08B1084670474FF080506B
:103A500040690003F9E700002DE9F0412B482C49AB
:103A6000401A04092948401A0509FFF7E8FF0646ED
:103A70002848007800F0010010B10020BDE8F08176
:103A8000002008E0224A02EB00110A6812B14A68DD
:103A900002B16D1E401CA042F4D300202BE01C4953
:103AA00001EB00124FF0000CC7B2002117E0DFF865
:103AB000608008EB0113D3F80080B8F1000F05D047
:103AC000D3F80480B8F1000F00D007E093F80D8020
:103AD000E04502DD93F80DC0CFB200BF491CA14202
:103AE000E5D30B4901EB07125660117BA6EB0131C0
:103AF00011601668401CA842D1D30648007840F0F7
:103B00000100044908700020B8E7000004230020E9
:103B1000F4220020C4220020014609B90320704786
:103B20000248406E08600020F9E70000E8300020FD
:103B30002DE9F84305460C4616461F46DDF8208061
:103B40001F48007800F0010010B90120BDE8F8839B
:103B50002846FEF711FF08B90220F7E706B10CB9B5
:103B60000320F3E706F0030010B904F0030008B1E6
:103B70000620EBE72868A04204D804EB87016868B8
:103B8000884201D20520E1E70FB90420DEE768464C
:103B900004F03EFF08B90720D8E70098C0F8048079
:103BA000009805600120009908720098C66000988E
:103BB00004610098878204F0F3FF0020C6E700004C
:103BC000C422002070B504461748006E00EB400088
:103BD000154901EBC0051548007800F0020068B1F6
:103BE000022C02D0032C08D103E0284603F03AF956
:103BF00003E0284603F020F900BF12E00B480078EC
:103C000000F0040068B10948007820F0040007497A
:103C100008700548406E20B10846007840F0020068
:103C2000087004F07BFF70BDE8300020C422002043
:103C30003EB500BF9DF8000020F00F00401C009032
:103C40009DF8000020F0F0001030009000BF0D2221
:103C50001AA168467CDF044600BF254625B100BF97
:103C60002846FCF775FF00BF00BF642078DF0446DC
:103C700000BF254625B100BF2846FCF769FF00BFFD
:103C800000BF0020019002900820ADF80400A020A1
:103C9000ADF806000020ADF808004FF4C870ADF88C
:103CA0000A0001A87ADF044600BF254625B100BFFF
:103CB0002846FCF74DFF00BF00BF3EBD4545475FAE
:103CC000444554454354494F4E00000070B50546E5
:103CD0000DB1012070BD1848007B18B100201649B5
:103CE000087301E000F0D4F81348007808281DD2CA
:103CF000DFE800F01C04080C101C141800F03CF85D
:103D0000044615E000F0B2F8044611E000F08EF829
:103D100004460DE000F044F8044609E000F01CF908
:103D2000044605E000F028F9044601E00F2400BF36
:103D300000BF2046CEE70000CC3000200C480089B0
:103D4000401C0B49088100204880087300BF0CE02C
:103D5000084901EB0011097809B9012200E00022AD
:103D600003490A310A54411C88B20228F0DB70472B
:103D7000CC300020AC30002010B5084800F032F8FC
:103D800040B900200549891E08704880486041F606
:103D90001D5010BD00F06AF8FBE70000CE30002097
:103DA00070B50D4845880D4800EB0510808968B94D
:103DB0000A4800EB05100023012241680848FFF77C
:103DC000F7FD044604200449087002E000F08CF876
:103DD0000446204670BD0000CC300020AC300020EE
:103DE000F422002010B501460022002015E00D4B02
:103DF0001B5C83B100240B4B1C540B4B03EB0013D7
:103E00009B8943B9084B03EB00139B7B012B02D129
:103E10000880012203E0431C98B20228E7DB00BFC0
:103E2000104610BDD6300020AC300020F8B50C484C
:103E300044680C4800680B49898800EB810560885C
:103E4000C01C86B203200649087000200090084676
:103E50003346294642680448FFF76AFEF8BD000071
:103E6000CC300020B4220020F422002010B50749F5
:103E70004888091D04F076FF18B1FFF7D7FF044604
:103E800002E0FFF78DFF0446204610BDCC30002035
:103E900010B514480078082820D2DFE800F0041F8D
:103EA0001F0A1016171BFFF749FF01200D49087064
:103EB00015E000F06DF802200A4908700FE000F0EC
:103EC00029F806200749087009E000BF07200549C6
:103ED000087004E001200349087000E000BF00BF43
:103EE00010BD0000CC30002010B505200649087038
:103EF0000220064988800846002301220168044800
:103F0000FFF756FD10BD0000CC300020B422002089
:103F1000F42200200D4908680D4949880D4A02EB3A
:103F200001114968094A116009494988094A02EBA7
:103F30000111486005498988054A5288054B03EB01
:103F4000021211810221014A91807047B42200209F
:103F5000CC300020AC30002010B506200449087099
:103F60004988044A02EB0111486803F033F910BD97
:103F7000CC300020AC30002010B507200349087079
:103F80000020486003F036F910BD0000CC3000205E
:103F9000054A50684288D21C91B2044A92880A4469
:103FA000024B9A8070470000CC300020B4220020E1
:103FB0003EB504462088502821D0522802D05428EB
:103FC00025D103E0A08801F071FA20E006208DF8E9
:103FD0000000A08800F0EAFCADF80200A088ADF86F
:103FE0000400BDF8020000F04FF9A08800220C493F
:103FF0000978FDF77BFD6846FFF71AF907E0A01D79
:10400000FEF74BFC10B1A08801F0A0FA00BF00BF82
:10401000FDF710F807F0C6FA05F0CAFC3EBD000037
:104020000F2200203EB504466088ADF802002078DB
:1040300020B101280FD002282BD116E000208DF8E6
:1040400000006846FFF7F4F8608800F0D9FB0546E9
:1040500001F02CFA1DE001208DF80000A088ADF8D9
:1040600004006846FFF7E4F813E0207980B1608827
:1040700000F0C6FB05464FF6FF70854207D00122CF
:10408000054801782846FDF731FD05F091FC00BF99
:1040900000BF00BF3EBD00000F22002010B5044647
:1040A000207801280DD1608801F000FA608800F0C6
:1040B000CFF928B16088012203490978FDF716FD80
:1040C00000E000BF00BF10BD0F22002010B500F0BF
:1040D00089FDFDF7D9FC12490870FDF7D5FC11499F
:1040E0000870FDF7D1FC10490870FDF7CDFC0F49B1
:1040F00008700B48007818280BD00A480078182858
:1041000007D009480078182803D0084600781828F6
:1041100001D1032010BD0120054908700020F9E7F6
:104120000D2200200E2200200F220020102200204D
:104130000C22002010B586B000F0BEF801A8FDF7F3
:1041400015FC002412E002A931F8140000F02EFC46
:104150004FF6FF71884207D102A931F814000122FD
:1041600006490978FDF7C2FC601C84B20198A042A0
:10417000E9D805F01DFC06B010BD00000F2200209C
:1041800010B504462078072803D1608801F0DEF9D5
:1041900000E000BF00BF10BD10B504460B48017819
:1041A0002046FDF791FC70B100210AE001EB4100CF
:1041B000074A02EB80004088A04201D1C8B210BD7E
:1041C000491C0829F2D3FF20F9E700001F22002034
:1041D000AC2A002010B500240DE004EB4401084A8D
:1041E00002EB8101488807490978FDF76DFC08B9A1
:1041F000E0B210BD641C082CEFD3FF20F9E70000EB
:10420000AC2A00201F2200202DE9F04105460F4670
:10421000012000FA05F418480068FCF767FD06461F
:104220000EB1BDE8F081154800682040E0B928468D
:1042300001F008FD28B112480068204310490860C9
:1042400004E00F480068A0430D4908600B4800686F
:1042500020430A49086000220A48016806480068AD
:10426000FCF71AFD064604E004480068A043034931
:10427000086000BFD5E70000D4BD02008422002002
:10428000802200207C2200201CB50446044903C97A
:10429000CDE9000100226946204603F012FA1CBD58
:1042A00050BC020010B500F0A3FC012001490870C9
:1042B000002010BD1822002010B54FF6FF7003F04B
:1042C000E1F80249088005F0A9FB10BD1A22002080
:1042D0002DE9FC478146484600F068FB054600266C
:1042E00000274FF003084FF0010A4FF6FF70854298
:1042F0000CD06A460821284603F0ACF904462CB9D4
:104300000198861D8788D0F8008000BF00BF434613
:104310003A4631464846A9DF0446042C01D111240F
:1043200015E0082C01D1002411E00B2C0FD14FF027
:10433000000A08F0020010B14FF0010807E006B9CA
:1043400027B1002600274FF0030800E003240B2CC0
:10435000DDD0BAF1000F00D10B242046BDE8FC8768
:104360002DE9FC478046404600F020FB07464FF60B
:10437000FF70874203D143F20200BDE8FC874FF093
:1043800001094FF0000A00BF4FF0000A4A46511CD5
:104390001FFA81F96B460821384603F09DF904465F
:1043A00004BB019D032028602A1DA91D40462B68DF
:1043B000AADF04462CB90821384603F043FA044624
:1043C0000FE00C2C02D14FF0010A02E0052C00D1C5
:1043D00000240821384603F019FA064606B10324E2
:1043E00000BF02E0072C00D10C24BAF1000FCBD1A2
:1043F00000BF2046C1E700007FB5044620780128B1
:104400001BD12079012818D1608802AA012103F06C
:1044100021F9054685B902208DF800006088ADF8C5
:10442000020003A808B1012000E000208DF804007C
:104430006846FEF70DFF00BF00BF044800884FF636
:10444000FF71884201D005F0E9FA7FBD1A220020F1
:104450007CB50446204600F0A9FA06466A460121CA
:10446000304603F0F7F805460DB100207CBD0198F9
:104470000078FBE770B505464FF6FF7600BF4FF6B4
:10448000FF720A4801882846A7DF044643F203006A
:10449000844204D105480088401C0449088043F246
:1044A00003008442EBD0204670BD00001C22002097
:1044B000014688884FF6FF72904203D0088808B101
:1044C000012070470020FCE710B504460248006850
:1044D00000F0D4F810BD00004021002030B595B0A8
:1044E00005460C4600200D9000BF9DF8340020F0DA
:1044F0000F00401C8DF834009DF8340020F0F000CF
:1045000010308DF8340000BF207B8DF835009DF809
:10451000360020F00600801C8DF836001C210EA805
:10452000FAF7B1FF9DF8380020F0100010308DF838
:10453000380000200F90119012900DA813900020C9
:10454000149000BF01208DF81E0042F63720ADF810
:104550001C0000BF00200690607B8DF81800A07B37
:104560008DF819009DF81A0020F00600801C8DF8C7
:104570001A009DF81A0020F008008DF81A009DF826
:104580001A0020F010008DF81A009DF81A0020F093
:104590000100401C8DF81A00142108A8FAF773FFD7
:1045A00007A8089006A8099001AA0021284600F053
:1045B00012F8ADF828000020ADF82A001420ADF85C
:1045C0002C0001A80C90E88805F1080308AA0EA9A0
:1045D000A2DF15B030BD2DE9F047044689461746E5
:1045E0004FF000080125607908B148F0040894F8FC
:1045F000220008B148F00208B9F1FF0F08DD48F0C9
:1046000001087919484606F0C6FF2844C5B204E0FF
:104610002946681CC5B207F80190B4F84C00002880
:1046200001DD48F01008002619E094F84E10A81C8F
:1046300081420AD2B4F84C00801B420004F12400ED
:1046400000EB4601FAF7F8FE0DE0791904F12402B7
:1046500032F8160006F09FFF2844C5B2761CB4F865
:104660004C00B042E1DC00BFB4F84C00801BA4F861
:104670004C0087F800802846BDE8F08770B50546F5
:10468000A9B20A48FDF7A8FA044674B1082C0CD068
:1046900043F20400844208D043F20140844204D033
:1046A00000BF2046FCF754FA00BF70BD7C280020F4
:1046B0003EB504460D4620780221B1EB500F01D0E3
:1046C00000203EBDB4F80100ADF80800E0788DF898
:1046D0000A00A188ADF80010A0798DF8020001AAA7
:1046E00069462846FCF777F9032201A902A8FAF7E0
:1046F000DCFE08B90120E4E70020E2E770B50646D9
:104700000C463046FFF748FD0546FF2D0CD005EB63
:104710004500064901EB8000416821600189A180C4
:10472000807AA071002070BD0520FCE7AC2A002033
:1047300070B590B004462088102801D010B070BD2C
:104740003422211D03A8FAF777FE4FF6FF759DF876
:1047500010000321B1EB500F35D003F097F99DF80D
:104760001000400820B1012803D0022828D114E00D
:1047700000BF09E0019800F1110104A8FBF762FFF6
:1047800010B1BDF8085006E06A4602A9072003F000
:104790004FF90028EED100BF13E008E00198411C5A
:1047A00004A8FFF785FF10B1BDF8085006E06A467F
:1047B00002A9072003F03CF90028EFD100BF00E078
:1047C00000BF00BF00BFBDF80C0004A901F024F831
:1047D00006464FF6FF7085420FD0BDF80C00294603
:1047E00000F088F8BDF80C00ADF8060001208DF847
:1047F000040001A8FEF73CFD00BF00BF9EE70000DB
:10480000024600210DE001EB4100084B33F8200087
:10481000904205D101EB410003EB800040887047D6
:10482000491C0829EFD34FF6FF70F8E7AC2A0020A7
:1048300010B500F0E9F9FDF727F9064908700846B8
:104840000078182801D1032010BD0120024908700A
:104850000020F9E71F2200201E2200202DE9F04150
:1048600004460D46601C00F057FB10B90020BDE85F
:10487000F0811022691C601CFAF717FE08B90120AC
:1048800000E00020074605F1110104F11100FBF7DB
:10489000D9FE064607B90EB10120E8E70020E6E799
:1048A0000246108808B101207047002105E0901CE5
:1048B000405C08B10120F7E7491C0829F7D3002024
:1048C000F2E770B505460C462846FFF7E9FF08B940
:1048D000002070BD28882188884201D00020F8E798
:1048E0000822A11CA81CFAF7E0FD08B90120F0E796
:1048F0000020EEE770B504460D462946204603F039
:10490000D7FA70BD30B587B00446207810B9207949
:10491000072801D007B030BD608804AA072102F043
:1049200099FE054605B1F5E703F0B0F81EE0608892
:10493000BDF81810884200D118E003990598FFF7D8
:104940008DFF90B16088FFF75BFFADF8020000209B
:104950008DF800006088ADF80400BDF81810ADF8BF
:1049600006106846FEF784FC07E000BF02AA06A90D
:10497000072003F05DF80028D9D100BF00BFC9E7C8
:1049800070B506463046FFF73BFF0446304602F05E
:104990006CFE05464FF6FF70844204D01DB90146F7
:1049A000204603F085FA284670BD000070B5054624
:1049B0002846FFF7F1FB0446FF2C05D004EB44002A
:1049C000034931F8200070BD4FF6FF70FBE700008F
:1049D000AC2A00203EB5044603F058F810E00198D8
:1049E00000F146012046FFF76CFF30B9019800F155
:1049F0002A012046FFF765FF10B1BDF808003EBD53
:104A00006A4602A9072003F013F80028E7D14FF601
:104A1000FF70F4E72DE9F04106460C460F272EB152
:104A20000120FEF723FF0120BDE8F081207930B19D
:104A300001280AD0022833D0032864D13EE002F0D6
:104A4000D9FB0746012020715EE04FF000080025E9
:104A500016E0324800EB0510007802280ED12F49ED
:104A600001EB0511486802F0B5FB074600202B4911
:104A700001EB051108704FF0010803E0681C85B2D6
:104A8000022DE6DB00BFB8F1000F08D10220FEF7CF
:104A900013FF0120FEF7EAFE41F61D50C4E733E0A4
:104AA0001F480023012201681E48FEF781FF0746C8
:104AB00002201B4988800020207125E018490868E1
:104AC00002F088FB0746184845881548D0F8008052
:104AD000124800EB05104068114908600F4800EBD0
:104AE0000510C0F80480084680880C4901EB0511C8
:104AF000088102200A4988800020084901EB05113D
:104B00000870207100E000BF00BF27B10120FEF750
:104B1000ADFE0E2088E7002086E70000AC300020C4
:104B2000B4220020F4220020CC300020F8B5274821
:104B3000007800B9F8BD00252548006808B90120B3
:104B400000E00020064600BFDDB92248007800B131
:104B5000F0E7684648DF0446052C01D101250FE047
:104B600024B100BF2046FBF7F3FF09E0009800F0F6
:104B700063FF1948006818B1174900980968884709
:104B800000BFDEB91348007800B1D3E713480088AE
:104B9000009069461248006861DF0446052C01D187
:104BA00001260AE024B100BF2046FBF7D1FF04E054
:104BB0000B48006806490968884700BF0DB106B177
:104BC00000E0C1E700BF00BFB4E70000DC22002026
:104BD000E8220020DD220020EC220020E422002038
:104BE000E022002000200149087070470C220020BC
:104BF0000020034908704FF6FF7002490880704793
:104C0000182200201A2200201820084908700020CD
:104C100008E04FF6FF7100EB4002054B03EB820208
:104C20005180401C0828F4D3704700001F22002048
:104C3000AC2A002010B5002407E004EB8401044AEC
:104C400002EB810006F061FE641C082CF5D310BD58
:104C50002C2B002010B5044640212046FAF713FC07
:104C600010BD00004FF6FF7005490880002005497F
:104C70000860182004490870044908707047000053
:104C800048220020402200204B2200204C220020FD
:104C900070B504460D4620791D4901EB4010007F98
:104CA000F8B14FF48871206801F05BFE4FF4907109
:104CB000206801F056FE4FF49271206801F051FE19
:104CC0004FF4A271206801F04CFE1249206801F0F7
:104CD00058FE206800F0E8FE0646294600F0B4FEC3
:104CE00014E04FF48E71206801F00BFE4FF4A271B6
:104CF000206801F006FE0849206801F011FE2068D6
:104D000000F0D2FE0646294600F09EFE70BD00006F
:104D1000442F0020100302008000020010B504A1FF
:104D20000020FBF725F801200949087010BD00009C
:104D3000496E74657276656E74696F6E20696E690E
:104D40007469616C697A696E672E2E2E0A00000004
:104D50002921002070B5022016490870002000F0BB
:104D6000FDF8012000F0FAF813A10020FBF700F88D
:104D70000022CD2116480068FBF78EFF044600BFD5
:104D8000254625B100BF2846FBF7E2FE00BF00BF65
:104D900000221048016810480068FBF77DFF0446B8
:104DA00000BF254625B100BF2846FBF7D1FE00BF56
